{"abi":[{"type":"constructor","inputs":[{"name":"_token","type":"address","internalType":"address"}],"stateMutability":"nonpayable"},{"type":"function","name":"DENOMINATOR","inputs":[],"outputs":[{"name":"","type":"uint256","internalType":"uint256"}],"stateMutability":"view"},{"type":"function","name":"MAX_BATCH_SET_CLAIM","inputs":[],"outputs":[{"name":"","type":"uint256","internalType":"uint256"}],"stateMutability":"view"},{"type":"function","name":"VESTING_PER_MONTH","inputs":[],"outputs":[{"name":"","type":"uint256","internalType":"uint256"}],"stateMutability":"view"},{"type":"function","name":"claim","inputs":[{"name":"beneficiary","type":"address","internalType":"address"},{"name":"amount","type":"uint256","internalType":"uint256"}],"outputs":[],"stateMutability":"nonpayable"},{"type":"function","name":"claimStart","inputs":[],"outputs":[{"name":"","type":"uint256","internalType":"uint256"}],"stateMutability":"view"},{"type":"function","name":"deposit","inputs":[{"name":"amount","type":"uint256","internalType":"uint256"}],"outputs":[],"stateMutability":"nonpayable"},{"type":"function","name":"getClaimInfo","inputs":[{"name":"user","type":"address","internalType":"address"}],"outputs":[{"name":"amount","type":"uint256","internalType":"uint256"},{"name":"claimed","type":"uint256","internalType":"uint256"},{"name":"remain","type":"uint256","internalType":"uint256"}],"stateMutability":"view"},{"type":"function","name":"getClaimInfoArray","inputs":[{"name":"fromIndex","type":"uint256","internalType":"uint256"},{"name":"toIndex","type":"uint256","internalType":"uint256"}],"outputs":[{"name":"","type":"tuple[]","internalType":"struct Claiming.ClaimInfo[]","components":[{"name":"user","type":"address","internalType":"address"},{"name":"amount","type":"uint256","internalType":"uint256"},{"name":"claimed","type":"uint256","internalType":"uint256"},{"name":"remain","type":"uint256","internalType":"uint256"}]}],"stateMutability":"view"},{"type":"function","name":"getClaimInfoAtIndex","inputs":[{"name":"index","type":"uint256","internalType":"uint256"}],"outputs":[{"name":"user","type":"address","internalType":"address"},{"name":"amount","type":"uint256","internalType":"uint256"},{"name":"claimed","type":"uint256","internalType":"uint256"},{"name":"remain","type":"uint256","internalType":"uint256"}],"stateMutability":"view"},{"type":"function","name":"getClaimInfoIndex","inputs":[{"name":"user","type":"address","internalType":"address"}],"outputs":[{"name":"","type":"uint256","internalType":"uint256"}],"stateMutability":"view"},{"type":"function","name":"getClaimInfoLength","inputs":[],"outputs":[{"name":"","type":"uint256","internalType":"uint256"}],"stateMutability":"view"},{"type":"function","name":"getClaimaVestingAmount","inputs":[{"name":"user","type":"address","internalType":"address"}],"outputs":[{"name":"","type":"uint256","internalType":"uint256"}],"stateMutability":"view"},{"type":"function","name":"getClaimableAmount","inputs":[{"name":"user","type":"address","internalType":"address"}],"outputs":[{"name":"amount","type":"uint256","internalType":"uint256"}],"stateMutability":"view"},{"type":"function","name":"getTotalDeposits","inputs":[],"outputs":[{"name":"","type":"uint256","internalType":"uint256"}],"stateMutability":"view"},{"type":"function","name":"liquidityMining","inputs":[],"outputs":[{"name":"","type":"address","internalType":"address"}],"stateMutability":"view"},{"type":"function","name":"owner","inputs":[],"outputs":[{"name":"","type":"address","internalType":"address"}],"stateMutability":"view"},{"type":"function","name":"renounceOwnership","inputs":[],"outputs":[],"stateMutability":"nonpayable"},{"type":"function","name":"setClaim","inputs":[{"name":"user","type":"address","internalType":"address"},{"name":"amount","type":"uint256","internalType":"uint256"}],"outputs":[],"stateMutability":"nonpayable"},{"type":"function","name":"setClaimBatch","inputs":[{"name":"users","type":"address[]","internalType":"address[]"},{"name":"amounts","type":"uint256[]","internalType":"uint256[]"}],"outputs":[],"stateMutability":"nonpayable"},{"type":"function","name":"setClaimStart","inputs":[{"name":"_claimStart","type":"uint256","internalType":"uint256"}],"outputs":[],"stateMutability":"nonpayable"},{"type":"function","name":"setLiquidityMiningContract","inputs":[{"name":"_liquidityMining","type":"address","internalType":"address"}],"outputs":[],"stateMutability":"nonpayable"},{"type":"function","name":"setStakingContract","inputs":[{"name":"_staking","type":"address","internalType":"address"}],"outputs":[],"stateMutability":"nonpayable"},{"type":"function","name":"stake","inputs":[{"name":"amount","type":"uint256","internalType":"uint256"},{"name":"durationInMonths","type":"uint256","internalType":"uint256"}],"outputs":[],"stateMutability":"nonpayable"},{"type":"function","name":"staking","inputs":[],"outputs":[{"name":"","type":"address","internalType":"address"}],"stateMutability":"view"},{"type":"function","name":"token","inputs":[],"outputs":[{"name":"","type":"address","internalType":"contract IERC20"}],"stateMutability":"view"},{"type":"function","name":"transferOwnership","inputs":[{"name":"newOwner","type":"address","internalType":"address"}],"outputs":[],"stateMutability":"nonpayable"},{"type":"function","name":"transferTokenToLiquidityMining","inputs":[{"name":"amount","type":"uint256","internalType":"uint256"}],"outputs":[],"stateMutability":"nonpayable"},{"type":"function","name":"withdraw","inputs":[{"name":"amount","type":"uint256","internalType":"uint256"}],"outputs":[],"stateMutability":"nonpayable"},{"type":"event","name":"ClaimInfoUpdated","inputs":[{"name":"user","type":"address","indexed":true,"internalType":"address"},{"name":"previousAmount","type":"uint256","indexed":false,"internalType":"uint256"},{"name":"amount","type":"uint256","indexed":false,"internalType":"uint256"},{"name":"time","type":"uint256","indexed":false,"internalType":"uint256"}],"anonymous":false},{"type":"event","name":"ClaimStartTimeUpdated","inputs":[{"name":"user","type":"address","indexed":true,"internalType":"address"},{"name":"claimStartTime","type":"uint256","indexed":false,"internalType":"uint256"}],"anonymous":false},{"type":"event","name":"Claimed","inputs":[{"name":"user","type":"address","indexed":true,"internalType":"address"},{"name":"beneficiary","type":"address","indexed":true,"internalType":"address"},{"name":"amount","type":"uint256","indexed":false,"internalType":"uint256"},{"name":"time","type":"uint256","indexed":false,"internalType":"uint256"}],"anonymous":false},{"type":"event","name":"Deposited","inputs":[{"name":"user","type":"address","indexed":true,"internalType":"address"},{"name":"amount","type":"uint256","indexed":false,"internalType":"uint256"},{"name":"time","type":"uint256","indexed":false,"internalType":"uint256"}],"anonymous":false},{"type":"event","name":"LiquidityMiningContractAddressUpdated","inputs":[{"name":"user","type":"address","indexed":true,"internalType":"address"},{"name":"liquidityMining","type":"address","indexed":false,"internalType":"address"},{"name":"time","type":"uint256","indexed":false,"internalType":"uint256"}],"anonymous":false},{"type":"event","name":"OwnershipTransferred","inputs":[{"name":"previousOwner","type":"address","indexed":true,"internalType":"address"},{"name":"newOwner","type":"address","indexed":true,"internalType":"address"}],"anonymous":false},{"type":"event","name":"Staked","inputs":[{"name":"user","type":"address","indexed":true,"internalType":"address"},{"name":"amount","type":"uint256","indexed":false,"internalType":"uint256"},{"name":"time","type":"uint256","indexed":false,"internalType":"uint256"}],"anonymous":false},{"type":"event","name":"StakingContractAddressUpdated","inputs":[{"name":"user","type":"address","indexed":true,"internalType":"address"},{"name":"staking","type":"address","indexed":false,"internalType":"address"},{"name":"time","type":"uint256","indexed":false,"internalType":"uint256"}],"anonymous":false},{"type":"event","name":"TokenTransferedToLiquidityMining","inputs":[{"name":"user","type":"address","indexed":true,"internalType":"address"},{"name":"amount","type":"uint256","indexed":false,"internalType":"uint256"},{"name":"time","type":"uint256","indexed":false,"internalType":"uint256"}],"anonymous":false},{"type":"event","name":"Withdrawed","inputs":[{"name":"user","type":"address","indexed":true,"internalType":"address"},{"name":"amount","type":"uint256","indexed":false,"internalType":"uint256"},{"name":"time","type":"uint256","indexed":false,"internalType":"uint256"}],"anonymous":false},{"type":"error","name":"AddressEmptyCode","inputs":[{"name":"target","type":"address","internalType":"address"}]},{"type":"error","name":"FailedCall","inputs":[]},{"type":"error","name":"InsufficientBalance","inputs":[{"name":"balance","type":"uint256","internalType":"uint256"},{"name":"needed","type":"uint256","internalType":"uint256"}]},{"type":"error","name":"OwnableInvalidOwner","inputs":[{"name":"owner","type":"address","internalType":"address"}]},{"type":"error","name":"OwnableUnauthorizedAccount","inputs":[{"name":"account","type":"address","internalType":"address"}]},{"type":"error","name":"SafeERC20FailedOperation","inputs":[{"name":"token","type":"address","internalType":"address"}]}],"bytecode":{"object":"0x60806040526103e86005556109c460065561271060075534801561002257600080fd5b5060405161231238038061231283398101604081905261004191610214565b338061006857604051631e4fbdf760e01b8152600060048201526024015b60405180910390fd5b610071816101c4565b506001600160a01b0381166100c85760405162461bcd60e51b815260206004820152601d60248201527f546f6b656e20616464726573732063616e6e6f74206265207a65726f2e000000604482015260640161005f565b600180546001600160a01b03199081166001600160a01b03938416178255604080516080810182526000808252602082018181529282018181526060830182815260088054978801815590925291517ff3f7a9fe364faab93b216da50a3214154f22a0a2b415b23a84c8169e8b636ee360049096029586018054909516961695909517909255517ff3f7a9fe364faab93b216da50a3214154f22a0a2b415b23a84c8169e8b636ee4830155517ff3f7a9fe364faab93b216da50a3214154f22a0a2b415b23a84c8169e8b636ee582015590517ff3f7a9fe364faab93b216da50a3214154f22a0a2b415b23a84c8169e8b636ee690910155610244565b600080546001600160a01b038381166001600160a01b0319831681178455604051919092169283917f8be0079c531659141344cd1fd0a4f28419497f9722a3daafe3b4186f6b6457e09190a35050565b60006020828403121561022657600080fd5b81516001600160a01b038116811461023d57600080fd5b9392505050565b6120bf806102536000396000f3fe608060405234801561001057600080fd5b50600436106101c45760003560e01c80638da5cb5b116100f9578063ceb79b7911610097578063ea4f927a11610071578063ea4f927a146103e5578063f04d688f146103f8578063f2fde38b14610401578063fc0c546a1461041457600080fd5b8063ceb79b79146103c1578063df032905146103c9578063e12f3a61146103d257600080fd5b80639ec3646d116100d35780639ec3646d14610375578063aad3ec9614610388578063b0aa1e041461039b578063b6b55f25146103ae57600080fd5b80638da5cb5b14610348578063918f8674146103595780639dd373b91461036257600080fd5b80634cf088d9116101665780637b0472f0116101405780637b0472f0146102e65780637f7e1b44146102f957806383b5b2151461030c57806385b2d5351461033557600080fd5b80634cf088d9146102a057806361aec1e0146102cb578063715018a6146102de57600080fd5b80632e1a7d4d116101a25780632e1a7d4d1461023257806332d41c7b1461024757806339ec3d19146102845780633f18d3b11461028d57600080fd5b80630835fe47146101c957806314bb5820146101fc578063168a48221461021c575b600080fd5b6101dc6101d7366004611d8a565b610427565b604080519384526020840192909252908201526060015b60405180910390f35b61020f61020a366004611da5565b6104c4565b6040516101f39190611dc7565b6102246106ed565b6040519081526020016101f3565b610245610240366004611e36565b61075f565b005b61025a610255366004611e36565b61082a565b604080516001600160a01b03909516855260208501939093529183015260608201526080016101f3565b61022460055481565b61022461029b366004611d8a565b61096c565b6002546102b3906001600160a01b031681565b6040516001600160a01b0390911681526020016101f3565b6102456102d9366004611e4f565b610aa3565b610245610d04565b6102456102f4366004611da5565b610d18565b610245610307366004611ec5565b610fc9565b61022461031a366004611d8a565b6001600160a01b031660009081526009602052604090205490565b6003546102b3906001600160a01b031681565b6000546001600160a01b03166102b3565b61022460075481565b610245610370366004611d8a565b61135b565b610245610383366004611d8a565b61141f565b610245610396366004611e4f565b6114ec565b6102456103a9366004611e36565b611711565b6102456103bc366004611e36565b6117ef565b610224611896565b61022460065481565b6102246103e0366004611d8a565b6118a8565b6102456103f3366004611e36565b61194c565b61022460045481565b61024561040f366004611d8a565b611a7e565b6001546102b3906001600160a01b031681565b6001600160a01b038116600090815260096020526040812054600880548392839290918290811061045a5761045a611f36565b90600052602060002090600402016001015493506008818154811061048157610481611f36565b9060005260206000209060040201600201549250600881815481106104a8576104a8611f36565b9060005260206000209060040201600301549150509193909250565b600854606090836105125760405162461bcd60e51b8152602060048201526013602482015272092dcecc2d8d2c840e6e8c2e4e840d2dcc8caf606b1b60448201526064015b60405180910390fd5b828411156105555760405162461bcd60e51b815260206004820152601060248201526f24b73b30b634b21034b73232bc32b99760811b6044820152606401610509565b8083106105b75760405162461bcd60e51b815260206004820152602a60248201527f496e6465782063616e6e6f74206265206f76657220746865206c656e677468206044820152696f66207374616b696e6760b01b6064820152608401610509565b60006105c38585611f62565b6105ce906001611f75565b67ffffffffffffffff8111156105e6576105e6611f88565b60405190808252806020026020018201604052801561064b57816020015b610638604051806080016040528060006001600160a01b031681526020016000815260200160008152602001600081525090565b8152602001906001900390816106045790505b509050845b8481116106e2576008818154811061066a5761066a611f36565b600091825260209182902060408051608081018252600490930290910180546001600160a01b031683526001810154938301939093526002830154908201526003909101546060820152826106bf8884611f62565b815181106106cf576106cf611f36565b6020908102919091010152600101610650565b509150505b92915050565b6001546040516370a0823160e01b81523060048201526000916001600160a01b0316906370a0823190602401602060405180830381865afa158015610736573d6000803e3d6000fd5b505050506040513d601f19601f8201168201806040525081019061075a9190611f9e565b905090565b610767611abc565b600081116107b75760405162461bcd60e51b815260206004820152601b60248201527f43616e6e6f74207769746864726177207a65726f20616d6f756e7400000000006044820152606401610509565b6107df6107cc6000546001600160a01b031690565b6001546001600160a01b03169083611ae9565b600054604080518381524260208201526001600160a01b03909216917f4cdcd27ae88503b2d4d3034a348b78aec00eca6369f48e5002ca3df8686b9b3e91015b60405180910390a250565b600080600080846000036108765760405162461bcd60e51b8152602060048201526013602482015272092dcecc2d8d2c840e6e8c2e4e840d2dcc8caf606b1b6044820152606401610509565b60085485106108bd5760405162461bcd60e51b8152602060048201526013602482015272496e76616c696420696e6465782076616c756560681b6044820152606401610509565b600885815481106108d0576108d0611f36565b6000918252602090912060049091020154600880546001600160a01b03909216918790811061090157610901611f36565b9060005260206000209060040201600101546008878154811061092657610926611f36565b9060005260206000209060040201600201546008888154811061094b5761094b611f36565b90600052602060002090600402016003015493509350935093509193509193565b6001600160a01b038116600090815260096020526040812054600880548391908390811061099c5761099c611f36565b600091825260209182902060408051608081018252600493840290920180546001600160a01b0316835260018101549483019490945260028401549082015260039092015460608301525490915015806109f7575060045442105b15610a06575060009392505050565b600062278d0060045442610a1a9190611f62565b610a249190611fb7565b610a2f906001611f75565b90506004811115610a41576004610a43565b805b90506000600754600654838560200151610a5d9190611fd9565b610a679190611fd9565b610a719190611fb7565b905082604001518111610a8a5750600095945050505050565b6040830151610a999082611f62565b9695505050505050565b6003546001600160a01b03161580610ac657506003546001600160a01b03163314155b8015610add57506000546001600160a01b03163314155b15610afa5760405162461bcd60e51b815260040161050990611ff0565b6001600160a01b038216610b505760405162461bcd60e51b815260206004820152601c60248201527f5573657220616464726573732063616e6e6f74206265207a65726f2e000000006044820152606401610509565b6001600160a01b0382166000908152600960205260408120548015610bb557600060088281548110610b8457610b84611f36565b600091825260208220600160049092020190810180549087905560028201929092556003018590559250610cb39050565b600880546001600160a01b0386811660008181526009602090815260408083208690558051608081018252938452908301898152908301828152606084018a815260018701885596835292517ff3f7a9fe364faab93b216da50a3214154f22a0a2b415b23a84c8169e8b636ee3600490960295860180546001600160a01b031916919095161790935591517ff3f7a9fe364faab93b216da50a3214154f22a0a2b415b23a84c8169e8b636ee4840155517ff3f7a9fe364faab93b216da50a3214154f22a0a2b415b23a84c8169e8b636ee583015591517ff3f7a9fe364faab93b216da50a3214154f22a0a2b415b23a84c8169e8b636ee69091015591505b6040805183815260208101859052428183015290516001600160a01b038616917f50fc1d3d0d1d3afaeda3fb154d7803cf837a6f6c6f115801fef3e834436efbe7919081900360600190a250505050565b610d0c611abc565b610d166000611b4d565b565b81600003610d635760405162461bcd60e51b815260206004820152601860248201527710d85b9b9bdd0818db185a5b481e995c9bc8185b5bdd5b9d60421b6044820152606401610509565b6002546001600160a01b0316610dbb5760405162461bcd60e51b815260206004820152601760248201527f496e76616c6964207374616b696e6720616464726573730000000000000000006044820152606401610509565b336000908152600960205260408120546008805491929183908110610de257610de2611f36565b906000526020600020906004020190508060030154841115610e465760405162461bcd60e51b815260206004820152601d60248201527f496e73756666696369656e7420636c61696d61626c6520616d6f756e740000006044820152606401610509565b83816003016000828254610e5a9190611f62565b909155505060015460025460405163095ea7b360e01b81526001600160a01b03918216600482015260248101879052600092919091169063095ea7b3906044016020604051808303816000875af1158015610eb9573d6000803e3d6000fd5b505050506040513d601f19601f82011682018060405250810190610edd9190612038565b905080610f1d5760405162461bcd60e51b815260206004820152600e60248201526d105c1c1c9bdd994819985a5b195960921b6044820152606401610509565b600254604051631979cf6b60e21b815233600482015260248101879052604481018690526001600160a01b03909116906365e73dac90606401600060405180830381600087803b158015610f7057600080fd5b505af1158015610f84573d6000803e3d6000fd5b5050604080518881524260208201523393507f1449c6dd7851abc30abf37f57715f492010519147cc2652fbc38202c18a6ee9092500160405180910390a25050505050565b610fd1611abc565b60008390036110225760405162461bcd60e51b815260206004820152601d60248201527f496e76616c696420696e7075742061727261792773206c656e6774682e0000006044820152606401610509565b6005548311156110745760405162461bcd60e51b815260206004820152601d60248201527f496e76616c696420696e7075742061727261792773206c656e6774682e0000006044820152606401610509565b8281146110e95760405162461bcd60e51b815260206004820152603a60248201527f546865206c656e677468206f662061727261797320666f72207573657273206160448201527f6e6420616d6f756e74732073686f756c642062652073616d652e0000000000006064820152608401610509565b60005b8381101561135457600085858381811061110857611108611f36565b905060200201602081019061111d9190611d8a565b90506001600160a01b0381166111755760405162461bcd60e51b815260206004820152601c60248201527f5573657220616464726573732063616e6e6f74206265207a65726f2e000000006044820152606401610509565b600084848481811061118957611189611f36565b6001600160a01b0385166000908152600960209081526040822054920293909301359350905080156111fb576000600882815481106111ca576111ca611f36565b6000918252602082206001600490920201908101805490879055600282019290925560030185905592506112f99050565b600880546001600160a01b0386811660008181526009602090815260408083208690558051608081018252938452908301898152908301828152606084018a815260018701885596835292517ff3f7a9fe364faab93b216da50a3214154f22a0a2b415b23a84c8169e8b636ee3600490960295860180546001600160a01b031916919095161790935591517ff3f7a9fe364faab93b216da50a3214154f22a0a2b415b23a84c8169e8b636ee4840155517ff3f7a9fe364faab93b216da50a3214154f22a0a2b415b23a84c8169e8b636ee583015591517ff3f7a9fe364faab93b216da50a3214154f22a0a2b415b23a84c8169e8b636ee69091015591505b604080518381526020810185905242818301529051600196909601956001600160a01b038616917f50fc1d3d0d1d3afaeda3fb154d7803cf837a6f6c6f115801fef3e834436efbe7919081900360600190a2505050506110ec565b5050505050565b611363611abc565b6001600160a01b0381166113ca5760405162461bcd60e51b815260206004820152602860248201527f5374616b696e6720636f6e74726163742063616e6e6f74206265207a65726f2060448201526730b2323932b9b99760c11b6064820152608401610509565b600280546001600160a01b0319166001600160a01b0383169081179091556040805191825242602083015233917fa6b3607ee6e2a51ef994ef5ed1e214983843f0a254d3d8f3dd6cdddacb4a1b9e910161081f565b611427611abc565b6001600160a01b0381166114975760405162461bcd60e51b815260206004820152603160248201527f4c6971756964697479206d696e696e6720636f6e74726163742063616e6e6f74604482015270103132903d32b9379030b2323932b9b99760791b6064820152608401610509565b600380546001600160a01b0319166001600160a01b0383169081179091556040805191825242602083015233917ffa776a99a3a7b973ba3b406fb2a03b7ddee9cf3b459e9524214c2073178a465e910161081f565b600454158015906114ff57506004544210155b61154b5760405162461bcd60e51b815260206004820152601960248201527f436c61696d696e67206973206e6f742061626c65206e6f772e000000000000006044820152606401610509565b806000036115965760405162461bcd60e51b815260206004820152601860248201527710d85b9b9bdd0818db185a5b481e995c9bc8185b5bdd5b9d60421b6044820152606401610509565b6001600160a01b0382166115ec5760405162461bcd60e51b815260206004820152601c60248201527f43616e6e6f7420636c61696d20746f207a65726f2061646472657373000000006044820152606401610509565b33600090815260096020526040812054600880549192918390811061161357611613611f36565b9060005260206000209060040201905061162c336118a8565b83111561167b5760405162461bcd60e51b815260206004820152601d60248201527f496e73756666696369656e7420636c61696d61626c6520616d6f756e740000006044820152606401610509565b8281600301600082825461168f9190611f62565b92505081905550828160020160008282546116aa9190611f75565b90915550506001546116c6906001600160a01b03168585611ae9565b604080518481524260208201526001600160a01b0386169133917f2f6639d24651730c7bf57c95ddbf96d66d11477e4ec626876f92c22e5f365e68910160405180910390a350505050565b6003546001600160a01b0316158061173457506003546001600160a01b03163314155b801561174b57506000546001600160a01b03163314155b156117685760405162461bcd60e51b815260040161050990611ff0565b428110156117b85760405162461bcd60e51b815260206004820181905260248201527f496e76616c69642074696d6520666f7220737461727420636c61696d696e672e6044820152606401610509565b600481905560405181815233907f44847fbd2b4a7840e35fde74599d6543d65c1f13317420eeadad166d8a97f9df9060200161081f565b6117f7611abc565b600081116118475760405162461bcd60e51b815260206004820152601a60248201527f43616e6e6f74206465706f736974207a65726f20616d6f756e740000000000006044820152606401610509565b60015461185f906001600160a01b0316333084611b9d565b6040805182815242602082015233917f73a19dd210f1a7f902193214c0ee91dd35ee5b4d920cba8d519eca65a7b488ca910161081f565b60085460009061075a90600190611f62565b6001600160a01b03811660009081526009602052604081205460088054839190839081106118d8576118d8611f36565b6000918252602080832060408051608081018252600490940290910180546001600160a01b03168452600181015492840192909252600282015490830152600301546060820152915061192a8561096c565b90508160600151811161193d5780611943565b81606001515b95945050505050565b8060000361199c5760405162461bcd60e51b815260206004820152601b60248201527f43616e6e6f74207472616e73666572207a65726f20616d6f756e7400000000006044820152606401610509565b6003546001600160a01b0316158015906119c057506003546001600160a01b031633145b611a2a5760405162461bcd60e51b815260206004820152603560248201527f4f6e6c79206c6971756964697479206d696e696e6720636f6e7472616374206360448201527430b71031b0b636103a3434b990333ab731ba34b7b760591b6064820152608401610509565b600354600154611a47916001600160a01b03918216911683611ae9565b6040805182815242602082015233917fc57561a60905019689717b3ca2e753a1fed3d786e6581dc8e6ee363bd1841a1f910161081f565b611a86611abc565b6001600160a01b038116611ab057604051631e4fbdf760e01b815260006004820152602401610509565b611ab981611b4d565b50565b6000546001600160a01b03163314610d165760405163118cdaa760e01b8152336004820152602401610509565b6040516001600160a01b03838116602483015260448201839052611b4891859182169063a9059cbb906064015b604051602081830303815290604052915060e01b6020820180516001600160e01b038381831617835250505050611bdc565b505050565b600080546001600160a01b038381166001600160a01b0319831681178455604051919092169283917f8be0079c531659141344cd1fd0a4f28419497f9722a3daafe3b4186f6b6457e09190a35050565b6040516001600160a01b038481166024830152838116604483015260648201839052611bd69186918216906323b872dd90608401611b16565b50505050565b6000611bf16001600160a01b03841683611c3f565b90508051600014158015611c16575080806020019051810190611c149190612038565b155b15611b4857604051635274afe760e01b81526001600160a01b0384166004820152602401610509565b6060611c4d83836000611c54565b9392505050565b606081471015611c805760405163cf47918160e01b815247600482015260248101839052604401610509565b600080856001600160a01b03168486604051611c9c919061205a565b60006040518083038185875af1925050503d8060008114611cd9576040519150601f19603f3d011682016040523d82523d6000602084013e611cde565b606091505b5091509150610a99868383606082611cfe57611cf982611d45565b611c4d565b8151158015611d1557506001600160a01b0384163b155b15611d3e57604051639996b31560e01b81526001600160a01b0385166004820152602401610509565b5080611c4d565b805115611d555780518082602001fd5b60405163d6bda27560e01b815260040160405180910390fd5b80356001600160a01b0381168114611d8557600080fd5b919050565b600060208284031215611d9c57600080fd5b611c4d82611d6e565b60008060408385031215611db857600080fd5b50508035926020909101359150565b602080825282518282018190526000918401906040840190835b81811015611e2b57835180516001600160a01b0316845260208082015181860152604080830151908601526060918201519185019190915290930192608090920191600101611de1565b509095945050505050565b600060208284031215611e4857600080fd5b5035919050565b60008060408385031215611e6257600080fd5b611e6b83611d6e565b946020939093013593505050565b60008083601f840112611e8b57600080fd5b50813567ffffffffffffffff811115611ea357600080fd5b6020830191508360208260051b8501011115611ebe57600080fd5b9250929050565b60008060008060408587031215611edb57600080fd5b843567ffffffffffffffff811115611ef257600080fd5b611efe87828801611e79565b909550935050602085013567ffffffffffffffff811115611f1e57600080fd5b611f2a87828801611e79565b95989497509550505050565b634e487b7160e01b600052603260045260246000fd5b634e487b7160e01b600052601160045260246000fd5b818103818111156106e7576106e7611f4c565b808201808211156106e7576106e7611f4c565b634e487b7160e01b600052604160045260246000fd5b600060208284031215611fb057600080fd5b5051919050565b600082611fd457634e487b7160e01b600052601260045260246000fd5b500490565b80820281158282048414176106e7576106e7611f4c565b60208082526028908201527f496e76616c6964207065726d697373696f6e20746f2063616c6c207468697320604082015267333ab731ba34b7b760c11b606082015260800190565b60006020828403121561204a57600080fd5b81518015158114611c4d57600080fd5b6000825160005b8181101561207b5760208186018101518583015201612061565b50600092019182525091905056fea26469706673582212206d07308f901f9a9996c9571d997a62eafec4b29631d27734beaf6e789dbe197364736f6c634300081a0033","linkReferences":{}},"methodIdentifiers":{"DENOMINATOR()":"918f8674","MAX_BATCH_SET_CLAIM()":"39ec3d19","VESTING_PER_MONTH()":"df032905","claim(address,uint256)":"aad3ec96","claimStart()":"f04d688f","deposit(uint256)":"b6b55f25","getClaimInfo(address)":"0835fe47","getClaimInfoArray(uint256,uint256)":"14bb5820","getClaimInfoAtIndex(uint256)":"32d41c7b","getClaimInfoIndex(address)":"83b5b215","getClaimInfoLength()":"ceb79b79","getClaimaVestingAmount(address)":"3f18d3b1","getClaimableAmount(address)":"e12f3a61","getTotalDeposits()":"168a4822","liquidityMining()":"85b2d535","owner()":"8da5cb5b","renounceOwnership()":"715018a6","setClaim(address,uint256)":"61aec1e0","setClaimBatch(address[],uint256[])":"7f7e1b44","setClaimStart(uint256)":"b0aa1e04","setLiquidityMiningContract(address)":"9ec3646d","setStakingContract(address)":"9dd373b9","stake(uint256,uint256)":"7b0472f0","staking()":"4cf088d9","token()":"fc0c546a","transferOwnership(address)":"f2fde38b","transferTokenToLiquidityMining(uint256)":"ea4f927a","withdraw(uint256)":"2e1a7d4d"},"id":34}