{"abi":[{"type":"constructor","inputs":[{"name":"_token","type":"address","internalType":"address"}],"stateMutability":"nonpayable"},{"type":"function","name":"MAX_BATCH_SET_CLAIM","inputs":[],"outputs":[{"name":"","type":"uint256","internalType":"uint256"}],"stateMutability":"view"},{"type":"function","name":"claim","inputs":[{"name":"beneficiary","type":"address","internalType":"address"},{"name":"amount","type":"uint256","internalType":"uint256"}],"outputs":[],"stateMutability":"nonpayable"},{"type":"function","name":"claimStart","inputs":[],"outputs":[{"name":"","type":"uint256","internalType":"uint256"}],"stateMutability":"view"},{"type":"function","name":"deposit","inputs":[{"name":"amount","type":"uint256","internalType":"uint256"}],"outputs":[],"stateMutability":"nonpayable"},{"type":"function","name":"getClaimInfo","inputs":[{"name":"index","type":"uint256","internalType":"uint256"}],"outputs":[{"name":"user","type":"address","internalType":"address"},{"name":"amount","type":"uint256","internalType":"uint256"}],"stateMutability":"view"},{"type":"function","name":"getClaimInfoArray","inputs":[{"name":"fromIndex","type":"uint256","internalType":"uint256"},{"name":"toIndex","type":"uint256","internalType":"uint256"}],"outputs":[{"name":"","type":"tuple[]","internalType":"struct Claiming.ClaimInfo[]","components":[{"name":"user","type":"address","internalType":"address"},{"name":"amount","type":"uint256","internalType":"uint256"}]}],"stateMutability":"view"},{"type":"function","name":"getClaimInfoIndex","inputs":[{"name":"user","type":"address","internalType":"address"}],"outputs":[{"name":"","type":"uint256","internalType":"uint256"}],"stateMutability":"view"},{"type":"function","name":"getClaimInfoLength","inputs":[],"outputs":[{"name":"","type":"uint256","internalType":"uint256"}],"stateMutability":"view"},{"type":"function","name":"getClaimableAmount","inputs":[{"name":"user","type":"address","internalType":"address"}],"outputs":[{"name":"","type":"uint256","internalType":"uint256"}],"stateMutability":"view"},{"type":"function","name":"getTotalDeposits","inputs":[],"outputs":[{"name":"","type":"uint256","internalType":"uint256"}],"stateMutability":"view"},{"type":"function","name":"liquidityMining","inputs":[],"outputs":[{"name":"","type":"address","internalType":"address"}],"stateMutability":"view"},{"type":"function","name":"owner","inputs":[],"outputs":[{"name":"","type":"address","internalType":"address"}],"stateMutability":"view"},{"type":"function","name":"renounceOwnership","inputs":[],"outputs":[],"stateMutability":"nonpayable"},{"type":"function","name":"setClaim","inputs":[{"name":"user","type":"address","internalType":"address"},{"name":"amount","type":"uint256","internalType":"uint256"}],"outputs":[],"stateMutability":"nonpayable"},{"type":"function","name":"setClaimBatch","inputs":[{"name":"users","type":"address[]","internalType":"address[]"},{"name":"amounts","type":"uint256[]","internalType":"uint256[]"}],"outputs":[],"stateMutability":"nonpayable"},{"type":"function","name":"setClaimStart","inputs":[{"name":"_claimStart","type":"uint256","internalType":"uint256"}],"outputs":[],"stateMutability":"nonpayable"},{"type":"function","name":"setLiquidityMiningContract","inputs":[{"name":"_liquidityMining","type":"address","internalType":"address"}],"outputs":[],"stateMutability":"nonpayable"},{"type":"function","name":"setStakingContract","inputs":[{"name":"_staking","type":"address","internalType":"address"}],"outputs":[],"stateMutability":"nonpayable"},{"type":"function","name":"setToken","inputs":[{"name":"_token","type":"address","internalType":"address"}],"outputs":[],"stateMutability":"nonpayable"},{"type":"function","name":"stake","inputs":[{"name":"amount","type":"uint256","internalType":"uint256"},{"name":"durationInMonths","type":"uint256","internalType":"uint256"}],"outputs":[],"stateMutability":"nonpayable"},{"type":"function","name":"staking","inputs":[],"outputs":[{"name":"","type":"address","internalType":"address"}],"stateMutability":"view"},{"type":"function","name":"token","inputs":[],"outputs":[{"name":"","type":"address","internalType":"contract IERC20"}],"stateMutability":"view"},{"type":"function","name":"transferOwnership","inputs":[{"name":"newOwner","type":"address","internalType":"address"}],"outputs":[],"stateMutability":"nonpayable"},{"type":"function","name":"transferTokenToLiquidityMining","inputs":[{"name":"amount","type":"uint256","internalType":"uint256"}],"outputs":[],"stateMutability":"nonpayable"},{"type":"function","name":"withdraw","inputs":[{"name":"amount","type":"uint256","internalType":"uint256"}],"outputs":[],"stateMutability":"nonpayable"},{"type":"event","name":"ClaimInfoUpdated","inputs":[{"name":"user","type":"address","indexed":true,"internalType":"address"},{"name":"previousAmount","type":"uint256","indexed":false,"internalType":"uint256"},{"name":"amount","type":"uint256","indexed":false,"internalType":"uint256"},{"name":"time","type":"uint256","indexed":false,"internalType":"uint256"}],"anonymous":false},{"type":"event","name":"ClaimStartTimeUpdated","inputs":[{"name":"user","type":"address","indexed":true,"internalType":"address"},{"name":"claimStartTime","type":"uint256","indexed":false,"internalType":"uint256"}],"anonymous":false},{"type":"event","name":"Claimed","inputs":[{"name":"user","type":"address","indexed":true,"internalType":"address"},{"name":"beneficiary","type":"address","indexed":true,"internalType":"address"},{"name":"amount","type":"uint256","indexed":false,"internalType":"uint256"},{"name":"time","type":"uint256","indexed":false,"internalType":"uint256"}],"anonymous":false},{"type":"event","name":"Deposited","inputs":[{"name":"user","type":"address","indexed":true,"internalType":"address"},{"name":"amount","type":"uint256","indexed":false,"internalType":"uint256"},{"name":"time","type":"uint256","indexed":false,"internalType":"uint256"}],"anonymous":false},{"type":"event","name":"OwnershipTransferred","inputs":[{"name":"previousOwner","type":"address","indexed":true,"internalType":"address"},{"name":"newOwner","type":"address","indexed":true,"internalType":"address"}],"anonymous":false},{"type":"event","name":"Staked","inputs":[{"name":"user","type":"address","indexed":true,"internalType":"address"},{"name":"amount","type":"uint256","indexed":false,"internalType":"uint256"},{"name":"time","type":"uint256","indexed":false,"internalType":"uint256"}],"anonymous":false},{"type":"event","name":"Withdrawed","inputs":[{"name":"user","type":"address","indexed":true,"internalType":"address"},{"name":"amount","type":"uint256","indexed":false,"internalType":"uint256"},{"name":"time","type":"uint256","indexed":false,"internalType":"uint256"}],"anonymous":false},{"type":"error","name":"AddressEmptyCode","inputs":[{"name":"target","type":"address","internalType":"address"}]},{"type":"error","name":"FailedCall","inputs":[]},{"type":"error","name":"InsufficientBalance","inputs":[{"name":"balance","type":"uint256","internalType":"uint256"},{"name":"needed","type":"uint256","internalType":"uint256"}]},{"type":"error","name":"OwnableInvalidOwner","inputs":[{"name":"owner","type":"address","internalType":"address"}]},{"type":"error","name":"OwnableUnauthorizedAccount","inputs":[{"name":"account","type":"address","internalType":"address"}]},{"type":"error","name":"SafeERC20FailedOperation","inputs":[{"name":"token","type":"address","internalType":"address"}]}],"bytecode":{"object":"0x60806040526103e860055534801561001657600080fd5b50604051611d6d380380611d6d833981016040819052610035916101b0565b338061005c57604051631e4fbdf760e01b8152600060048201526024015b60405180910390fd5b61006581610160565b506001600160a01b0381166100bc5760405162461bcd60e51b815260206004820152601d60248201527f546f6b656e20616464726573732063616e6e6f74206265207a65726f2e0000006044820152606401610053565b600180546001600160a01b03199081166001600160a01b039384161782556040805180820190915260008082526020820181815260068054958601815590915290517ff652222313e28459528d920b65115c16c04f3efc82aaedc97be59f3f377c0d3f60029094029384018054909316941693909317905590517ff652222313e28459528d920b65115c16c04f3efc82aaedc97be59f3f377c0d40909101556101e0565b600080546001600160a01b038381166001600160a01b0319831681178455604051919092169283917f8be0079c531659141344cd1fd0a4f28419497f9722a3daafe3b4186f6b6457e09190a35050565b6000602082840312156101c257600080fd5b81516001600160a01b03811681146101d957600080fd5b9392505050565b611b7e806101ef6000396000f3fe608060405234801561001057600080fd5b50600436106101735760003560e01c80638da5cb5b116100de578063ceb79b7911610097578063ea4f927a11610071578063ea4f927a1461034d578063f04d688f14610360578063f2fde38b14610369578063fc0c546a1461037c57600080fd5b8063ceb79b7914610300578063d207019314610308578063e12f3a611461033a57600080fd5b80638da5cb5b146102905780639dd373b9146102a15780639ec3646d146102b4578063aad3ec96146102c7578063b0aa1e04146102da578063b6b55f25146102ed57600080fd5b806361aec1e01161013057806361aec1e014610213578063715018a6146102265780637b0472f01461022e5780637f7e1b441461024157806383b5b2151461025457806385b2d5351461027d57600080fd5b8063144fa6d71461017857806314bb58201461018d578063168a4822146101b65780632e1a7d4d146101cc57806339ec3d19146101df5780634cf088d9146101e8575b600080fd5b61018b6101863660046118e1565b61038f565b005b6101a061019b3660046118fc565b610414565b6040516101ad919061191e565b60405180910390f35b6101be610601565b6040519081526020016101ad565b61018b6101da366004611976565b610673565b6101be60055481565b6002546101fb906001600160a01b031681565b6040516001600160a01b0390911681526020016101ad565b61018b61022136600461198f565b61073e565b61018b61097c565b61018b61023c3660046118fc565b610990565b61018b61024f366004611a05565b610bf3565b6101be6102623660046118e1565b6001600160a01b031660009081526007602052604090205490565b6003546101fb906001600160a01b031681565b6000546001600160a01b03166101fb565b61018b6102af3660046118e1565b610f1d565b61018b6102c23660046118e1565b610fae565b61018b6102d536600461198f565b611048565b61018b6102e8366004611976565b61124e565b61018b6102fb366004611976565b6112dc565b6101be611383565b61031b610316366004611976565b611395565b604080516001600160a01b0390931683526020830191909152016101ad565b6101be6103483660046118e1565b611484565b61018b61035b366004611976565b6114cb565b6101be60045481565b61018b6103773660046118e1565b6115c9565b6001546101fb906001600160a01b031681565b610397611604565b6001600160a01b0381166103f25760405162461bcd60e51b815260206004820152601d60248201527f546f6b656e20616464726573732063616e6e6f74206265207a65726f2e00000060448201526064015b60405180910390fd5b600180546001600160a01b0319166001600160a01b0392909216919091179055565b6006546060908361045d5760405162461bcd60e51b8152602060048201526013602482015272092dcecc2d8d2c840e6e8c2e4e840d2dcc8caf606b1b60448201526064016103e9565b828411156104a05760405162461bcd60e51b815260206004820152601060248201526f24b73b30b634b21034b73232bc32b99760811b60448201526064016103e9565b8083106105025760405162461bcd60e51b815260206004820152602a60248201527f496e6465782063616e6e6f74206265206f76657220746865206c656e677468206044820152696f66207374616b696e6760b01b60648201526084016103e9565b600061050e8585611a8c565b610519906001611a9f565b67ffffffffffffffff81111561053157610531611ab2565b60405190808252806020026020018201604052801561057657816020015b604080518082019091526000808252602082015281526020019060019003908161054f5790505b509050845b8481116105f6576006818154811061059557610595611ac8565b60009182526020918290206040805180820190915260029092020180546001600160a01b031682526001015491810191909152826105d38884611a8c565b815181106105e3576105e3611ac8565b602090810291909101015260010161057b565b509150505b92915050565b6001546040516370a0823160e01b81523060048201526000916001600160a01b0316906370a0823190602401602060405180830381865afa15801561064a573d6000803e3d6000fd5b505050506040513d601f19601f8201168201806040525081019061066e9190611ade565b905090565b61067b611604565b600081116106cb5760405162461bcd60e51b815260206004820152601b60248201527f43616e6e6f74207769746864726177207a65726f20616d6f756e74000000000060448201526064016103e9565b6106f36106e06000546001600160a01b031690565b6001546001600160a01b03169083611631565b600054604080518381524260208201526001600160a01b03909216917f4cdcd27ae88503b2d4d3034a348b78aec00eca6369f48e5002ca3df8686b9b3e91015b60405180910390a250565b6003546001600160a01b0316158061076157506003546001600160a01b03163314155b801561077857506000546001600160a01b03163314155b156107d65760405162461bcd60e51b815260206004820152602860248201527f496e76616c6964207065726d697373696f6e20746f2063616c6c207468697320604482015267333ab731ba34b7b760c11b60648201526084016103e9565b6001600160a01b03821661082c5760405162461bcd60e51b815260206004820152601c60248201527f5573657220616464726573732063616e6e6f74206265207a65726f2e0000000060448201526064016103e9565b6001600160a01b03821660009081526007602052604081205480156108825760006006828154811061086057610860611ac8565b6000918252602090912060016002909202010180549085905592506109279050565b600680546001600160a01b0386811660008181526007602090815260408083208690558051808201909152928352820188815260018501865594815290517ff652222313e28459528d920b65115c16c04f3efc82aaedc97be59f3f377c0d3f600290940293840180546001600160a01b031916919093161790915591517ff652222313e28459528d920b65115c16c04f3efc82aaedc97be59f3f377c0d409091015591505b604080518381526020810185905242918101919091526001600160a01b038516907f50fc1d3d0d1d3afaeda3fb154d7803cf837a6f6c6f115801fef3e834436efbe7906060015b60405180910390a250505050565b610984611604565b61098e6000611695565b565b816000036109db5760405162461bcd60e51b815260206004820152601860248201527710d85b9b9bdd0818db185a5b481e995c9bc8185b5bdd5b9d60421b60448201526064016103e9565b6002546001600160a01b0316610a335760405162461bcd60e51b815260206004820152601760248201527f496e76616c6964207374616b696e67206164647265737300000000000000000060448201526064016103e9565b336000908152600760205260408120546006805491929183908110610a5a57610a5a611ac8565b906000526020600020906002020190508060010154841115610abe5760405162461bcd60e51b815260206004820152601d60248201527f496e73756666696369656e7420636c61696d61626c6520616d6f756e7400000060448201526064016103e9565b83816001016000828254610ad29190611a8c565b909155505060015460025460405163095ea7b360e01b81526001600160a01b0391821660048201526024810187905291169063095ea7b3906044016020604051808303816000875af1158015610b2c573d6000803e3d6000fd5b505050506040513d601f19601f82011682018060405250810190610b509190611af7565b50600254604051631979cf6b60e21b815233600482015260248101869052604481018590526001600160a01b03909116906365e73dac90606401600060405180830381600087803b158015610ba457600080fd5b505af1158015610bb8573d6000803e3d6000fd5b5050604080518781524260208201523393507f1449c6dd7851abc30abf37f57715f492010519147cc2652fbc38202c18a6ee9092500161096e565b610bfb611604565b6000839003610c4c5760405162461bcd60e51b815260206004820152601d60248201527f496e76616c696420696e7075742061727261792773206c656e6774682e00000060448201526064016103e9565b600554831115610c9e5760405162461bcd60e51b815260206004820152601d60248201527f496e76616c696420696e7075742061727261792773206c656e6774682e00000060448201526064016103e9565b828114610d135760405162461bcd60e51b815260206004820152603a60248201527f546865206c656e677468206f662061727261797320666f72207573657273206160448201527f6e6420616d6f756e74732073686f756c642062652073616d652e00000000000060648201526084016103e9565b60005b83811015610f16576000858583818110610d3257610d32611ac8565b9050602002016020810190610d4791906118e1565b90506001600160a01b038116610d9f5760405162461bcd60e51b815260206004820152601c60248201527f5573657220616464726573732063616e6e6f74206265207a65726f2e0000000060448201526064016103e9565b6000848484818110610db357610db3611ac8565b6001600160a01b038516600090815260076020908152604082205492029390930135935090508015610e1657600060068281548110610df457610df4611ac8565b600091825260209091206001600290920201018054908590559250610ebb9050565b600680546001600160a01b0386811660008181526007602090815260408083208690558051808201909152928352820188815260018501865594815290517ff652222313e28459528d920b65115c16c04f3efc82aaedc97be59f3f377c0d3f600290940293840180546001600160a01b031916919093161790915591517ff652222313e28459528d920b65115c16c04f3efc82aaedc97be59f3f377c0d409091015591505b604080518381526020810185905242818301529051600196909601956001600160a01b038616917f50fc1d3d0d1d3afaeda3fb154d7803cf837a6f6c6f115801fef3e834436efbe7919081900360600190a250505050610d16565b5050505050565b610f25611604565b6001600160a01b038116610f8c5760405162461bcd60e51b815260206004820152602860248201527f5374616b696e6720636f6e74726163742063616e6e6f74206265207a65726f2060448201526730b2323932b9b99760c11b60648201526084016103e9565b600280546001600160a01b0319166001600160a01b0392909216919091179055565b610fb6611604565b6001600160a01b0381166110265760405162461bcd60e51b815260206004820152603160248201527f4c6971756964697479206d696e696e6720636f6e74726163742063616e6e6f74604482015270103132903d32b9379030b2323932b9b99760791b60648201526084016103e9565b600380546001600160a01b0319166001600160a01b0392909216919091179055565b6004541580159061105b57506004544210155b6110a75760405162461bcd60e51b815260206004820152601960248201527f436c61696d696e67206973206e6f742061626c65206e6f772e0000000000000060448201526064016103e9565b806000036110f25760405162461bcd60e51b815260206004820152601860248201527710d85b9b9bdd0818db185a5b481e995c9bc8185b5bdd5b9d60421b60448201526064016103e9565b6001600160a01b0382166111485760405162461bcd60e51b815260206004820152601c60248201527f43616e6e6f7420636c61696d20746f207a65726f20616464726573730000000060448201526064016103e9565b33600090815260076020526040812054600680549192918390811061116f5761116f611ac8565b9060005260206000209060020201905080600101548311156111d35760405162461bcd60e51b815260206004820152601d60248201527f496e73756666696369656e7420636c61696d61626c6520616d6f756e7400000060448201526064016103e9565b828160010160008282546111e79190611a8c565b9091555050600154611203906001600160a01b03168585611631565b604080518481524260208201526001600160a01b0386169133917f2f6639d24651730c7bf57c95ddbf96d66d11477e4ec626876f92c22e5f365e68910160405180910390a350505050565b611256611604565b4281116112a55760405162461bcd60e51b815260206004820181905260248201527f496e76616c69642074696d6520666f7220737461727420636c61696d696e672e60448201526064016103e9565b600481905560405181815233907f44847fbd2b4a7840e35fde74599d6543d65c1f13317420eeadad166d8a97f9df90602001610733565b6112e4611604565b600081116113345760405162461bcd60e51b815260206004820152601a60248201527f43616e6e6f74206465706f736974207a65726f20616d6f756e7400000000000060448201526064016103e9565b60015461134c906001600160a01b03163330846116e5565b6040805182815242602082015233917f73a19dd210f1a7f902193214c0ee91dd35ee5b4d920cba8d519eca65a7b488ca9101610733565b60065460009061066e90600190611a8c565b600080826000036113de5760405162461bcd60e51b8152602060048201526013602482015272092dcecc2d8d2c840e6e8c2e4e840d2dcc8caf606b1b60448201526064016103e9565b60065483106114255760405162461bcd60e51b8152602060048201526013602482015272496e76616c696420696e6465782076616c756560681b60448201526064016103e9565b6006838154811061143857611438611ac8565b6000918252602090912060029091020154600680546001600160a01b03909216918590811061146957611469611ac8565b90600052602060002090600202016001015491509150915091565b6001600160a01b03811660009081526007602052604081205460068054829081106114b1576114b1611ac8565b906000526020600020906002020160010154915050919050565b8060000361151b5760405162461bcd60e51b815260206004820152601b60248201527f43616e6e6f74207472616e73666572207a65726f20616d6f756e74000000000060448201526064016103e9565b6003546001600160a01b03161580159061153f57506003546001600160a01b031633145b6115a95760405162461bcd60e51b815260206004820152603560248201527f4f6e6c79206c6971756964697479206d696e696e6720636f6e7472616374206360448201527430b71031b0b636103a3434b990333ab731ba34b7b760591b60648201526084016103e9565b6003546001546115c6916001600160a01b03918216911683611631565b50565b6115d1611604565b6001600160a01b0381166115fb57604051631e4fbdf760e01b8152600060048201526024016103e9565b6115c681611695565b6000546001600160a01b0316331461098e5760405163118cdaa760e01b81523360048201526024016103e9565b6040516001600160a01b0383811660248301526044820183905261169091859182169063a9059cbb906064015b604051602081830303815290604052915060e01b6020820180516001600160e01b038381831617835250505050611724565b505050565b600080546001600160a01b038381166001600160a01b0319831681178455604051919092169283917f8be0079c531659141344cd1fd0a4f28419497f9722a3daafe3b4186f6b6457e09190a35050565b6040516001600160a01b03848116602483015283811660448301526064820183905261171e9186918216906323b872dd9060840161165e565b50505050565b60006117396001600160a01b03841683611787565b9050805160001415801561175e57508080602001905181019061175c9190611af7565b155b1561169057604051635274afe760e01b81526001600160a01b03841660048201526024016103e9565b60606117958383600061179c565b9392505050565b6060814710156117c85760405163cf47918160e01b8152476004820152602481018390526044016103e9565b600080856001600160a01b031684866040516117e49190611b19565b60006040518083038185875af1925050503d8060008114611821576040519150601f19603f3d011682016040523d82523d6000602084013e611826565b606091505b5091509150611836868383611840565b9695505050505050565b606082611855576118508261189c565b611795565b815115801561186c57506001600160a01b0384163b155b1561189557604051639996b31560e01b81526001600160a01b03851660048201526024016103e9565b5080611795565b8051156118ac5780518082602001fd5b60405163d6bda27560e01b815260040160405180910390fd5b80356001600160a01b03811681146118dc57600080fd5b919050565b6000602082840312156118f357600080fd5b611795826118c5565b6000806040838503121561190f57600080fd5b50508035926020909101359150565b602080825282518282018190526000918401906040840190835b8181101561196b57835180516001600160a01b031684526020908101518185015290930192604090920191600101611938565b509095945050505050565b60006020828403121561198857600080fd5b5035919050565b600080604083850312156119a257600080fd5b6119ab836118c5565b946020939093013593505050565b60008083601f8401126119cb57600080fd5b50813567ffffffffffffffff8111156119e357600080fd5b6020830191508360208260051b85010111156119fe57600080fd5b9250929050565b60008060008060408587031215611a1b57600080fd5b843567ffffffffffffffff811115611a3257600080fd5b611a3e878288016119b9565b909550935050602085013567ffffffffffffffff811115611a5e57600080fd5b611a6a878288016119b9565b95989497509550505050565b634e487b7160e01b600052601160045260246000fd5b818103818111156105fb576105fb611a76565b808201808211156105fb576105fb611a76565b634e487b7160e01b600052604160045260246000fd5b634e487b7160e01b600052603260045260246000fd5b600060208284031215611af057600080fd5b5051919050565b600060208284031215611b0957600080fd5b8151801515811461179557600080fd5b6000825160005b81811015611b3a5760208186018101518583015201611b20565b50600092019182525091905056fea26469706673582212205bd7951050d018f1d1778d31e08353c62427dbc0de585ca25915dc3e75b8999364736f6c634300081a0033","linkReferences":{}},"methodIdentifiers":{"MAX_BATCH_SET_CLAIM()":"39ec3d19","claim(address,uint256)":"aad3ec96","claimStart()":"f04d688f","deposit(uint256)":"b6b55f25","getClaimInfo(uint256)":"d2070193","getClaimInfoArray(uint256,uint256)":"14bb5820","getClaimInfoIndex(address)":"83b5b215","getClaimInfoLength()":"ceb79b79","getClaimableAmount(address)":"e12f3a61","getTotalDeposits()":"168a4822","liquidityMining()":"85b2d535","owner()":"8da5cb5b","renounceOwnership()":"715018a6","setClaim(address,uint256)":"61aec1e0","setClaimBatch(address[],uint256[])":"7f7e1b44","setClaimStart(uint256)":"b0aa1e04","setLiquidityMiningContract(address)":"9ec3646d","setStakingContract(address)":"9dd373b9","setToken(address)":"144fa6d7","stake(uint256,uint256)":"7b0472f0","staking()":"4cf088d9","token()":"fc0c546a","transferOwnership(address)":"f2fde38b","transferTokenToLiquidityMining(uint256)":"ea4f927a","withdraw(uint256)":"2e1a7d4d"},"id":34}