{"abi":[{"type":"constructor","inputs":[{"name":"_token","type":"address","internalType":"address"},{"name":"_chainlinkETHUSDAddress","type":"address","internalType":"address"}],"stateMutability":"nonpayable"},{"type":"function","name":"ALLOWED_MINIMUM_DEPOSIT","inputs":[],"outputs":[{"name":"","type":"uint256","internalType":"uint256"}],"stateMutability":"view"},{"type":"function","name":"DENOMINATOR","inputs":[],"outputs":[{"name":"","type":"uint256","internalType":"uint256"}],"stateMutability":"view"},{"type":"function","name":"MININUM_PERIOD_LOCK_ETH","inputs":[],"outputs":[{"name":"","type":"uint256","internalType":"uint256"}],"stateMutability":"view"},{"type":"function","name":"REWARD_RATE_1M","inputs":[],"outputs":[{"name":"","type":"uint256","internalType":"uint256"}],"stateMutability":"view"},{"type":"function","name":"REWARD_RATE_2M","inputs":[],"outputs":[{"name":"","type":"uint256","internalType":"uint256"}],"stateMutability":"view"},{"type":"function","name":"REWARD_RATE_3M","inputs":[],"outputs":[{"name":"","type":"uint256","internalType":"uint256"}],"stateMutability":"view"},{"type":"function","name":"REWARD_RATE_4M","inputs":[],"outputs":[{"name":"","type":"uint256","internalType":"uint256"}],"stateMutability":"view"},{"type":"function","name":"REWARD_RATE_5M","inputs":[],"outputs":[{"name":"","type":"uint256","internalType":"uint256"}],"stateMutability":"view"},{"type":"function","name":"WETH","inputs":[],"outputs":[{"name":"","type":"address","internalType":"address"}],"stateMutability":"view"},{"type":"function","name":"addLiquidity","inputs":[{"name":"amount","type":"uint256","internalType":"uint256"}],"outputs":[{"name":"aToken","type":"uint256","internalType":"uint256"},{"name":"aETH","type":"uint256","internalType":"uint256"},{"name":"aLiquidity","type":"uint256","internalType":"uint256"}],"stateMutability":"payable"},{"type":"function","name":"claimReward","inputs":[],"outputs":[],"stateMutability":"nonpayable"},{"type":"function","name":"claiming","inputs":[],"outputs":[{"name":"","type":"address","internalType":"address"}],"stateMutability":"view"},{"type":"function","name":"dailyTotalHistory","inputs":[{"name":"","type":"uint256","internalType":"uint256"}],"outputs":[{"name":"amount","type":"uint256","internalType":"uint256"},{"name":"prev","type":"uint256","internalType":"uint256"},{"name":"next","type":"uint256","internalType":"uint256"}],"stateMutability":"view"},{"type":"function","name":"depositETH","inputs":[],"outputs":[],"stateMutability":"payable"},{"type":"function","name":"depositRewardTokens","inputs":[{"name":"amount","type":"uint256","internalType":"uint256"}],"outputs":[],"stateMutability":"nonpayable"},{"type":"function","name":"depositStart","inputs":[],"outputs":[{"name":"","type":"uint256","internalType":"uint256"}],"stateMutability":"view"},{"type":"function","name":"fetchETHUSDPrice","inputs":[],"outputs":[{"name":"price","type":"uint256","internalType":"uint256"},{"name":"decimals","type":"uint256","internalType":"uint256"}],"stateMutability":"view"},{"type":"function","name":"getRewardTokenAmount","inputs":[{"name":"user","type":"address","internalType":"address"}],"outputs":[{"name":"rewardAmount","type":"uint256","internalType":"uint256"},{"name":"lastCpDay","type":"uint256","internalType":"uint256"},{"name":"lastTotalCpDay","type":"uint256","internalType":"uint256"}],"stateMutability":"view"},{"type":"function","name":"getTotalDailyCheckpoint","inputs":[{"name":"day","type":"uint256","internalType":"uint256"}],"outputs":[{"name":"amount","type":"uint256","internalType":"uint256"},{"name":"prev","type":"uint256","internalType":"uint256"},{"name":"next","type":"uint256","internalType":"uint256"}],"stateMutability":"view"},{"type":"function","name":"getUserDailyCheckpoint","inputs":[{"name":"user","type":"address","internalType":"address"},{"name":"day","type":"uint256","internalType":"uint256"}],"outputs":[{"name":"amount","type":"uint256","internalType":"uint256"},{"name":"prev","type":"uint256","internalType":"uint256"},{"name":"next","type":"uint256","internalType":"uint256"}],"stateMutability":"view"},{"type":"function","name":"getUserDepositInfo","inputs":[{"name":"user","type":"address","internalType":"address"},{"name":"index","type":"uint256","internalType":"uint256"}],"outputs":[{"name":"","type":"uint256","internalType":"uint256"},{"name":"","type":"uint256","internalType":"uint256"},{"name":"","type":"bool","internalType":"bool"}],"stateMutability":"view"},{"type":"function","name":"getUserTotalDeposit","inputs":[{"name":"user","type":"address","internalType":"address"}],"outputs":[{"name":"","type":"uint256","internalType":"uint256"}],"stateMutability":"view"},{"type":"function","name":"lastCheckpointDay","inputs":[{"name":"","type":"address","internalType":"address"}],"outputs":[{"name":"","type":"uint256","internalType":"uint256"}],"stateMutability":"view"},{"type":"function","name":"lastRewardClaimDay","inputs":[{"name":"","type":"address","internalType":"address"}],"outputs":[{"name":"","type":"uint256","internalType":"uint256"}],"stateMutability":"view"},{"type":"function","name":"lastTotalCheckpointDay","inputs":[{"name":"","type":"address","internalType":"address"}],"outputs":[{"name":"","type":"uint256","internalType":"uint256"}],"stateMutability":"view"},{"type":"function","name":"lastUpdateDay","inputs":[],"outputs":[{"name":"","type":"uint256","internalType":"uint256"}],"stateMutability":"view"},{"type":"function","name":"listLiquidity","inputs":[{"name":"_pair","type":"address","internalType":"address"}],"outputs":[],"stateMutability":"nonpayable"},{"type":"function","name":"listedLiquidity","inputs":[],"outputs":[{"name":"","type":"uint256","internalType":"uint256"}],"stateMutability":"view"},{"type":"function","name":"listedTime","inputs":[],"outputs":[{"name":"","type":"uint256","internalType":"uint256"}],"stateMutability":"view"},{"type":"function","name":"owner","inputs":[],"outputs":[{"name":"","type":"address","internalType":"address"}],"stateMutability":"view"},{"type":"function","name":"pair","inputs":[],"outputs":[{"name":"","type":"address","internalType":"contract IUniswapV2Pair"}],"stateMutability":"view"},{"type":"function","name":"removeLiquidity","inputs":[{"name":"index","type":"uint256","internalType":"uint256"}],"outputs":[{"name":"amountToken","type":"uint256","internalType":"uint256"},{"name":"amountETH","type":"uint256","internalType":"uint256"}],"stateMutability":"nonpayable"},{"type":"function","name":"renounceOwnership","inputs":[],"outputs":[],"stateMutability":"nonpayable"},{"type":"function","name":"rewardPeriod","inputs":[],"outputs":[{"name":"","type":"uint256","internalType":"uint256"}],"stateMutability":"view"},{"type":"function","name":"setAllowedMinimumDeposit","inputs":[{"name":"amount","type":"uint256","internalType":"uint256"}],"outputs":[],"stateMutability":"nonpayable"},{"type":"function","name":"setClaimingContract","inputs":[{"name":"_claiming","type":"address","internalType":"address"}],"outputs":[],"stateMutability":"nonpayable"},{"type":"function","name":"setDepositStart","inputs":[{"name":"_depositStart","type":"uint256","internalType":"uint256"}],"outputs":[],"stateMutability":"nonpayable"},{"type":"function","name":"setPair","inputs":[{"name":"_pair","type":"address","internalType":"address"}],"outputs":[],"stateMutability":"nonpayable"},{"type":"function","name":"setRewardStates","inputs":[{"name":"_start","type":"uint256","internalType":"uint256"},{"name":"_period","type":"uint256","internalType":"uint256"},{"name":"_total","type":"uint256","internalType":"uint256"}],"outputs":[],"stateMutability":"nonpayable"},{"type":"function","name":"setToken","inputs":[{"name":"_token","type":"address","internalType":"address"}],"outputs":[],"stateMutability":"nonpayable"},{"type":"function","name":"setWETH","inputs":[{"name":"_WETH","type":"address","internalType":"address"}],"outputs":[],"stateMutability":"nonpayable"},{"type":"function","name":"startDay","inputs":[],"outputs":[{"name":"","type":"uint256","internalType":"uint256"}],"stateMutability":"view"},{"type":"function","name":"token","inputs":[],"outputs":[{"name":"","type":"address","internalType":"contract IERC20"}],"stateMutability":"view"},{"type":"function","name":"totalDeposits","inputs":[],"outputs":[{"name":"","type":"uint256","internalType":"uint256"}],"stateMutability":"view"},{"type":"function","name":"totalReward","inputs":[],"outputs":[{"name":"","type":"uint256","internalType":"uint256"}],"stateMutability":"view"},{"type":"function","name":"transferOwnership","inputs":[{"name":"newOwner","type":"address","internalType":"address"}],"outputs":[],"stateMutability":"nonpayable"},{"type":"function","name":"uniswapV2Factory","inputs":[],"outputs":[{"name":"","type":"address","internalType":"contract IUniswapV2Factory"}],"stateMutability":"view"},{"type":"function","name":"uniswapV2Router","inputs":[],"outputs":[{"name":"","type":"address","internalType":"contract IUniswapV2Router02"}],"stateMutability":"view"},{"type":"function","name":"updateCheckpointStartDay","inputs":[{"name":"user","type":"address","internalType":"address"}],"outputs":[],"stateMutability":"nonpayable"},{"type":"function","name":"userDailyHistory","inputs":[{"name":"","type":"address","internalType":"address"},{"name":"","type":"uint256","internalType":"uint256"}],"outputs":[{"name":"amount","type":"uint256","internalType":"uint256"},{"name":"prev","type":"uint256","internalType":"uint256"},{"name":"next","type":"uint256","internalType":"uint256"}],"stateMutability":"view"},{"type":"function","name":"userDeposits","inputs":[{"name":"","type":"address","internalType":"address"},{"name":"","type":"uint256","internalType":"uint256"}],"outputs":[{"name":"amount","type":"uint256","internalType":"uint256"},{"name":"depositOn","type":"uint256","internalType":"uint256"},{"name":"liquidity","type":"uint256","internalType":"uint256"},{"name":"removed","type":"bool","internalType":"bool"}],"stateMutability":"view"},{"type":"function","name":"userLastUpdateDay","inputs":[{"name":"","type":"address","internalType":"address"}],"outputs":[{"name":"","type":"uint256","internalType":"uint256"}],"stateMutability":"view"},{"type":"function","name":"userTotalDeposits","inputs":[{"name":"","type":"address","internalType":"address"}],"outputs":[{"name":"","type":"uint256","internalType":"uint256"}],"stateMutability":"view"},{"type":"event","name":"AllowedMinimumDepositUpdated","inputs":[{"name":"user","type":"address","indexed":true,"internalType":"address"},{"name":"previousAmount","type":"uint256","indexed":false,"internalType":"uint256"},{"name":"amount","type":"uint256","indexed":false,"internalType":"uint256"},{"name":"time","type":"uint256","indexed":false,"internalType":"uint256"}],"anonymous":false},{"type":"event","name":"DepositStartTimeUpdated","inputs":[{"name":"user","type":"address","indexed":true,"internalType":"address"},{"name":"depositStartTime","type":"uint256","indexed":false,"internalType":"uint256"}],"anonymous":false},{"type":"event","name":"Deposited","inputs":[{"name":"user","type":"address","indexed":true,"internalType":"address"},{"name":"amount","type":"uint256","indexed":false,"internalType":"uint256"},{"name":"time","type":"uint256","indexed":false,"internalType":"uint256"}],"anonymous":false},{"type":"event","name":"LiquidityAdded","inputs":[{"name":"user","type":"address","indexed":true,"internalType":"address"},{"name":"liquidity","type":"uint256","indexed":false,"internalType":"uint256"},{"name":"time","type":"uint256","indexed":false,"internalType":"uint256"}],"anonymous":false},{"type":"event","name":"LiquidityRemoved","inputs":[{"name":"user","type":"address","indexed":true,"internalType":"address"},{"name":"ownLiquidity","type":"uint256","indexed":false,"internalType":"uint256"},{"name":"amountToken","type":"uint256","indexed":false,"internalType":"uint256"},{"name":"amountETH","type":"uint256","indexed":false,"internalType":"uint256"},{"name":"time","type":"uint256","indexed":false,"internalType":"uint256"}],"anonymous":false},{"type":"event","name":"OwnershipTransferred","inputs":[{"name":"previousOwner","type":"address","indexed":true,"internalType":"address"},{"name":"newOwner","type":"address","indexed":true,"internalType":"address"}],"anonymous":false},{"type":"event","name":"RewardProgramPlanUpdated","inputs":[{"name":"user","type":"address","indexed":true,"internalType":"address"},{"name":"startDay","type":"uint256","indexed":false,"internalType":"uint256"},{"name":"period","type":"uint256","indexed":false,"internalType":"uint256"},{"name":"totalReward","type":"uint256","indexed":false,"internalType":"uint256"},{"name":"time","type":"uint256","indexed":false,"internalType":"uint256"}],"anonymous":false},{"type":"event","name":"RewardTransferred","inputs":[{"name":"user","type":"address","indexed":true,"internalType":"address"},{"name":"amount","type":"uint256","indexed":false,"internalType":"uint256"},{"name":"time","type":"uint256","indexed":false,"internalType":"uint256"}],"anonymous":false},{"type":"event","name":"TokenDepositedForReward","inputs":[{"name":"user","type":"address","indexed":true,"internalType":"address"},{"name":"amount","type":"uint256","indexed":false,"internalType":"uint256"},{"name":"time","type":"uint256","indexed":false,"internalType":"uint256"}],"anonymous":false},{"type":"error","name":"AddressEmptyCode","inputs":[{"name":"target","type":"address","internalType":"address"}]},{"type":"error","name":"FailedCall","inputs":[]},{"type":"error","name":"InsufficientBalance","inputs":[{"name":"balance","type":"uint256","internalType":"uint256"},{"name":"needed","type":"uint256","internalType":"uint256"}]},{"type":"error","name":"OwnableInvalidOwner","inputs":[{"name":"owner","type":"address","internalType":"address"}]},{"type":"error","name":"OwnableUnauthorizedAccount","inputs":[{"name":"account","type":"address","internalType":"address"}]},{"type":"error","name":"ReentrancyGuardReentrantCall","inputs":[]},{"type":"error","name":"SafeERC20FailedOperation","inputs":[{"name":"token","type":"address","internalType":"address"}]}],"bytecode":{"object":"0x60806040526127106007556113886008556109c46009556105dc600a556103e8600b55612710600c5534801561003457600080fd5b506040516134c03803806134c0833981016040819052610053916101ec565b338061007a57604051631e4fbdf760e01b8152600060048201526024015b60405180910390fd5b61008381610180565b50600180556001600160a01b0382166100e85760405162461bcd60e51b815260206004820152602160248201527f53616c6520746f6b656e20616464726573732063616e6e6f74206265207a65726044820152606f60f81b6064820152608401610071565b600280546001600160a01b039384166001600160a01b031991821617909155602080549290931691811691909117909155601e80548216735c69bee701ef814a2b6a3edd4b1652cb9cc5aa6f179055601f80548216737a250d5630b4cf539739df2c5dacb4c659f2488d179055600f805490911673c02aaa39b223fe8d0a0e5c4f27ead9083c756cc217905562278d00600e5561021f565b600080546001600160a01b038381166001600160a01b0319831681178455604051919092169283917f8be0079c531659141344cd1fd0a4f28419497f9722a3daafe3b4186f6b6457e09190a35050565b80516001600160a01b03811681146101e757600080fd5b919050565b600080604083850312156101ff57600080fd5b610208836101d0565b9150610216602084016101d0565b90509250929050565b6132928061022e6000396000f3fe60806040526004361061031a5760003560e01c80638187f516116101ab578063a8aa1b31116100f7578063d9c146de11610095578063e88dc5b71161006f578063e88dc5b714610a2f578063f2fde38b14610a45578063f6326fb314610a65578063fc0c546a14610a6d57600080fd5b8063d9c146de146109ed578063dc713a4814610a03578063e133d2cd14610a1957600080fd5b8063b88a802f116100d1578063b88a802f14610934578063b935088b14610949578063c0806b0314610990578063d4a86a40146109cd57600080fd5b8063a8aa1b31146108c7578063ad5c4648146108e7578063af238ba51461090757600080fd5b80639218caa7116101645780639c8f9f231161013e5780639c8f9f231461083b5780639ce696791461085b578063a43a1b241461087b578063a4c828dc1461089157600080fd5b80639218caa7146107d85780639295953f146107ee57806396ee87821461081b57600080fd5b80638187f5161461070557806383c73126146107255780638bff1de0146107615780638c983567146107775780638da5cb5b146107a4578063918f8674146107c257600080fd5b80634c384b511161026a5780635b769f3c11610223578063750142e6116101fd578063750142e6146106ad5780637bfa37e1146106c35780637d882097146106d95780637ea7533b146106ef57600080fd5b80635b769f3c14610658578063715018a61461067857806372d970a31461068d57600080fd5b80634c384b511461051e57806350f2bc5a1461053457806351c6590a1461054a57806351f9c87c1461057857806358cf4643146105ce57806359d0f7131461063857600080fd5b80631694505e116102d7578063265900e8116102b1578063265900e81461048757806329d7157e146104a75780634007b929146104d4578063413d5056146104fe57600080fd5b80631694505e1461043157806316c621e014610451578063184a22d11461047157600080fd5b80630539272a1461031f578063057e2c401461034857806308f43333146103755780630d26ad9c146103b75780630defc08a146103d9578063144fa6d714610411575b600080fd5b34801561032b57600080fd5b5061033560135481565b6040519081526020015b60405180910390f35b34801561035457600080fd5b50610335610363366004612e0a565b601a6020526000908152604090205481565b34801561038157600080fd5b50610395610390366004612e25565b610a8d565b604080519485526020850193909352918301521515606082015260800161033f565b3480156103c357600080fd5b506103d76103d2366004612e0a565b610ad6565b005b3480156103e557600080fd5b506003546103f9906001600160a01b031681565b6040516001600160a01b03909116815260200161033f565b34801561041d57600080fd5b506103d761042c366004612e0a565b610b9e565b34801561043d57600080fd5b50601f546103f9906001600160a01b031681565b34801561045d57600080fd5b506103d761046c366004612e4f565b610c23565b34801561047d57600080fd5b50610335600d5481565b34801561049357600080fd5b506103d76104a2366004612e0a565b610cc8565b3480156104b357600080fd5b506103356104c2366004612e0a565b60196020526000908152604090205481565b3480156104e057600080fd5b506104e961119b565b6040805192835260208301919091520161033f565b34801561050a57600080fd5b506103d7610519366004612e4f565b611296565b34801561052a57600080fd5b5061033560085481565b34801561054057600080fd5b50610335601c5481565b61055d610558366004612e4f565b611325565b6040805193845260208401929092529082015260600161033f565b34801561058457600080fd5b5061055d610593366004612e4f565b6000908152601b6020908152604091829020825160608101845281548082526001830154938201849052600290920154930183905292909190565b3480156105da57600080fd5b5061055d6105e9366004612e25565b6001600160a01b03909116600090815260166020908152604080832093835292815290829020825160608101845281548082526001830154938201849052600290920154930183905292909190565b34801561064457600080fd5b50601e546103f9906001600160a01b031681565b34801561066457600080fd5b506103d7610673366004612e0a565b611748565b34801561068457600080fd5b506103d76117c8565b34801561069957600080fd5b506103d76106a8366004612e4f565b6117dc565b3480156106b957600080fd5b5061033560155481565b3480156106cf57600080fd5b5061033560055481565b3480156106e557600080fd5b5061033560105481565b3480156106fb57600080fd5b50610335600b5481565b34801561071157600080fd5b506103d7610720366004612e0a565b611832565b34801561073157600080fd5b5061055d610740366004612e4f565b601b6020526000908152604090208054600182015460029092015490919083565b34801561076d57600080fd5b50610335600a5481565b34801561078357600080fd5b50610335610792366004612e0a565b60186020526000908152604090205481565b3480156107b057600080fd5b506000546001600160a01b03166103f9565b3480156107ce57600080fd5b50610335600c5481565b3480156107e457600080fd5b5061033560095481565b3480156107fa57600080fd5b50610335610809366004612e0a565b60126020526000908152604090205481565b34801561082757600080fd5b5061055d610836366004612e0a565b6118b2565b34801561084757600080fd5b506104e9610856366004612e4f565b611b78565b34801561086757600080fd5b506103d7610876366004612e0a565b611f6a565b34801561088757600080fd5b50610335600e5481565b34801561089d57600080fd5b506103356108ac366004612e0a565b6001600160a01b031660009081526012602052604090205490565b3480156108d357600080fd5b50601d546103f9906001600160a01b031681565b3480156108f357600080fd5b50600f546103f9906001600160a01b031681565b34801561091357600080fd5b50610335610922366004612e0a565b60176020526000908152604090205481565b34801561094057600080fd5b506103d7611ffa565b34801561095557600080fd5b5061055d610964366004612e25565b601660209081526000928352604080842090915290825290208054600182015460029092015490919083565b34801561099c57600080fd5b506109b06109ab366004612e25565b61216c565b60408051938452602084019290925215159082015260600161033f565b3480156109d957600080fd5b506103d76109e8366004612e68565b6121cb565b3480156109f957600080fd5b5061033560065481565b348015610a0f57600080fd5b5061033560045481565b348015610a2557600080fd5b5061033560075481565b348015610a3b57600080fd5b5061033560145481565b348015610a5157600080fd5b506103d7610a60366004612e0a565b612471565b6103d76124af565b348015610a7957600080fd5b506002546103f9906001600160a01b031681565b60116020528160005260406000208181548110610aa957600080fd5b60009182526020909120600490910201805460018201546002830154600390930154919450925060ff1684565b6001600160a01b0381166000818152601660209081526040808320601354845282528083209383526018909152902054158015610b1257508054155b15610b9a5760005b6013548111610b98576001600160a01b03831660009081526016602090815260408083208484528252918290208251606081018452815480825260018084015494830185905260029384015495830186905290875586019290925584018290559015610b8c5780604001519150610b92565b50610b98565b50610b1a565b505b5050565b610ba6612821565b6001600160a01b038116610c015760405162461bcd60e51b815260206004820152601d60248201527f546f6b656e20616464726573732063616e6e6f74206265207a65726f2e00000060448201526064015b60405180910390fd5b600280546001600160a01b0319166001600160a01b0392909216919091179055565b610c2b612821565b80600003610c725760405162461bcd60e51b8152602060048201526014602482015273125b9d985b1a59081d1bdad95b88185b5bdd5b9d60621b6044820152606401610bf8565b600254610c8a906001600160a01b031633308461284e565b6040805182815242602082015233917f9f77c8cccc840812886a42aaa64dbd4b1145c9392e0c3fa498206caa5d4faba591015b60405180910390a250565b610cd0612821565b60045415610d205760405162461bcd60e51b815260206004820152601c60248201527f4c69717569646974792077617320616c7265616479206c6973746564000000006044820152606401610bf8565b6002546001600160a01b0316610d825760405162461bcd60e51b815260206004820152602160248201527f53616c6520746f6b656e20616464726573732063616e6e6f74206265207a65726044820152606f60f81b6064820152608401610bf8565b601054600003610de05760405162461bcd60e51b815260206004820152602360248201527f496e73756666696369656e74204554482062616c616e636520746f206d696e746044820152620204c560ec1b6064820152608401610bf8565b601d80546001600160a01b0319166001600160a01b03831690811790915542600490815560408051630240bc6b60e21b8152905160009384939092630902f1ac92818301926060928290030181865afa158015610e41573d6000803e3d6000fd5b505050506040513d601f19601f82011682018060405250810190610e659190612eab565b50600f546002546001600160701b0393841695509190921692506000916001600160a01b0390811691161015610f1b57601f54601054604051632b58577b60e21b8152600481019190915260248101849052604481018590526001600160a01b039091169063ad615dec90606401602060405180830381865afa158015610ef0573d6000803e3d6000fd5b505050506040513d601f19601f82011682018060405250810190610f149190612efb565b9050610f9d565b601f54601054604051632b58577b60e21b8152600481019190915260248101859052604481018490526001600160a01b039091169063ad615dec90606401602060405180830381865afa158015610f76573d6000803e3d6000fd5b505050506040513d601f19601f82011682018060405250810190610f9a9190612efb565b90505b600354604051637527c93d60e11b8152600481018390526001600160a01b039091169063ea4f927a90602401600060405180830381600087803b158015610fe357600080fd5b505af1158015610ff7573d6000803e3d6000fd5b5050600254601f5460405163095ea7b360e01b81526001600160a01b039182166004820152602481018690529116925063095ea7b391506044016020604051808303816000875af1158015611050573d6000803e3d6000fd5b505050506040513d601f19601f820116820180604052508101906110749190612f14565b50601f54601054600280546001600160a01b039384169363f305d71993929116906110a0908690612f4c565b606460105430426040518863ffffffff1660e01b81526004016110c896959493929190612f63565b60606040518083038185885af193505050508015611103575060408051601f3d908101601f1916820190925261110091810190612f9e565b60015b61115257604080518082018252601b81527f416464696e67206c697175696469747920776173206661696c656400000000006020820152905162461bcd60e51b8152610bf89190600401612ff0565b60058190556040805182815242602082015233917fac1d76749e5447b7b16f5ab61447e1bd502f3bb4807af3b28e620d1700a6ee45910160405180910390a25050505b50505050565b6000806000602060009054906101000a90046001600160a01b03166001600160a01b031663feaf968c6040518163ffffffff1660e01b815260040160a060405180830381865afa1580156111f3573d6000803e3d6000fd5b505050506040513d601f19601f82011682018060405250810190611217919061303d565b5050602080546040805163313ce56760e01b815290519496506001600160a01b03909116945063313ce567936004808301945090918290030181865afa158015611265573d6000803e3d6000fd5b505050506040513d601f19601f82011682018060405250810190611289919061308f565b60ff169150809250509091565b61129e612821565b428110156112ee5760405162461bcd60e51b815260206004820152601f60248201527f496e76616c69642074696d6520666f72207374617274206465706f7369742e006044820152606401610bf8565b600681905560405181815233907fa50a5685ad4402dcad428a4b45e0ea75093cf2bf5c0dadf9829fb0aea648ea9690602001610cbd565b60008060006113326128b5565b6004546000036113845760405162461bcd60e51b815260206004820152601b60248201527f4c6971756964697479207761736e2774206c69737465642079657400000000006044820152606401610bf8565b346000036113ca5760405162461bcd60e51b8152602060048201526013602482015272125b9d985b1a59081155120819195c1bdcda5d606a1b6044820152606401610bf8565b836000036114125760405162461bcd60e51b8152602060048201526015602482015274125b9d985b1a59081d1bdad95b8819195c1bdcda5d605a1b6044820152606401610bf8565b60025461142a906001600160a01b031633308761284e565b600254601f5460405163095ea7b360e01b81526001600160a01b0391821660048201526024810187905291169063095ea7b3906044016020604051808303816000875af115801561147f573d6000803e3d6000fd5b505050506040513d601f19601f820116820180604052508101906114a39190612f14565b50601f5460025460405163f305d71960e01b81526001600160a01b039283169263f305d7199234926114e692909116908990606490819030904290600401612f63565b60606040518083038185885af193505050508015611521575060408051601f3d908101601f1916820190925261151e91810190612f9e565b60015b61157057604080518082018252601b81527f416464696e67206c697175696469747920776173206661696c656400000000006020820152905162461bcd60e51b8152610bf89190600401612ff0565b828711156115995761159933611586858a6130b2565b6002546001600160a01b031691906128df565b81341115611641576000336115ae84346130b2565b6040516188b891906000818181858888f193505050503d80600081146115f0576040519150601f19603f3d011682016040523d82523d6000602084013e6115f5565b606091505b505090508061163f5760405162461bcd60e51b81526020600482015260166024820152752330b4b632b2103a37903932b33ab7321022ba3432b960511b6044820152606401610bf8565b505b33600081815260116020908152604080832081516080810183528781524281850190815281840188815260608301878152845460018082018755958952878920945160049091029094019384559151938301939093559151600282015590516003909101805460ff19169115159190911790559282526012905290812080548492906116ce9084906130c5565b909155506116e0905033836000612910565b829550819450809350336001600160a01b03167fac1d76749e5447b7b16f5ab61447e1bd502f3bb4807af3b28e620d1700a6ee45824260405161172d929190918252602082015260400190565b60405180910390a250505061174160018055565b9193909250565b611750612821565b6001600160a01b0381166117a65760405162461bcd60e51b815260206004820152601d60248201527f546f6b656e20616464726573732063616e6e6f74206265207a65726f2e0000006044820152606401610bf8565b600f80546001600160a01b0319166001600160a01b0392909216919091179055565b6117d0612821565b6117da6000612ad2565b565b6117e4612821565b600d80549082905560408051828152602081018490524281830152905133917fe0407de8eae531920644bf37bbdf5155a48ebc803a304c405ce88b004b867c73919081900360600190a25050565b61183a612821565b6001600160a01b0381166118905760405162461bcd60e51b815260206004820152601b60248201527f5061697220616464726573732063616e6e6f74206265207a65726f00000000006044820152606401610bf8565b601d80546001600160a01b0319166001600160a01b0392909216919091179055565b600080806001600160a01b0384166119035760405162461bcd60e51b8152602060048201526014602482015273496e76616c69642075736572206164647265737360601b6044820152606401610bf8565b601354600003611917575060009150819050805b600060145460155461192991906130d8565b9050600061193a62015180426130d8565b9050600060145460135461194e91906130c5565b6001600160a01b038816600090815260186020526040812054919250901561198e576001600160a01b038816600090815260186020526040902054611992565b6013545b6001600160a01b038916600090815260196020908152604080832054601a90925282205490985096509091508284116119cb57836119cd565b825b9050815b81811015611b6b576000818152601b60209081526040808320815160608101835281548082526001830154948201949094526002909101549181019190915290151580611a215750602081015115155b15611a355780600001519150829850611a47565b6000898152601b602052604090205491505b81600003611a56575050611b63565b6001600160a01b038c1660009081526016602090815260408083208684528252918290208251606081018452815480825260018301549382019390935260029091015492810192909252151580611ab05750602081015115155b15611ae15780518390611ac3908b612f4c565b611acd91906130d8565b611ad7908d6130c5565b9b50839a50611b5f565b6001600160a01b038d1660009081526016602090815260408083208e8452825280832081516060810183528154808252600183015494820194909452600290910154918101919091529103611b395750505050611b63565b80518490611b47908c612f4c565b611b5191906130d8565b611b5b908e6130c5565b9c50505b5050505b6001016119d1565b5050505050509193909250565b600080611b836128b5565b600454600003611bd55760405162461bcd60e51b815260206004820152601b60248201527f4c6971756964697479207761736e2774206c69737465642079657400000000006044820152606401610bf8565b600454611be59062093a806130c5565b421015611c4f5760405162461bcd60e51b815260206004820152603260248201527f43616e6e6f742072656d6f7665206c697175696469747920756e74696c20372060448201527164617973206166746572206c697374696e6760701b6064820152608401610bf8565b336000908152601160205260409020548310611ca35760405162461bcd60e51b8152602060048201526013602482015272496e76616c696420696e6465782076616c756560681b6044820152606401610bf8565b336000908152601160205260408120805485908110611cc457611cc46130fa565b60009182526020909120600490910201600381015490915060ff1615611d375760405162461bcd60e51b815260206004820152602260248201527f54686973206c69717569646974792077617320616c72656164792072656d6f76604482015261195960f21b6064820152608401610bf8565b60038101805460ff1916600117905580543360009081526012602052604081208054909190611d679084906130b2565b9091555050600281015460009015611d8457506002810154611e03565b600554600003611de45760405162461bcd60e51b815260206004820152602560248201527f5468657265206973206e6f206c697175696469747920696e2074686520636f6e6044820152641d1c9858dd60da1b6064820152608401610bf8565b6010548254600554611df69190612f4c565b611e0091906130d8565b90505b601d54601f5460405163095ea7b360e01b81526001600160a01b0391821660048201526024810184905291169063095ea7b3906044016020604051808303816000875af1158015611e58573d6000803e3d6000fd5b505050506040513d601f19601f82011682018060405250810190611e7c9190612f14565b50601f54600254604051629d473b60e21b81526001600160a01b03928316926302751cec92611ebb929116908590606490819033904290600401612f63565b60408051808303816000875af1158015611ed9573d6000803e3d6000fd5b505050506040513d601f19601f82011682018060405250810190611efd9190613110565b83549195509350611f119033906001612910565b604080518281526020810186905290810184905242606082015233907f8598e6b147330d38243f9c4cd33d61e208b9015719e977086fa42a0f73b1462b9060800160405180910390a25050611f6560018055565b915091565b611f72612821565b6001600160a01b038116611fd85760405162461bcd60e51b815260206004820152602760248201527f436f6e747261637420616464726573732063616e6e6f74206265207a65726f206044820152666164647265737360c81b6064820152608401610bf8565b600380546001600160a01b0319166001600160a01b0392909216919091179055565b60006006541161204c5760405162461bcd60e51b815260206004820152601a60248201527f496e76616c6964206465706f7369742073746172742074696d650000000000006044820152606401610bf8565b60006013541161209a5760405162461bcd60e51b8152602060048201526019602482015278496e76616c6964207265776172642073746172742074696d6560381b6044820152606401610bf8565b6013546120aa62015180426130d8565b116120f75760405162461bcd60e51b815260206004820152601c60248201527f496e76616c6964206461746520746f20636c61696d20726577617264000000006044820152606401610bf8565b61210033610ad6565b600080600061210e336118b2565b91945092509050821561213257600254612132906001600160a01b031633856128df565b61213f62015180426130d8565b336000908152601860209081526040808320939093556019815282822094909455601a9093529091205550565b6001600160a01b03821660009081526011602052604081208054829182918291908690811061219d5761219d6130fa565b6000918252602090912060049091020180546001820154600390920154909891975060ff1695509350505050565b6121d3612821565b6006546000036122255760405162461bcd60e51b815260206004820181905260248201527f4465706f7369742073746172742074696d652073686f756c64206265207365746044820152606401610bf8565b826000036122715760405162461bcd60e51b8152602060048201526019602482015278496e76616c6964207265776172642073746172742074696d6560381b6044820152606401610bf8565b6006548310156122cf5760405162461bcd60e51b815260206004820152602360248201527f43616e6e6f74206265206265666f7265206465706f7369742073746172742074604482015262696d6560e81b6064820152608401610bf8565b816000036123175760405162461bcd60e51b8152602060048201526015602482015274125b9d985b1a59081c995dd85c99081c195c9a5bd9605a1b6044820152606401610bf8565b806000036123675760405162461bcd60e51b815260206004820152601b60248201527f496e76616c69642072657761726420746f6b656e20616d6f756e7400000000006044820152606401610bf8565b61237462015180846130d8565b60135560065460009061238b9062015180906130d8565b6013546000908152601b602052604090209091505b601354821015612415576000828152601b602081815260408084208151606081018352815480825260018301548286015260029092015492810192909252938690529190529015612404578051825560208101516001830155604081015160028301555b61240d83613134565b9250506123a0565b601484905560158390556013546040805191825260208201869052810184905242606082015233907f91971b8d63b004c0eb5e034d601797eb8bfdfed179e56b6234c25192ac2c908e9060800160405180910390a25050505050565b612479612821565b6001600160a01b0381166124a357604051631e4fbdf760e01b815260006004820152602401610bf8565b6124ac81612ad2565b50565b6124b76128b5565b600454156125075760405162461bcd60e51b815260206004820152601c60248201527f4c69717569646974792077617320616c7265616479206c6973746564000000006044820152606401610bf8565b6000341161254e5760405162461bcd60e51b8152602060048201526014602482015273086c2dcdcdee840c8cae0dee6d2e84060408aa8960631b6044820152606401610bf8565b6006541580159061256157506006544210155b6125ad5760405162461bcd60e51b815260206004820152601e60248201527f4465706f736974206973206e6f7420616c6c6f77656420666f72206e6f7700006044820152606401610bf8565b600d541561261f57600d5434101561261f5760405162461bcd60e51b815260206004820152602f60248201527f496e73756666696369656e74206465706f73697420616d6f756e7420666f722060448201526e1b5a5b9a5b5d5b48185b1b1bddd959608a1b6064820152608401610bf8565b600080600061262e3334612b22565b925092509250826126a75760405162461bcd60e51b815260206004820152603f60248201527f596f7520646f6e277420686176652073756666696369656e7420636c61696d6160448201527f626c6520746f6b656e20616d6f756e7420746f206465706f73697420455448006064820152608401610bf8565b6003546001600160a01b03166361aec1e0336126c384866130b2565b6040516001600160e01b031960e085901b1681526001600160a01b0390921660048301526024820152604401600060405180830381600087803b15801561270957600080fd5b505af115801561271d573d6000803e3d6000fd5b50503360008181526011602090815260408083208151608081018352348082524282860190815282850187815260608401888152855460018082018855968a52888a20955160049091029095019485559151948401949094559251600283015591516003909101805460ff19169115159190911790559383526012909152812080549294509250906127b09084906130c5565b9250508190555034601060008282546127c991906130c5565b909155506127db905033346000612910565b6040805134815242602082015233917f73a19dd210f1a7f902193214c0ee91dd35ee5b4d920cba8d519eca65a7b488ca910160405180910390a25050506117da60018055565b6000546001600160a01b031633146117da5760405163118cdaa760e01b8152336004820152602401610bf8565b6040516001600160a01b0384811660248301528381166044830152606482018390526111959186918216906323b872dd906084015b604051602081830303815290604052915060e01b6020820180516001600160e01b038381831617835250505050612c49565b6002600154036128d857604051633ee5aeb560e01b815260040160405180910390fd5b6002600155565b6040516001600160a01b03838116602483015260448201839052610b9891859182169063a9059cbb90606401612883565b600061291f62015180426130d8565b6001600160a01b038516600081815260166020908152604080832085845282528083209383526017909152902054919250908214612996576001600160a01b038516600090815260176020908152604080832054601683528184208185529092529091208054835560018301919091556002018290555b6000828152601b60205260409020601c5483146129d157601c80546000908152601b6020526040902080548355905460018301556002018390555b8315612a0f57848260000160008282546129eb91906130b2565b9091555050805485908290600090612a049084906130b2565b90915550612a429050565b84826000016000828254612a2391906130c5565b9091555050805485908290600090612a3c9084906130c5565b90915550505b6001600160a01b0386166000908152601760205260409020839055601c8390556013548311612aca576001600160a01b03861660009081526016602090815260408083206013805485529083528184208654815560018088015481830155600291820186905591548552601b9093529220835481558383015492810192909255828101549101555b505050505050565b600080546001600160a01b038381166001600160a01b0319831681178455604051919092169283917f8be0079c531659141344cd1fd0a4f28419497f9722a3daafe3b4186f6b6457e09190a35050565b600354600090819081906001600160a01b0316612b995760405162461bcd60e51b815260206004820152602f60248201527f5468652061646472657373206f6620636c61696d696e6720636f6e747261637460448201526e2063616e6e6f74206265207a65726f60881b6064820152608401610bf8565b600080612ba461119b565b9092509050612bb481600a613234565b612bbe8388612f4c565b612bc891906130d8565b60035460405163e12f3a6160e01b81526001600160a01b038a8116600483015292955091169063e12f3a6190602401602060405180830381865afa158015612c14573d6000803e3d6000fd5b505050506040513d601f19601f82011682018060405250810190612c389190612efb565b935082841015945050509250925092565b6000612c5e6001600160a01b03841683612cac565b90508051600014158015612c83575080806020019051810190612c819190612f14565b155b15610b9857604051635274afe760e01b81526001600160a01b0384166004820152602401610bf8565b6060612cba83836000612cc3565b90505b92915050565b606081471015612cef5760405163cf47918160e01b815247600482015260248101839052604401610bf8565b600080856001600160a01b03168486604051612d0b9190613240565b60006040518083038185875af1925050503d8060008114612d48576040519150601f19603f3d011682016040523d82523d6000602084013e612d4d565b606091505b5091509150612d5d868383612d69565b925050505b9392505050565b606082612d7e57612d7982612dc5565b612d62565b8151158015612d9557506001600160a01b0384163b155b15612dbe57604051639996b31560e01b81526001600160a01b0385166004820152602401610bf8565b5080612d62565b805115612dd55780518082602001fd5b60405163d6bda27560e01b815260040160405180910390fd5b80356001600160a01b0381168114612e0557600080fd5b919050565b600060208284031215612e1c57600080fd5b612cba82612dee565b60008060408385031215612e3857600080fd5b612e4183612dee565b946020939093013593505050565b600060208284031215612e6157600080fd5b5035919050565b600080600060608486031215612e7d57600080fd5b505081359360208301359350604090920135919050565b80516001600160701b0381168114612e0557600080fd5b600080600060608486031215612ec057600080fd5b612ec984612e94565b9250612ed760208501612e94565b9150604084015163ffffffff81168114612ef057600080fd5b809150509250925092565b600060208284031215612f0d57600080fd5b5051919050565b600060208284031215612f2657600080fd5b81518015158114612d6257600080fd5b634e487b7160e01b600052601160045260246000fd5b8082028115828204841417612cbd57612cbd612f36565b6001600160a01b039687168152602081019590955260408501939093526060840191909152909216608082015260a081019190915260c00190565b600080600060608486031215612fb357600080fd5b5050815160208301516040909301519094929350919050565b60005b83811015612fe7578181015183820152602001612fcf565b50506000910152565b602081526000825180602084015261300f816040850160208701612fcc565b601f01601f19169190910160400192915050565b805169ffffffffffffffffffff81168114612e0557600080fd5b600080600080600060a0868803121561305557600080fd5b61305e86613023565b6020870151604088015160608901519297509095509350915061308360808701613023565b90509295509295909350565b6000602082840312156130a157600080fd5b815160ff81168114612d6257600080fd5b81810381811115612cbd57612cbd612f36565b80820180821115612cbd57612cbd612f36565b6000826130f557634e487b7160e01b600052601260045260246000fd5b500490565b634e487b7160e01b600052603260045260246000fd5b6000806040838503121561312357600080fd5b505080516020909101519092909150565b60006001820161314657613146612f36565b5060010190565b6001815b60018411156131885780850481111561316c5761316c612f36565b600184161561317a57908102905b60019390931c928002613151565b935093915050565b60008261319f57506001612cbd565b816131ac57506000612cbd565b81600181146131c257600281146131cc576131e8565b6001915050612cbd565b60ff8411156131dd576131dd612f36565b50506001821b612cbd565b5060208310610133831016604e8410600b841016171561320b575081810a612cbd565b613218600019848461314d565b806000190482111561322c5761322c612f36565b029392505050565b6000612cba8383613190565b60008251613252818460208701612fcc565b919091019291505056fea26469706673582212201de44d91c9f0252a396decdd293029ca0cce04018c21ee7f26092766b79af1e064736f6c634300081a0033","linkReferences":{}},"methodIdentifiers":{"ALLOWED_MINIMUM_DEPOSIT()":"184a22d1","DENOMINATOR()":"918f8674","MININUM_PERIOD_LOCK_ETH()":"a43a1b24","REWARD_RATE_1M()":"e133d2cd","REWARD_RATE_2M()":"4c384b51","REWARD_RATE_3M()":"9218caa7","REWARD_RATE_4M()":"8bff1de0","REWARD_RATE_5M()":"7ea7533b","WETH()":"ad5c4648","addLiquidity(uint256)":"51c6590a","claimReward()":"b88a802f","claiming()":"0defc08a","dailyTotalHistory(uint256)":"83c73126","depositETH()":"f6326fb3","depositRewardTokens(uint256)":"16c621e0","depositStart()":"d9c146de","fetchETHUSDPrice()":"4007b929","getRewardTokenAmount(address)":"96ee8782","getTotalDailyCheckpoint(uint256)":"51f9c87c","getUserDailyCheckpoint(address,uint256)":"58cf4643","getUserDepositInfo(address,uint256)":"c0806b03","getUserTotalDeposit(address)":"a4c828dc","lastCheckpointDay(address)":"29d7157e","lastRewardClaimDay(address)":"8c983567","lastTotalCheckpointDay(address)":"057e2c40","lastUpdateDay()":"50f2bc5a","listLiquidity(address)":"265900e8","listedLiquidity()":"7bfa37e1","listedTime()":"dc713a48","owner()":"8da5cb5b","pair()":"a8aa1b31","removeLiquidity(uint256)":"9c8f9f23","renounceOwnership()":"715018a6","rewardPeriod()":"e88dc5b7","setAllowedMinimumDeposit(uint256)":"72d970a3","setClaimingContract(address)":"9ce69679","setDepositStart(uint256)":"413d5056","setPair(address)":"8187f516","setRewardStates(uint256,uint256,uint256)":"d4a86a40","setToken(address)":"144fa6d7","setWETH(address)":"5b769f3c","startDay()":"0539272a","token()":"fc0c546a","totalDeposits()":"7d882097","totalReward()":"750142e6","transferOwnership(address)":"f2fde38b","uniswapV2Factory()":"59d0f713","uniswapV2Router()":"1694505e","updateCheckpointStartDay(address)":"0d26ad9c","userDailyHistory(address,uint256)":"b935088b","userDeposits(address,uint256)":"08f43333","userLastUpdateDay(address)":"af238ba5","userTotalDeposits(address)":"9295953f"},"id":35}