{"abi":[{"type":"constructor","inputs":[{"name":"_token","type":"address","internalType":"address"},{"name":"_chainlinkETHUSDAddress","type":"address","internalType":"address"}],"stateMutability":"nonpayable"},{"type":"function","name":"ALLOWED_MINIMUM_DEPOSIT","inputs":[],"outputs":[{"name":"","type":"uint256","internalType":"uint256"}],"stateMutability":"view"},{"type":"function","name":"DENOMINATOR","inputs":[],"outputs":[{"name":"","type":"uint256","internalType":"uint256"}],"stateMutability":"view"},{"type":"function","name":"MININUM_PERIOD_LOCK_ETH","inputs":[],"outputs":[{"name":"","type":"uint256","internalType":"uint256"}],"stateMutability":"view"},{"type":"function","name":"REWARD_RATE_1M","inputs":[],"outputs":[{"name":"","type":"uint256","internalType":"uint256"}],"stateMutability":"view"},{"type":"function","name":"REWARD_RATE_2M","inputs":[],"outputs":[{"name":"","type":"uint256","internalType":"uint256"}],"stateMutability":"view"},{"type":"function","name":"REWARD_RATE_3M","inputs":[],"outputs":[{"name":"","type":"uint256","internalType":"uint256"}],"stateMutability":"view"},{"type":"function","name":"REWARD_RATE_4M","inputs":[],"outputs":[{"name":"","type":"uint256","internalType":"uint256"}],"stateMutability":"view"},{"type":"function","name":"REWARD_RATE_5M","inputs":[],"outputs":[{"name":"","type":"uint256","internalType":"uint256"}],"stateMutability":"view"},{"type":"function","name":"WETH","inputs":[],"outputs":[{"name":"","type":"address","internalType":"address"}],"stateMutability":"view"},{"type":"function","name":"addLiquidity","inputs":[{"name":"amount","type":"uint256","internalType":"uint256"}],"outputs":[{"name":"aToken","type":"uint256","internalType":"uint256"},{"name":"aETH","type":"uint256","internalType":"uint256"},{"name":"aLiquidity","type":"uint256","internalType":"uint256"}],"stateMutability":"payable"},{"type":"function","name":"claimReward","inputs":[],"outputs":[],"stateMutability":"nonpayable"},{"type":"function","name":"claiming","inputs":[],"outputs":[{"name":"","type":"address","internalType":"address"}],"stateMutability":"view"},{"type":"function","name":"dailyTotalHistory","inputs":[{"name":"","type":"uint256","internalType":"uint256"}],"outputs":[{"name":"amount","type":"uint256","internalType":"uint256"},{"name":"prev","type":"uint256","internalType":"uint256"},{"name":"next","type":"uint256","internalType":"uint256"}],"stateMutability":"view"},{"type":"function","name":"depositETH","inputs":[],"outputs":[],"stateMutability":"payable"},{"type":"function","name":"depositRewardTokens","inputs":[{"name":"amount","type":"uint256","internalType":"uint256"}],"outputs":[],"stateMutability":"nonpayable"},{"type":"function","name":"depositStart","inputs":[],"outputs":[{"name":"","type":"uint256","internalType":"uint256"}],"stateMutability":"view"},{"type":"function","name":"fetchETHUSDPrice","inputs":[],"outputs":[{"name":"price","type":"uint256","internalType":"uint256"},{"name":"decimals","type":"uint256","internalType":"uint256"}],"stateMutability":"view"},{"type":"function","name":"getRewardTokenAmount","inputs":[{"name":"user","type":"address","internalType":"address"}],"outputs":[{"name":"rewardAmount","type":"uint256","internalType":"uint256"},{"name":"lastCpDay","type":"uint256","internalType":"uint256"},{"name":"lastTotalCpDay","type":"uint256","internalType":"uint256"}],"stateMutability":"view"},{"type":"function","name":"getTotalDailyCheckpoint","inputs":[{"name":"day","type":"uint256","internalType":"uint256"}],"outputs":[{"name":"amount","type":"uint256","internalType":"uint256"},{"name":"prev","type":"uint256","internalType":"uint256"},{"name":"next","type":"uint256","internalType":"uint256"}],"stateMutability":"view"},{"type":"function","name":"getUserDailyCheckpoint","inputs":[{"name":"user","type":"address","internalType":"address"},{"name":"day","type":"uint256","internalType":"uint256"}],"outputs":[{"name":"amount","type":"uint256","internalType":"uint256"},{"name":"prev","type":"uint256","internalType":"uint256"},{"name":"next","type":"uint256","internalType":"uint256"}],"stateMutability":"view"},{"type":"function","name":"getUserDepositInfo","inputs":[{"name":"user","type":"address","internalType":"address"},{"name":"index","type":"uint256","internalType":"uint256"}],"outputs":[{"name":"","type":"uint256","internalType":"uint256"},{"name":"","type":"uint256","internalType":"uint256"},{"name":"","type":"bool","internalType":"bool"}],"stateMutability":"view"},{"type":"function","name":"getUserDepositsArray","inputs":[{"name":"user","type":"address","internalType":"address"}],"outputs":[{"name":"","type":"tuple[]","internalType":"struct LiquidityMining.UserDeposit[]","components":[{"name":"amount","type":"uint256","internalType":"uint256"},{"name":"depositOn","type":"uint256","internalType":"uint256"},{"name":"liquidity","type":"uint256","internalType":"uint256"},{"name":"removed","type":"bool","internalType":"bool"}]}],"stateMutability":"view"},{"type":"function","name":"getUserTotalDeposit","inputs":[{"name":"user","type":"address","internalType":"address"}],"outputs":[{"name":"","type":"uint256","internalType":"uint256"}],"stateMutability":"view"},{"type":"function","name":"lastCheckpointDay","inputs":[{"name":"","type":"address","internalType":"address"}],"outputs":[{"name":"","type":"uint256","internalType":"uint256"}],"stateMutability":"view"},{"type":"function","name":"lastRewardClaimDay","inputs":[{"name":"","type":"address","internalType":"address"}],"outputs":[{"name":"","type":"uint256","internalType":"uint256"}],"stateMutability":"view"},{"type":"function","name":"lastTotalCheckpointDay","inputs":[{"name":"","type":"address","internalType":"address"}],"outputs":[{"name":"","type":"uint256","internalType":"uint256"}],"stateMutability":"view"},{"type":"function","name":"lastUpdateDay","inputs":[],"outputs":[{"name":"","type":"uint256","internalType":"uint256"}],"stateMutability":"view"},{"type":"function","name":"listLiquidity","inputs":[{"name":"_pair","type":"address","internalType":"address"}],"outputs":[],"stateMutability":"nonpayable"},{"type":"function","name":"listedLiquidity","inputs":[],"outputs":[{"name":"","type":"uint256","internalType":"uint256"}],"stateMutability":"view"},{"type":"function","name":"listedTime","inputs":[],"outputs":[{"name":"","type":"uint256","internalType":"uint256"}],"stateMutability":"view"},{"type":"function","name":"numDepoists","inputs":[{"name":"user","type":"address","internalType":"address"}],"outputs":[{"name":"","type":"uint256","internalType":"uint256"}],"stateMutability":"view"},{"type":"function","name":"owner","inputs":[],"outputs":[{"name":"","type":"address","internalType":"address"}],"stateMutability":"view"},{"type":"function","name":"pair","inputs":[],"outputs":[{"name":"","type":"address","internalType":"contract IUniswapV2Pair"}],"stateMutability":"view"},{"type":"function","name":"removeLiquidity","inputs":[{"name":"index","type":"uint256","internalType":"uint256"}],"outputs":[{"name":"amountToken","type":"uint256","internalType":"uint256"},{"name":"amountETH","type":"uint256","internalType":"uint256"}],"stateMutability":"nonpayable"},{"type":"function","name":"renounceOwnership","inputs":[],"outputs":[],"stateMutability":"nonpayable"},{"type":"function","name":"rewardPeriod","inputs":[],"outputs":[{"name":"","type":"uint256","internalType":"uint256"}],"stateMutability":"view"},{"type":"function","name":"setAllowedMinimumDeposit","inputs":[{"name":"amount","type":"uint256","internalType":"uint256"}],"outputs":[],"stateMutability":"nonpayable"},{"type":"function","name":"setClaimingContract","inputs":[{"name":"_claiming","type":"address","internalType":"address"}],"outputs":[],"stateMutability":"nonpayable"},{"type":"function","name":"setDepositStart","inputs":[{"name":"_depositStart","type":"uint256","internalType":"uint256"}],"outputs":[],"stateMutability":"nonpayable"},{"type":"function","name":"setPair","inputs":[{"name":"_pair","type":"address","internalType":"address"}],"outputs":[],"stateMutability":"nonpayable"},{"type":"function","name":"setRewardStates","inputs":[{"name":"_start","type":"uint256","internalType":"uint256"},{"name":"_period","type":"uint256","internalType":"uint256"},{"name":"_total","type":"uint256","internalType":"uint256"}],"outputs":[],"stateMutability":"nonpayable"},{"type":"function","name":"setToken","inputs":[{"name":"_token","type":"address","internalType":"address"}],"outputs":[],"stateMutability":"nonpayable"},{"type":"function","name":"setWETH","inputs":[{"name":"_WETH","type":"address","internalType":"address"}],"outputs":[],"stateMutability":"nonpayable"},{"type":"function","name":"startDay","inputs":[],"outputs":[{"name":"","type":"uint256","internalType":"uint256"}],"stateMutability":"view"},{"type":"function","name":"token","inputs":[],"outputs":[{"name":"","type":"address","internalType":"contract IERC20"}],"stateMutability":"view"},{"type":"function","name":"totalDeposits","inputs":[],"outputs":[{"name":"","type":"uint256","internalType":"uint256"}],"stateMutability":"view"},{"type":"function","name":"totalReward","inputs":[],"outputs":[{"name":"","type":"uint256","internalType":"uint256"}],"stateMutability":"view"},{"type":"function","name":"transferOwnership","inputs":[{"name":"newOwner","type":"address","internalType":"address"}],"outputs":[],"stateMutability":"nonpayable"},{"type":"function","name":"uniswapV2Factory","inputs":[],"outputs":[{"name":"","type":"address","internalType":"contract IUniswapV2Factory"}],"stateMutability":"view"},{"type":"function","name":"uniswapV2Router","inputs":[],"outputs":[{"name":"","type":"address","internalType":"contract IUniswapV2Router02"}],"stateMutability":"view"},{"type":"function","name":"updateCheckpointStartDay","inputs":[{"name":"user","type":"address","internalType":"address"}],"outputs":[],"stateMutability":"nonpayable"},{"type":"function","name":"userDailyHistory","inputs":[{"name":"","type":"address","internalType":"address"},{"name":"","type":"uint256","internalType":"uint256"}],"outputs":[{"name":"amount","type":"uint256","internalType":"uint256"},{"name":"prev","type":"uint256","internalType":"uint256"},{"name":"next","type":"uint256","internalType":"uint256"}],"stateMutability":"view"},{"type":"function","name":"userDeposits","inputs":[{"name":"","type":"address","internalType":"address"},{"name":"","type":"uint256","internalType":"uint256"}],"outputs":[{"name":"amount","type":"uint256","internalType":"uint256"},{"name":"depositOn","type":"uint256","internalType":"uint256"},{"name":"liquidity","type":"uint256","internalType":"uint256"},{"name":"removed","type":"bool","internalType":"bool"}],"stateMutability":"view"},{"type":"function","name":"userLastUpdateDay","inputs":[{"name":"","type":"address","internalType":"address"}],"outputs":[{"name":"","type":"uint256","internalType":"uint256"}],"stateMutability":"view"},{"type":"function","name":"userTotalDeposits","inputs":[{"name":"","type":"address","internalType":"address"}],"outputs":[{"name":"","type":"uint256","internalType":"uint256"}],"stateMutability":"view"},{"type":"event","name":"AllowedMinimumDepositUpdated","inputs":[{"name":"user","type":"address","indexed":true,"internalType":"address"},{"name":"previousAmount","type":"uint256","indexed":false,"internalType":"uint256"},{"name":"amount","type":"uint256","indexed":false,"internalType":"uint256"},{"name":"time","type":"uint256","indexed":false,"internalType":"uint256"}],"anonymous":false},{"type":"event","name":"DepositStartTimeUpdated","inputs":[{"name":"user","type":"address","indexed":true,"internalType":"address"},{"name":"depositStartTime","type":"uint256","indexed":false,"internalType":"uint256"}],"anonymous":false},{"type":"event","name":"Deposited","inputs":[{"name":"user","type":"address","indexed":true,"internalType":"address"},{"name":"amount","type":"uint256","indexed":false,"internalType":"uint256"},{"name":"time","type":"uint256","indexed":false,"internalType":"uint256"}],"anonymous":false},{"type":"event","name":"LiquidityAdded","inputs":[{"name":"user","type":"address","indexed":true,"internalType":"address"},{"name":"liquidity","type":"uint256","indexed":false,"internalType":"uint256"},{"name":"time","type":"uint256","indexed":false,"internalType":"uint256"}],"anonymous":false},{"type":"event","name":"LiquidityRemoved","inputs":[{"name":"user","type":"address","indexed":true,"internalType":"address"},{"name":"ownLiquidity","type":"uint256","indexed":false,"internalType":"uint256"},{"name":"amountToken","type":"uint256","indexed":false,"internalType":"uint256"},{"name":"amountETH","type":"uint256","indexed":false,"internalType":"uint256"},{"name":"time","type":"uint256","indexed":false,"internalType":"uint256"}],"anonymous":false},{"type":"event","name":"OwnershipTransferred","inputs":[{"name":"previousOwner","type":"address","indexed":true,"internalType":"address"},{"name":"newOwner","type":"address","indexed":true,"internalType":"address"}],"anonymous":false},{"type":"event","name":"RewardProgramPlanUpdated","inputs":[{"name":"user","type":"address","indexed":true,"internalType":"address"},{"name":"startDay","type":"uint256","indexed":false,"internalType":"uint256"},{"name":"period","type":"uint256","indexed":false,"internalType":"uint256"},{"name":"totalReward","type":"uint256","indexed":false,"internalType":"uint256"},{"name":"time","type":"uint256","indexed":false,"internalType":"uint256"}],"anonymous":false},{"type":"event","name":"RewardTransferred","inputs":[{"name":"user","type":"address","indexed":true,"internalType":"address"},{"name":"amount","type":"uint256","indexed":false,"internalType":"uint256"},{"name":"time","type":"uint256","indexed":false,"internalType":"uint256"}],"anonymous":false},{"type":"event","name":"TokenDepositedForReward","inputs":[{"name":"user","type":"address","indexed":true,"internalType":"address"},{"name":"amount","type":"uint256","indexed":false,"internalType":"uint256"},{"name":"time","type":"uint256","indexed":false,"internalType":"uint256"}],"anonymous":false},{"type":"error","name":"AddressEmptyCode","inputs":[{"name":"target","type":"address","internalType":"address"}]},{"type":"error","name":"FailedCall","inputs":[]},{"type":"error","name":"InsufficientBalance","inputs":[{"name":"balance","type":"uint256","internalType":"uint256"},{"name":"needed","type":"uint256","internalType":"uint256"}]},{"type":"error","name":"OwnableInvalidOwner","inputs":[{"name":"owner","type":"address","internalType":"address"}]},{"type":"error","name":"OwnableUnauthorizedAccount","inputs":[{"name":"account","type":"address","internalType":"address"}]},{"type":"error","name":"ReentrancyGuardReentrantCall","inputs":[]},{"type":"error","name":"SafeERC20FailedOperation","inputs":[{"name":"token","type":"address","internalType":"address"}]}],"bytecode":{"object":"0x60806040526127106007556113886008556109c46009556105dc600a556103e8600b55612710600c5534801561003457600080fd5b50604051613725380380613725833981016040819052610053916101ec565b338061007a57604051631e4fbdf760e01b8152600060048201526024015b60405180910390fd5b61008381610180565b50600180556001600160a01b0382166100e85760405162461bcd60e51b815260206004820152602160248201527f53616c6520746f6b656e20616464726573732063616e6e6f74206265207a65726044820152606f60f81b6064820152608401610071565b600280546001600160a01b039384166001600160a01b031991821617909155602080549290931691811691909117909155601e80548216735c69bee701ef814a2b6a3edd4b1652cb9cc5aa6f179055601f80548216737a250d5630b4cf539739df2c5dacb4c659f2488d179055600f805490911673c02aaa39b223fe8d0a0e5c4f27ead9083c756cc217905562278d00600e5561021f565b600080546001600160a01b038381166001600160a01b0319831681178455604051919092169283917f8be0079c531659141344cd1fd0a4f28419497f9722a3daafe3b4186f6b6457e09190a35050565b80516001600160a01b03811681146101e757600080fd5b919050565b600080604083850312156101ff57600080fd5b610208836101d0565b9150610216602084016101d0565b90509250929050565b6134f78061022e6000396000f3fe6080604052600436106103505760003560e01c80637ea7533b116101c6578063a8aa1b31116100f7578063d9c146de11610095578063e88dc5b71161006f578063e88dc5b714610ac8578063f2fde38b14610ade578063f6326fb314610afe578063fc0c546a14610b0657600080fd5b8063d9c146de14610a86578063dc713a4814610a9c578063e133d2cd14610ab257600080fd5b8063b88a802f116100d1578063b88a802f146109cd578063b935088b146109e2578063c0806b0314610a29578063d4a86a4014610a6657600080fd5b8063a8aa1b3114610960578063ad5c464814610980578063af238ba5146109a057600080fd5b80639218caa7116101645780639c8f9f231161013e5780639c8f9f23146108d45780639ce69679146108f4578063a43a1b2414610914578063a4c828dc1461092a57600080fd5b80639218caa7146108715780639295953f1461088757806396ee8782146108b457600080fd5b80638bff1de0116101a05780638bff1de0146107fa5780638c983567146108105780638da5cb5b1461083d578063918f86741461085b57600080fd5b80637ea7533b146107885780638187f5161461079e57806383c73126146107be57600080fd5b8063413d5056116102a05780635b769f3c1161023e57806372d970a31161021857806372d970a314610726578063750142e6146107465780637bfa37e11461075c5780637d8820971461077257600080fd5b80635b769f3c146106bb57806365a6cf11146106db578063715018a61461071157600080fd5b806351c6590a1161027a57806351c6590a146105ad57806351f9c87c146105db57806358cf46431461063157806359d0f7131461069b57600080fd5b8063413d5056146105615780634c384b511461058157806350f2bc5a1461059757600080fd5b80631694505e1161030d578063265900e8116102e7578063265900e8146104bd57806329d7157e146104dd57806335dac6381461050a5780634007b9291461053757600080fd5b80631694505e1461046757806316c621e014610487578063184a22d1146104a757600080fd5b80630539272a14610355578063057e2c401461037e57806308f43333146103ab5780630d26ad9c146103ed5780630defc08a1461040f578063144fa6d714610447575b600080fd5b34801561036157600080fd5b5061036b60135481565b6040519081526020015b60405180910390f35b34801561038a57600080fd5b5061036b610399366004612fee565b601a6020526000908152604090205481565b3480156103b757600080fd5b506103cb6103c6366004613009565b610b26565b6040805194855260208501939093529183015215156060820152608001610375565b3480156103f957600080fd5b5061040d610408366004612fee565b610b6f565b005b34801561041b57600080fd5b5060035461042f906001600160a01b031681565b6040516001600160a01b039091168152602001610375565b34801561045357600080fd5b5061040d610462366004612fee565b610c37565b34801561047357600080fd5b50601f5461042f906001600160a01b031681565b34801561049357600080fd5b5061040d6104a2366004613033565b610cbc565b3480156104b357600080fd5b5061036b600d5481565b3480156104c957600080fd5b5061040d6104d8366004612fee565b610d61565b3480156104e957600080fd5b5061036b6104f8366004612fee565b60196020526000908152604090205481565b34801561051657600080fd5b5061052a610525366004612fee565b611234565b604051610375919061304c565b34801561054357600080fd5b5061054c61137f565b60408051928352602083019190915201610375565b34801561056d57600080fd5b5061040d61057c366004613033565b61147a565b34801561058d57600080fd5b5061036b60085481565b3480156105a357600080fd5b5061036b601c5481565b6105c06105bb366004613033565b611509565b60408051938452602084019290925290820152606001610375565b3480156105e757600080fd5b506105c06105f6366004613033565b6000908152601b6020908152604091829020825160608101845281548082526001830154938201849052600290920154930183905292909190565b34801561063d57600080fd5b506105c061064c366004613009565b6001600160a01b03909116600090815260166020908152604080832093835292815290829020825160608101845281548082526001830154938201849052600290920154930183905292909190565b3480156106a757600080fd5b50601e5461042f906001600160a01b031681565b3480156106c757600080fd5b5061040d6106d6366004612fee565b61192c565b3480156106e757600080fd5b5061036b6106f6366004612fee565b6001600160a01b031660009081526011602052604090205490565b34801561071d57600080fd5b5061040d6119ac565b34801561073257600080fd5b5061040d610741366004613033565b6119c0565b34801561075257600080fd5b5061036b60155481565b34801561076857600080fd5b5061036b60055481565b34801561077e57600080fd5b5061036b60105481565b34801561079457600080fd5b5061036b600b5481565b3480156107aa57600080fd5b5061040d6107b9366004612fee565b611a16565b3480156107ca57600080fd5b506105c06107d9366004613033565b601b6020526000908152604090208054600182015460029092015490919083565b34801561080657600080fd5b5061036b600a5481565b34801561081c57600080fd5b5061036b61082b366004612fee565b60186020526000908152604090205481565b34801561084957600080fd5b506000546001600160a01b031661042f565b34801561086757600080fd5b5061036b600c5481565b34801561087d57600080fd5b5061036b60095481565b34801561089357600080fd5b5061036b6108a2366004612fee565b60126020526000908152604090205481565b3480156108c057600080fd5b506105c06108cf366004612fee565b611a96565b3480156108e057600080fd5b5061054c6108ef366004613033565b611d5c565b34801561090057600080fd5b5061040d61090f366004612fee565b61214e565b34801561092057600080fd5b5061036b600e5481565b34801561093657600080fd5b5061036b610945366004612fee565b6001600160a01b031660009081526012602052604090205490565b34801561096c57600080fd5b50601d5461042f906001600160a01b031681565b34801561098c57600080fd5b50600f5461042f906001600160a01b031681565b3480156109ac57600080fd5b5061036b6109bb366004612fee565b60176020526000908152604090205481565b3480156109d957600080fd5b5061040d6121de565b3480156109ee57600080fd5b506105c06109fd366004613009565b601660209081526000928352604080842090915290825290208054600182015460029092015490919083565b348015610a3557600080fd5b50610a49610a44366004613009565b612350565b604080519384526020840192909252151590820152606001610375565b348015610a7257600080fd5b5061040d610a813660046130b7565b6123af565b348015610a9257600080fd5b5061036b60065481565b348015610aa857600080fd5b5061036b60045481565b348015610abe57600080fd5b5061036b60075481565b348015610ad457600080fd5b5061036b60145481565b348015610aea57600080fd5b5061040d610af9366004612fee565b612655565b61040d612693565b348015610b1257600080fd5b5060025461042f906001600160a01b031681565b60116020528160005260406000208181548110610b4257600080fd5b60009182526020909120600490910201805460018201546002830154600390930154919450925060ff1684565b6001600160a01b0381166000818152601660209081526040808320601354845282528083209383526018909152902054158015610bab57508054155b15610c335760005b6013548111610c31576001600160a01b03831660009081526016602090815260408083208484528252918290208251606081018452815480825260018084015494830185905260029384015495830186905290875586019290925584018290559015610c255780604001519150610c2b565b50610c31565b50610bb3565b505b5050565b610c3f612a05565b6001600160a01b038116610c9a5760405162461bcd60e51b815260206004820152601d60248201527f546f6b656e20616464726573732063616e6e6f74206265207a65726f2e00000060448201526064015b60405180910390fd5b600280546001600160a01b0319166001600160a01b0392909216919091179055565b610cc4612a05565b80600003610d0b5760405162461bcd60e51b8152602060048201526014602482015273125b9d985b1a59081d1bdad95b88185b5bdd5b9d60621b6044820152606401610c91565b600254610d23906001600160a01b0316333084612a32565b6040805182815242602082015233917f9f77c8cccc840812886a42aaa64dbd4b1145c9392e0c3fa498206caa5d4faba591015b60405180910390a250565b610d69612a05565b60045415610db95760405162461bcd60e51b815260206004820152601c60248201527f4c69717569646974792077617320616c7265616479206c6973746564000000006044820152606401610c91565b6002546001600160a01b0316610e1b5760405162461bcd60e51b815260206004820152602160248201527f53616c6520746f6b656e20616464726573732063616e6e6f74206265207a65726044820152606f60f81b6064820152608401610c91565b601054600003610e795760405162461bcd60e51b815260206004820152602360248201527f496e73756666696369656e74204554482062616c616e636520746f206d696e746044820152620204c560ec1b6064820152608401610c91565b601d80546001600160a01b0319166001600160a01b03831690811790915542600490815560408051630240bc6b60e21b8152905160009384939092630902f1ac92818301926060928290030181865afa158015610eda573d6000803e3d6000fd5b505050506040513d601f19601f82011682018060405250810190610efe91906130fa565b50600f546002546001600160701b0393841695509190921692506000916001600160a01b0390811691161015610fb457601f54601054604051632b58577b60e21b8152600481019190915260248101849052604481018590526001600160a01b039091169063ad615dec90606401602060405180830381865afa158015610f89573d6000803e3d6000fd5b505050506040513d601f19601f82011682018060405250810190610fad919061314a565b9050611036565b601f54601054604051632b58577b60e21b8152600481019190915260248101859052604481018490526001600160a01b039091169063ad615dec90606401602060405180830381865afa15801561100f573d6000803e3d6000fd5b505050506040513d601f19601f82011682018060405250810190611033919061314a565b90505b600354604051637527c93d60e11b8152600481018390526001600160a01b039091169063ea4f927a90602401600060405180830381600087803b15801561107c57600080fd5b505af1158015611090573d6000803e3d6000fd5b5050600254601f5460405163095ea7b360e01b81526001600160a01b039182166004820152602481018690529116925063095ea7b391506044016020604051808303816000875af11580156110e9573d6000803e3d6000fd5b505050506040513d601f19601f8201168201806040525081019061110d9190613163565b50601f54601054600280546001600160a01b039384169363f305d719939291169061113990869061319b565b606460105430426040518863ffffffff1660e01b8152600401611161969594939291906131b2565b60606040518083038185885af19350505050801561119c575060408051601f3d908101601f19168201909252611199918101906131ed565b60015b6111eb57604080518082018252601b81527f416464696e67206c697175696469747920776173206661696c656400000000006020820152905162461bcd60e51b8152610c91919060040161323f565b60058190556040805182815242602082015233917fac1d76749e5447b7b16f5ab61447e1bd502f3bb4807af3b28e620d1700a6ee45910160405180910390a25050505b50505050565b60606000611257836001600160a01b031660009081526011602052604090205490565b905060008167ffffffffffffffff81111561127457611274613272565b6040519080825280602002602001820160405280156112d257816020015b6112bf60405180608001604052806000815260200160008152602001600081526020016000151581525090565b8152602001906001900390816112925790505b50905060005b82811015611377576001600160a01b038516600090815260116020526040902080548290811061130a5761130a613288565b60009182526020918290206040805160808101825260049093029091018054835260018101549383019390935260028301549082015260039091015460ff1615156060820152825183908390811061136457611364613288565b60209081029190910101526001016112d8565b509392505050565b6000806000602060009054906101000a90046001600160a01b03166001600160a01b031663feaf968c6040518163ffffffff1660e01b815260040160a060405180830381865afa1580156113d7573d6000803e3d6000fd5b505050506040513d601f19601f820116820180604052508101906113fb91906132b8565b5050602080546040805163313ce56760e01b815290519496506001600160a01b03909116945063313ce567936004808301945090918290030181865afa158015611449573d6000803e3d6000fd5b505050506040513d601f19601f8201168201806040525081019061146d919061330a565b60ff169150809250509091565b611482612a05565b428110156114d25760405162461bcd60e51b815260206004820152601f60248201527f496e76616c69642074696d6520666f72207374617274206465706f7369742e006044820152606401610c91565b600681905560405181815233907fa50a5685ad4402dcad428a4b45e0ea75093cf2bf5c0dadf9829fb0aea648ea9690602001610d56565b6000806000611516612a99565b6004546000036115685760405162461bcd60e51b815260206004820152601b60248201527f4c6971756964697479207761736e2774206c69737465642079657400000000006044820152606401610c91565b346000036115ae5760405162461bcd60e51b8152602060048201526013602482015272125b9d985b1a59081155120819195c1bdcda5d606a1b6044820152606401610c91565b836000036115f65760405162461bcd60e51b8152602060048201526015602482015274125b9d985b1a59081d1bdad95b8819195c1bdcda5d605a1b6044820152606401610c91565b60025461160e906001600160a01b0316333087612a32565b600254601f5460405163095ea7b360e01b81526001600160a01b0391821660048201526024810187905291169063095ea7b3906044016020604051808303816000875af1158015611663573d6000803e3d6000fd5b505050506040513d601f19601f820116820180604052508101906116879190613163565b50601f5460025460405163f305d71960e01b81526001600160a01b039283169263f305d7199234926116ca929091169089906064908190309042906004016131b2565b60606040518083038185885af193505050508015611705575060408051601f3d908101601f19168201909252611702918101906131ed565b60015b61175457604080518082018252601b81527f416464696e67206c697175696469747920776173206661696c656400000000006020820152905162461bcd60e51b8152610c91919060040161323f565b8287111561177d5761177d3361176a858a61332d565b6002546001600160a01b03169190612ac3565b8134111561182557600033611792843461332d565b6040516188b891906000818181858888f193505050503d80600081146117d4576040519150601f19603f3d011682016040523d82523d6000602084013e6117d9565b606091505b50509050806118235760405162461bcd60e51b81526020600482015260166024820152752330b4b632b2103a37903932b33ab7321022ba3432b960511b6044820152606401610c91565b505b33600081815260116020908152604080832081516080810183528781524281850190815281840188815260608301878152845460018082018755958952878920945160049091029094019384559151938301939093559151600282015590516003909101805460ff19169115159190911790559282526012905290812080548492906118b2908490613340565b909155506118c4905033836000612af4565b829550819450809350336001600160a01b03167fac1d76749e5447b7b16f5ab61447e1bd502f3bb4807af3b28e620d1700a6ee458242604051611911929190918252602082015260400190565b60405180910390a250505061192560018055565b9193909250565b611934612a05565b6001600160a01b03811661198a5760405162461bcd60e51b815260206004820152601d60248201527f546f6b656e20616464726573732063616e6e6f74206265207a65726f2e0000006044820152606401610c91565b600f80546001600160a01b0319166001600160a01b0392909216919091179055565b6119b4612a05565b6119be6000612cb6565b565b6119c8612a05565b600d80549082905560408051828152602081018490524281830152905133917fe0407de8eae531920644bf37bbdf5155a48ebc803a304c405ce88b004b867c73919081900360600190a25050565b611a1e612a05565b6001600160a01b038116611a745760405162461bcd60e51b815260206004820152601b60248201527f5061697220616464726573732063616e6e6f74206265207a65726f00000000006044820152606401610c91565b601d80546001600160a01b0319166001600160a01b0392909216919091179055565b600080806001600160a01b038416611ae75760405162461bcd60e51b8152602060048201526014602482015273496e76616c69642075736572206164647265737360601b6044820152606401610c91565b601354600003611afb575060009150819050805b6000601454601554611b0d9190613353565b90506000611b1e6201518042613353565b90506000601454601354611b329190613340565b6001600160a01b0388166000908152601860205260408120549192509015611b72576001600160a01b038816600090815260186020526040902054611b76565b6013545b6001600160a01b038916600090815260196020908152604080832054601a9092528220549098509650909150828411611baf5783611bb1565b825b9050815b81811015611d4f576000818152601b60209081526040808320815160608101835281548082526001830154948201949094526002909101549181019190915290151580611c055750602081015115155b15611c195780600001519150829850611c2b565b6000898152601b602052604090205491505b81600003611c3a575050611d47565b6001600160a01b038c1660009081526016602090815260408083208684528252918290208251606081018452815480825260018301549382019390935260029091015492810192909252151580611c945750602081015115155b15611cc55780518390611ca7908b61319b565b611cb19190613353565b611cbb908d613340565b9b50839a50611d43565b6001600160a01b038d1660009081526016602090815260408083208e8452825280832081516060810183528154808252600183015494820194909452600290910154918101919091529103611d1d5750505050611d47565b80518490611d2b908c61319b565b611d359190613353565b611d3f908e613340565b9c50505b5050505b600101611bb5565b5050505050509193909250565b600080611d67612a99565b600454600003611db95760405162461bcd60e51b815260206004820152601b60248201527f4c6971756964697479207761736e2774206c69737465642079657400000000006044820152606401610c91565b600454611dc99062093a80613340565b421015611e335760405162461bcd60e51b815260206004820152603260248201527f43616e6e6f742072656d6f7665206c697175696469747920756e74696c20372060448201527164617973206166746572206c697374696e6760701b6064820152608401610c91565b336000908152601160205260409020548310611e875760405162461bcd60e51b8152602060048201526013602482015272496e76616c696420696e6465782076616c756560681b6044820152606401610c91565b336000908152601160205260408120805485908110611ea857611ea8613288565b60009182526020909120600490910201600381015490915060ff1615611f1b5760405162461bcd60e51b815260206004820152602260248201527f54686973206c69717569646974792077617320616c72656164792072656d6f76604482015261195960f21b6064820152608401610c91565b60038101805460ff1916600117905580543360009081526012602052604081208054909190611f4b90849061332d565b9091555050600281015460009015611f6857506002810154611fe7565b600554600003611fc85760405162461bcd60e51b815260206004820152602560248201527f5468657265206973206e6f206c697175696469747920696e2074686520636f6e6044820152641d1c9858dd60da1b6064820152608401610c91565b6010548254600554611fda919061319b565b611fe49190613353565b90505b601d54601f5460405163095ea7b360e01b81526001600160a01b0391821660048201526024810184905291169063095ea7b3906044016020604051808303816000875af115801561203c573d6000803e3d6000fd5b505050506040513d601f19601f820116820180604052508101906120609190613163565b50601f54600254604051629d473b60e21b81526001600160a01b03928316926302751cec9261209f9291169085906064908190339042906004016131b2565b60408051808303816000875af11580156120bd573d6000803e3d6000fd5b505050506040513d601f19601f820116820180604052508101906120e19190613375565b835491955093506120f59033906001612af4565b604080518281526020810186905290810184905242606082015233907f8598e6b147330d38243f9c4cd33d61e208b9015719e977086fa42a0f73b1462b9060800160405180910390a2505061214960018055565b915091565b612156612a05565b6001600160a01b0381166121bc5760405162461bcd60e51b815260206004820152602760248201527f436f6e747261637420616464726573732063616e6e6f74206265207a65726f206044820152666164647265737360c81b6064820152608401610c91565b600380546001600160a01b0319166001600160a01b0392909216919091179055565b6000600654116122305760405162461bcd60e51b815260206004820152601a60248201527f496e76616c6964206465706f7369742073746172742074696d650000000000006044820152606401610c91565b60006013541161227e5760405162461bcd60e51b8152602060048201526019602482015278496e76616c6964207265776172642073746172742074696d6560381b6044820152606401610c91565b60135461228e6201518042613353565b116122db5760405162461bcd60e51b815260206004820152601c60248201527f496e76616c6964206461746520746f20636c61696d20726577617264000000006044820152606401610c91565b6122e433610b6f565b60008060006122f233611a96565b91945092509050821561231657600254612316906001600160a01b03163385612ac3565b6123236201518042613353565b336000908152601860209081526040808320939093556019815282822094909455601a9093529091205550565b6001600160a01b03821660009081526011602052604081208054829182918291908690811061238157612381613288565b6000918252602090912060049091020180546001820154600390920154909891975060ff1695509350505050565b6123b7612a05565b6006546000036124095760405162461bcd60e51b815260206004820181905260248201527f4465706f7369742073746172742074696d652073686f756c64206265207365746044820152606401610c91565b826000036124555760405162461bcd60e51b8152602060048201526019602482015278496e76616c6964207265776172642073746172742074696d6560381b6044820152606401610c91565b6006548310156124b35760405162461bcd60e51b815260206004820152602360248201527f43616e6e6f74206265206265666f7265206465706f7369742073746172742074604482015262696d6560e81b6064820152608401610c91565b816000036124fb5760405162461bcd60e51b8152602060048201526015602482015274125b9d985b1a59081c995dd85c99081c195c9a5bd9605a1b6044820152606401610c91565b8060000361254b5760405162461bcd60e51b815260206004820152601b60248201527f496e76616c69642072657761726420746f6b656e20616d6f756e7400000000006044820152606401610c91565b6125586201518084613353565b60135560065460009061256f906201518090613353565b6013546000908152601b602052604090209091505b6013548210156125f9576000828152601b6020818152604080842081516060810183528154808252600183015482860152600290920154928101929092529386905291905290156125e8578051825560208101516001830155604081015160028301555b6125f183613399565b925050612584565b601484905560158390556013546040805191825260208201869052810184905242606082015233907f91971b8d63b004c0eb5e034d601797eb8bfdfed179e56b6234c25192ac2c908e9060800160405180910390a25050505050565b61265d612a05565b6001600160a01b03811661268757604051631e4fbdf760e01b815260006004820152602401610c91565b61269081612cb6565b50565b61269b612a99565b600454156126eb5760405162461bcd60e51b815260206004820152601c60248201527f4c69717569646974792077617320616c7265616479206c6973746564000000006044820152606401610c91565b600034116127325760405162461bcd60e51b8152602060048201526014602482015273086c2dcdcdee840c8cae0dee6d2e84060408aa8960631b6044820152606401610c91565b6006541580159061274557506006544210155b6127915760405162461bcd60e51b815260206004820152601e60248201527f4465706f736974206973206e6f7420616c6c6f77656420666f72206e6f7700006044820152606401610c91565b600d541561280357600d543410156128035760405162461bcd60e51b815260206004820152602f60248201527f496e73756666696369656e74206465706f73697420616d6f756e7420666f722060448201526e1b5a5b9a5b5d5b48185b1b1bddd959608a1b6064820152608401610c91565b60008060006128123334612d06565b9250925092508261288b5760405162461bcd60e51b815260206004820152603f60248201527f596f7520646f6e277420686176652073756666696369656e7420636c61696d6160448201527f626c6520746f6b656e20616d6f756e7420746f206465706f73697420455448006064820152608401610c91565b6003546001600160a01b03166361aec1e0336128a7848661332d565b6040516001600160e01b031960e085901b1681526001600160a01b0390921660048301526024820152604401600060405180830381600087803b1580156128ed57600080fd5b505af1158015612901573d6000803e3d6000fd5b50503360008181526011602090815260408083208151608081018352348082524282860190815282850187815260608401888152855460018082018855968a52888a20955160049091029095019485559151948401949094559251600283015591516003909101805460ff1916911515919091179055938352601290915281208054929450925090612994908490613340565b9250508190555034601060008282546129ad9190613340565b909155506129bf905033346000612af4565b6040805134815242602082015233917f73a19dd210f1a7f902193214c0ee91dd35ee5b4d920cba8d519eca65a7b488ca910160405180910390a25050506119be60018055565b6000546001600160a01b031633146119be5760405163118cdaa760e01b8152336004820152602401610c91565b6040516001600160a01b03848116602483015283811660448301526064820183905261122e9186918216906323b872dd906084015b604051602081830303815290604052915060e01b6020820180516001600160e01b038381831617835250505050612e2d565b600260015403612abc57604051633ee5aeb560e01b815260040160405180910390fd5b6002600155565b6040516001600160a01b03838116602483015260448201839052610c3191859182169063a9059cbb90606401612a67565b6000612b036201518042613353565b6001600160a01b038516600081815260166020908152604080832085845282528083209383526017909152902054919250908214612b7a576001600160a01b038516600090815260176020908152604080832054601683528184208185529092529091208054835560018301919091556002018290555b6000828152601b60205260409020601c548314612bb557601c80546000908152601b6020526040902080548355905460018301556002018390555b8315612bf35784826000016000828254612bcf919061332d565b9091555050805485908290600090612be890849061332d565b90915550612c269050565b84826000016000828254612c079190613340565b9091555050805485908290600090612c20908490613340565b90915550505b6001600160a01b0386166000908152601760205260409020839055601c8390556013548311612cae576001600160a01b03861660009081526016602090815260408083206013805485529083528184208654815560018088015481830155600291820186905591548552601b9093529220835481558383015492810192909255828101549101555b505050505050565b600080546001600160a01b038381166001600160a01b0319831681178455604051919092169283917f8be0079c531659141344cd1fd0a4f28419497f9722a3daafe3b4186f6b6457e09190a35050565b600354600090819081906001600160a01b0316612d7d5760405162461bcd60e51b815260206004820152602f60248201527f5468652061646472657373206f6620636c61696d696e6720636f6e747261637460448201526e2063616e6e6f74206265207a65726f60881b6064820152608401610c91565b600080612d8861137f565b9092509050612d9881600a613499565b612da2838861319b565b612dac9190613353565b60035460405163e12f3a6160e01b81526001600160a01b038a8116600483015292955091169063e12f3a6190602401602060405180830381865afa158015612df8573d6000803e3d6000fd5b505050506040513d601f19601f82011682018060405250810190612e1c919061314a565b935082841015945050509250925092565b6000612e426001600160a01b03841683612e90565b90508051600014158015612e67575080806020019051810190612e659190613163565b155b15610c3157604051635274afe760e01b81526001600160a01b0384166004820152602401610c91565b6060612e9e83836000612ea7565b90505b92915050565b606081471015612ed35760405163cf47918160e01b815247600482015260248101839052604401610c91565b600080856001600160a01b03168486604051612eef91906134a5565b60006040518083038185875af1925050503d8060008114612f2c576040519150601f19603f3d011682016040523d82523d6000602084013e612f31565b606091505b5091509150612f41868383612f4d565b925050505b9392505050565b606082612f6257612f5d82612fa9565b612f46565b8151158015612f7957506001600160a01b0384163b155b15612fa257604051639996b31560e01b81526001600160a01b0385166004820152602401610c91565b5080612f46565b805115612fb95780518082602001fd5b60405163d6bda27560e01b815260040160405180910390fd5b80356001600160a01b0381168114612fe957600080fd5b919050565b60006020828403121561300057600080fd5b612e9e82612fd2565b6000806040838503121561301c57600080fd5b61302583612fd2565b946020939093013593505050565b60006020828403121561304557600080fd5b5035919050565b602080825282518282018190526000918401906040840190835b818110156130ac57835180518452602081015160208501526040810151604085015260608101511515606085015250608083019250602084019350600181019050613066565b509095945050505050565b6000806000606084860312156130cc57600080fd5b505081359360208301359350604090920135919050565b80516001600160701b0381168114612fe957600080fd5b60008060006060848603121561310f57600080fd5b613118846130e3565b9250613126602085016130e3565b9150604084015163ffffffff8116811461313f57600080fd5b809150509250925092565b60006020828403121561315c57600080fd5b5051919050565b60006020828403121561317557600080fd5b81518015158114612f4657600080fd5b634e487b7160e01b600052601160045260246000fd5b8082028115828204841417612ea157612ea1613185565b6001600160a01b039687168152602081019590955260408501939093526060840191909152909216608082015260a081019190915260c00190565b60008060006060848603121561320257600080fd5b5050815160208301516040909301519094929350919050565b60005b8381101561323657818101518382015260200161321e565b50506000910152565b602081526000825180602084015261325e81604085016020870161321b565b601f01601f19169190910160400192915050565b634e487b7160e01b600052604160045260246000fd5b634e487b7160e01b600052603260045260246000fd5b805169ffffffffffffffffffff81168114612fe957600080fd5b600080600080600060a086880312156132d057600080fd5b6132d98661329e565b602087015160408801516060890151929750909550935091506132fe6080870161329e565b90509295509295909350565b60006020828403121561331c57600080fd5b815160ff81168114612f4657600080fd5b81810381811115612ea157612ea1613185565b80820180821115612ea157612ea1613185565b60008261337057634e487b7160e01b600052601260045260246000fd5b500490565b6000806040838503121561338857600080fd5b505080516020909101519092909150565b6000600182016133ab576133ab613185565b5060010190565b6001815b60018411156133ed578085048111156133d1576133d1613185565b60018416156133df57908102905b60019390931c9280026133b6565b935093915050565b60008261340457506001612ea1565b8161341157506000612ea1565b816001811461342757600281146134315761344d565b6001915050612ea1565b60ff84111561344257613442613185565b50506001821b612ea1565b5060208310610133831016604e8410600b8410161715613470575081810a612ea1565b61347d60001984846133b2565b806000190482111561349157613491613185565b029392505050565b6000612e9e83836133f5565b600082516134b781846020870161321b565b919091019291505056fea26469706673582212206afae099b9309225e916c348a958d9bff6afa69bcd49903657cd94a426b841f164736f6c634300081a0033","linkReferences":{}},"methodIdentifiers":{"ALLOWED_MINIMUM_DEPOSIT()":"184a22d1","DENOMINATOR()":"918f8674","MININUM_PERIOD_LOCK_ETH()":"a43a1b24","REWARD_RATE_1M()":"e133d2cd","REWARD_RATE_2M()":"4c384b51","REWARD_RATE_3M()":"9218caa7","REWARD_RATE_4M()":"8bff1de0","REWARD_RATE_5M()":"7ea7533b","WETH()":"ad5c4648","addLiquidity(uint256)":"51c6590a","claimReward()":"b88a802f","claiming()":"0defc08a","dailyTotalHistory(uint256)":"83c73126","depositETH()":"f6326fb3","depositRewardTokens(uint256)":"16c621e0","depositStart()":"d9c146de","fetchETHUSDPrice()":"4007b929","getRewardTokenAmount(address)":"96ee8782","getTotalDailyCheckpoint(uint256)":"51f9c87c","getUserDailyCheckpoint(address,uint256)":"58cf4643","getUserDepositInfo(address,uint256)":"c0806b03","getUserDepositsArray(address)":"35dac638","getUserTotalDeposit(address)":"a4c828dc","lastCheckpointDay(address)":"29d7157e","lastRewardClaimDay(address)":"8c983567","lastTotalCheckpointDay(address)":"057e2c40","lastUpdateDay()":"50f2bc5a","listLiquidity(address)":"265900e8","listedLiquidity()":"7bfa37e1","listedTime()":"dc713a48","numDepoists(address)":"65a6cf11","owner()":"8da5cb5b","pair()":"a8aa1b31","removeLiquidity(uint256)":"9c8f9f23","renounceOwnership()":"715018a6","rewardPeriod()":"e88dc5b7","setAllowedMinimumDeposit(uint256)":"72d970a3","setClaimingContract(address)":"9ce69679","setDepositStart(uint256)":"413d5056","setPair(address)":"8187f516","setRewardStates(uint256,uint256,uint256)":"d4a86a40","setToken(address)":"144fa6d7","setWETH(address)":"5b769f3c","startDay()":"0539272a","token()":"fc0c546a","totalDeposits()":"7d882097","totalReward()":"750142e6","transferOwnership(address)":"f2fde38b","uniswapV2Factory()":"59d0f713","uniswapV2Router()":"1694505e","updateCheckpointStartDay(address)":"0d26ad9c","userDailyHistory(address,uint256)":"b935088b","userDeposits(address,uint256)":"08f43333","userLastUpdateDay(address)":"af238ba5","userTotalDeposits(address)":"9295953f"},"id":35}