{"abi":[{"type":"constructor","inputs":[{"name":"_token","type":"address","internalType":"address"},{"name":"_chainlinkETHUSDAddress","type":"address","internalType":"address"},{"name":"_uniswapV2Factory","type":"address","internalType":"address"},{"name":"_uniswapV2Router","type":"address","internalType":"address"}],"stateMutability":"nonpayable"},{"type":"function","name":"ALLOWED_MINIMUM_DEPOSIT","inputs":[],"outputs":[{"name":"","type":"uint256","internalType":"uint256"}],"stateMutability":"view"},{"type":"function","name":"WETH","inputs":[],"outputs":[{"name":"","type":"address","internalType":"address"}],"stateMutability":"view"},{"type":"function","name":"addLiquidity","inputs":[{"name":"amount","type":"uint256","internalType":"uint256"}],"outputs":[{"name":"aToken","type":"uint256","internalType":"uint256"},{"name":"aETH","type":"uint256","internalType":"uint256"},{"name":"aLiquidity","type":"uint256","internalType":"uint256"}],"stateMutability":"payable"},{"type":"function","name":"claimReward","inputs":[],"outputs":[],"stateMutability":"nonpayable"},{"type":"function","name":"claiming","inputs":[],"outputs":[{"name":"","type":"address","internalType":"address"}],"stateMutability":"view"},{"type":"function","name":"dailyTotalHistory","inputs":[{"name":"","type":"uint256","internalType":"uint256"}],"outputs":[{"name":"amount","type":"uint256","internalType":"uint256"},{"name":"prev","type":"uint256","internalType":"uint256"},{"name":"next","type":"uint256","internalType":"uint256"}],"stateMutability":"view"},{"type":"function","name":"depositETH","inputs":[],"outputs":[],"stateMutability":"payable"},{"type":"function","name":"depositRewardTokens","inputs":[{"name":"amount","type":"uint256","internalType":"uint256"}],"outputs":[],"stateMutability":"nonpayable"},{"type":"function","name":"depositStart","inputs":[],"outputs":[{"name":"","type":"uint256","internalType":"uint256"}],"stateMutability":"view"},{"type":"function","name":"fetchETHUSDPrice","inputs":[],"outputs":[{"name":"price","type":"uint256","internalType":"uint256"},{"name":"decimals","type":"uint256","internalType":"uint256"}],"stateMutability":"view"},{"type":"function","name":"getRewardTokenAmount","inputs":[{"name":"user","type":"address","internalType":"address"}],"outputs":[{"name":"rewardAmount","type":"uint256","internalType":"uint256"},{"name":"lastCpDay","type":"uint256","internalType":"uint256"},{"name":"lastTotalCpDay","type":"uint256","internalType":"uint256"}],"stateMutability":"view"},{"type":"function","name":"getTotalDailyCheckpoint","inputs":[{"name":"day","type":"uint256","internalType":"uint256"}],"outputs":[{"name":"amount","type":"uint256","internalType":"uint256"},{"name":"prev","type":"uint256","internalType":"uint256"},{"name":"next","type":"uint256","internalType":"uint256"}],"stateMutability":"view"},{"type":"function","name":"getUserDailyCheckpoint","inputs":[{"name":"user","type":"address","internalType":"address"},{"name":"day","type":"uint256","internalType":"uint256"}],"outputs":[{"name":"amount","type":"uint256","internalType":"uint256"},{"name":"prev","type":"uint256","internalType":"uint256"},{"name":"next","type":"uint256","internalType":"uint256"}],"stateMutability":"view"},{"type":"function","name":"getUserDepositInfo","inputs":[{"name":"user","type":"address","internalType":"address"},{"name":"index","type":"uint256","internalType":"uint256"}],"outputs":[{"name":"","type":"uint256","internalType":"uint256"},{"name":"","type":"uint256","internalType":"uint256"},{"name":"","type":"bool","internalType":"bool"}],"stateMutability":"view"},{"type":"function","name":"getUserDepositsArray","inputs":[{"name":"user","type":"address","internalType":"address"}],"outputs":[{"name":"","type":"tuple[]","internalType":"struct LiquidityMining.UserDeposit[]","components":[{"name":"amount","type":"uint256","internalType":"uint256"},{"name":"depositOn","type":"uint256","internalType":"uint256"},{"name":"liquidity","type":"uint256","internalType":"uint256"},{"name":"removed","type":"bool","internalType":"bool"}]}],"stateMutability":"view"},{"type":"function","name":"getUserTotalDeposit","inputs":[{"name":"user","type":"address","internalType":"address"}],"outputs":[{"name":"","type":"uint256","internalType":"uint256"}],"stateMutability":"view"},{"type":"function","name":"lastCheckpointDay","inputs":[{"name":"","type":"address","internalType":"address"}],"outputs":[{"name":"","type":"uint256","internalType":"uint256"}],"stateMutability":"view"},{"type":"function","name":"lastRewardClaimDay","inputs":[{"name":"","type":"address","internalType":"address"}],"outputs":[{"name":"","type":"uint256","internalType":"uint256"}],"stateMutability":"view"},{"type":"function","name":"lastTotalCheckpointDay","inputs":[{"name":"","type":"address","internalType":"address"}],"outputs":[{"name":"","type":"uint256","internalType":"uint256"}],"stateMutability":"view"},{"type":"function","name":"lastUpdateDay","inputs":[],"outputs":[{"name":"","type":"uint256","internalType":"uint256"}],"stateMutability":"view"},{"type":"function","name":"listLiquidity","inputs":[{"name":"_pair","type":"address","internalType":"address"}],"outputs":[],"stateMutability":"nonpayable"},{"type":"function","name":"listedLiquidity","inputs":[],"outputs":[{"name":"","type":"uint256","internalType":"uint256"}],"stateMutability":"view"},{"type":"function","name":"listedTime","inputs":[],"outputs":[{"name":"","type":"uint256","internalType":"uint256"}],"stateMutability":"view"},{"type":"function","name":"numDepoists","inputs":[{"name":"user","type":"address","internalType":"address"}],"outputs":[{"name":"","type":"uint256","internalType":"uint256"}],"stateMutability":"view"},{"type":"function","name":"owner","inputs":[],"outputs":[{"name":"","type":"address","internalType":"address"}],"stateMutability":"view"},{"type":"function","name":"pair","inputs":[],"outputs":[{"name":"","type":"address","internalType":"contract IUniswapV2Pair"}],"stateMutability":"view"},{"type":"function","name":"removeLiquidity","inputs":[{"name":"index","type":"uint256","internalType":"uint256"}],"outputs":[{"name":"amountToken","type":"uint256","internalType":"uint256"},{"name":"amountETH","type":"uint256","internalType":"uint256"}],"stateMutability":"nonpayable"},{"type":"function","name":"renounceOwnership","inputs":[],"outputs":[],"stateMutability":"nonpayable"},{"type":"function","name":"rewardPeriod","inputs":[],"outputs":[{"name":"","type":"uint256","internalType":"uint256"}],"stateMutability":"view"},{"type":"function","name":"setAllowedMinimumDeposit","inputs":[{"name":"amount","type":"uint256","internalType":"uint256"}],"outputs":[],"stateMutability":"nonpayable"},{"type":"function","name":"setClaimingContract","inputs":[{"name":"_claiming","type":"address","internalType":"address"}],"outputs":[],"stateMutability":"nonpayable"},{"type":"function","name":"setDepositStart","inputs":[{"name":"_depositStart","type":"uint256","internalType":"uint256"}],"outputs":[],"stateMutability":"nonpayable"},{"type":"function","name":"setRewardStates","inputs":[{"name":"_start","type":"uint256","internalType":"uint256"},{"name":"_period","type":"uint256","internalType":"uint256"},{"name":"_total","type":"uint256","internalType":"uint256"}],"outputs":[],"stateMutability":"nonpayable"},{"type":"function","name":"startDay","inputs":[],"outputs":[{"name":"","type":"uint256","internalType":"uint256"}],"stateMutability":"view"},{"type":"function","name":"token","inputs":[],"outputs":[{"name":"","type":"address","internalType":"contract IERC20"}],"stateMutability":"view"},{"type":"function","name":"totalDeposits","inputs":[],"outputs":[{"name":"","type":"uint256","internalType":"uint256"}],"stateMutability":"view"},{"type":"function","name":"totalReward","inputs":[],"outputs":[{"name":"","type":"uint256","internalType":"uint256"}],"stateMutability":"view"},{"type":"function","name":"transferOwnership","inputs":[{"name":"newOwner","type":"address","internalType":"address"}],"outputs":[],"stateMutability":"nonpayable"},{"type":"function","name":"uniswapV2Factory","inputs":[],"outputs":[{"name":"","type":"address","internalType":"contract IUniswapV2Factory"}],"stateMutability":"view"},{"type":"function","name":"uniswapV2Router","inputs":[],"outputs":[{"name":"","type":"address","internalType":"contract IUniswapV2Router02"}],"stateMutability":"view"},{"type":"function","name":"updateCheckpointStartDay","inputs":[{"name":"user","type":"address","internalType":"address"}],"outputs":[],"stateMutability":"nonpayable"},{"type":"function","name":"userDailyHistory","inputs":[{"name":"","type":"address","internalType":"address"},{"name":"","type":"uint256","internalType":"uint256"}],"outputs":[{"name":"amount","type":"uint256","internalType":"uint256"},{"name":"prev","type":"uint256","internalType":"uint256"},{"name":"next","type":"uint256","internalType":"uint256"}],"stateMutability":"view"},{"type":"function","name":"userDeposits","inputs":[{"name":"","type":"address","internalType":"address"},{"name":"","type":"uint256","internalType":"uint256"}],"outputs":[{"name":"amount","type":"uint256","internalType":"uint256"},{"name":"depositOn","type":"uint256","internalType":"uint256"},{"name":"liquidity","type":"uint256","internalType":"uint256"},{"name":"removed","type":"bool","internalType":"bool"}],"stateMutability":"view"},{"type":"function","name":"userLastUpdateDay","inputs":[{"name":"","type":"address","internalType":"address"}],"outputs":[{"name":"","type":"uint256","internalType":"uint256"}],"stateMutability":"view"},{"type":"function","name":"userTotalDeposits","inputs":[{"name":"","type":"address","internalType":"address"}],"outputs":[{"name":"","type":"uint256","internalType":"uint256"}],"stateMutability":"view"},{"type":"event","name":"AllowedMinimumDepositUpdated","inputs":[{"name":"user","type":"address","indexed":true,"internalType":"address"},{"name":"previousAmount","type":"uint256","indexed":false,"internalType":"uint256"},{"name":"amount","type":"uint256","indexed":false,"internalType":"uint256"},{"name":"time","type":"uint256","indexed":false,"internalType":"uint256"}],"anonymous":false},{"type":"event","name":"ClaimingContractAddressUpdated","inputs":[{"name":"user","type":"address","indexed":true,"internalType":"address"},{"name":"claiming","type":"address","indexed":false,"internalType":"address"},{"name":"time","type":"uint256","indexed":false,"internalType":"uint256"}],"anonymous":false},{"type":"event","name":"DepositStartTimeUpdated","inputs":[{"name":"user","type":"address","indexed":true,"internalType":"address"},{"name":"depositStartTime","type":"uint256","indexed":false,"internalType":"uint256"}],"anonymous":false},{"type":"event","name":"Deposited","inputs":[{"name":"user","type":"address","indexed":true,"internalType":"address"},{"name":"amount","type":"uint256","indexed":false,"internalType":"uint256"},{"name":"time","type":"uint256","indexed":false,"internalType":"uint256"}],"anonymous":false},{"type":"event","name":"LiquidityAdded","inputs":[{"name":"user","type":"address","indexed":true,"internalType":"address"},{"name":"liquidity","type":"uint256","indexed":false,"internalType":"uint256"},{"name":"time","type":"uint256","indexed":false,"internalType":"uint256"}],"anonymous":false},{"type":"event","name":"LiquidityRemoved","inputs":[{"name":"user","type":"address","indexed":true,"internalType":"address"},{"name":"ownLiquidity","type":"uint256","indexed":false,"internalType":"uint256"},{"name":"amountToken","type":"uint256","indexed":false,"internalType":"uint256"},{"name":"amountETH","type":"uint256","indexed":false,"internalType":"uint256"},{"name":"time","type":"uint256","indexed":false,"internalType":"uint256"}],"anonymous":false},{"type":"event","name":"OwnershipTransferred","inputs":[{"name":"previousOwner","type":"address","indexed":true,"internalType":"address"},{"name":"newOwner","type":"address","indexed":true,"internalType":"address"}],"anonymous":false},{"type":"event","name":"RewardProgramPlanUpdated","inputs":[{"name":"user","type":"address","indexed":true,"internalType":"address"},{"name":"startDay","type":"uint256","indexed":false,"internalType":"uint256"},{"name":"period","type":"uint256","indexed":false,"internalType":"uint256"},{"name":"totalReward","type":"uint256","indexed":false,"internalType":"uint256"},{"name":"time","type":"uint256","indexed":false,"internalType":"uint256"}],"anonymous":false},{"type":"event","name":"RewardTransferred","inputs":[{"name":"user","type":"address","indexed":true,"internalType":"address"},{"name":"amount","type":"uint256","indexed":false,"internalType":"uint256"},{"name":"time","type":"uint256","indexed":false,"internalType":"uint256"}],"anonymous":false},{"type":"event","name":"TokenDepositedForReward","inputs":[{"name":"user","type":"address","indexed":true,"internalType":"address"},{"name":"amount","type":"uint256","indexed":false,"internalType":"uint256"},{"name":"time","type":"uint256","indexed":false,"internalType":"uint256"}],"anonymous":false},{"type":"error","name":"AddressEmptyCode","inputs":[{"name":"target","type":"address","internalType":"address"}]},{"type":"error","name":"FailedCall","inputs":[]},{"type":"error","name":"InsufficientBalance","inputs":[{"name":"balance","type":"uint256","internalType":"uint256"},{"name":"needed","type":"uint256","internalType":"uint256"}]},{"type":"error","name":"OwnableInvalidOwner","inputs":[{"name":"owner","type":"address","internalType":"address"}]},{"type":"error","name":"OwnableUnauthorizedAccount","inputs":[{"name":"account","type":"address","internalType":"address"}]},{"type":"error","name":"ReentrancyGuardReentrantCall","inputs":[]},{"type":"error","name":"SafeERC20FailedOperation","inputs":[{"name":"token","type":"address","internalType":"address"}]}],"bytecode":{"object":"0x608060405234801561001057600080fd5b506040516136cd3803806136cd83398101604081905261002f91610201565b338061005657604051631e4fbdf760e01b8152600060048201526024015b60405180910390fd5b61005f81610195565b50600180556001600160a01b0384166100c45760405162461bcd60e51b815260206004820152602160248201527f53616c6520746f6b656e20616464726573732063616e6e6f74206265207a65726044820152606f60f81b606482015260840161004d565b600280546001600160a01b038087166001600160a01b0319928316179092556019805486841690831617905560178054858416908316179055601880549284169290911682179055604080516315ab88c960e31b8152905163ad5c4648916004808201926020929091908290030181865afa158015610147573d6000803e3d6000fd5b505050506040513d601f19601f8201168201806040525081019061016b9190610255565b600880546001600160a01b0319166001600160a01b03929092169190911790555061027792505050565b600080546001600160a01b038381166001600160a01b0319831681178455604051919092169283917f8be0079c531659141344cd1fd0a4f28419497f9722a3daafe3b4186f6b6457e09190a35050565b80516001600160a01b03811681146101fc57600080fd5b919050565b6000806000806080858703121561021757600080fd5b610220856101e5565b935061022e602086016101e5565b925061023c604086016101e5565b915061024a606086016101e5565b905092959194509250565b60006020828403121561026757600080fd5b610270826101e5565b9392505050565b613447806102866000396000f3fe6080604052600436106102725760003560e01c80637bfa37e11161014f578063ad5c4648116100c1578063d9c146de1161007a578063d9c146de146108c4578063dc713a48146108da578063e88dc5b7146108f0578063f2fde38b14610906578063f6326fb314610926578063fc0c546a1461092e57600080fd5b8063ad5c4648146107be578063af238ba5146107de578063b88a802f1461080b578063b935088b14610820578063c0806b0314610867578063d4a86a40146108a457600080fd5b80639295953f116101135780639295953f146106db57806396ee8782146107085780639c8f9f23146107285780639ce6967914610748578063a4c828dc14610768578063a8aa1b311461079e57600080fd5b80637bfa37e1146106285780637d8820971461063e57806383c73126146106545780638c983567146106905780638da5cb5b146106bd57600080fd5b80634007b929116101e857806358cf4643116101ac57806358cf46431461051d57806359d0f7131461058757806365a6cf11146105a7578063715018a6146105dd57806372d970a3146105f2578063750142e61461061257600080fd5b80634007b92914610439578063413d50561461046357806350f2bc5a1461048357806351c6590a1461049957806351f9c87c146104c757600080fd5b80631694505e1161023a5780631694505e1461036957806316c621e014610389578063184a22d1146103a9578063265900e8146103bf57806329d7157e146103df57806335dac6381461040c57600080fd5b80630539272a14610277578063057e2c40146102a057806308f43333146102cd5780630d26ad9c1461030f5780630defc08a14610331575b600080fd5b34801561028357600080fd5b5061028d600c5481565b6040519081526020015b60405180910390f35b3480156102ac57600080fd5b5061028d6102bb366004612ef0565b60136020526000908152604090205481565b3480156102d957600080fd5b506102ed6102e8366004612f0d565b61094e565b6040805194855260208501939093529183015215156060820152608001610297565b34801561031b57600080fd5b5061032f61032a366004612ef0565b610997565b005b34801561033d57600080fd5b50600354610351906001600160a01b031681565b6040516001600160a01b039091168152602001610297565b34801561037557600080fd5b50601854610351906001600160a01b031681565b34801561039557600080fd5b5061032f6103a4366004612f39565b610a5f565b3480156103b557600080fd5b5061028d60075481565b3480156103cb57600080fd5b5061032f6103da366004612ef0565b610b09565b3480156103eb57600080fd5b5061028d6103fa366004612ef0565b60126020526000908152604090205481565b34801561041857600080fd5b5061042c610427366004612ef0565b6111b7565b6040516102979190612f52565b34801561044557600080fd5b5061044e611302565b60408051928352602083019190915201610297565b34801561046f57600080fd5b5061032f61047e366004612f39565b6113fd565b34801561048f57600080fd5b5061028d60155481565b6104ac6104a7366004612f39565b61148c565b60408051938452602084019290925290820152606001610297565b3480156104d357600080fd5b506104ac6104e2366004612f39565b600090815260146020908152604091829020825160608101845281548082526001830154938201849052600290920154930183905292909190565b34801561052957600080fd5b506104ac610538366004612f0d565b6001600160a01b039091166000908152600f6020908152604080832093835292815290829020825160608101845281548082526001830154938201849052600290920154930183905292909190565b34801561059357600080fd5b50601754610351906001600160a01b031681565b3480156105b357600080fd5b5061028d6105c2366004612ef0565b6001600160a01b03166000908152600a602052604090205490565b3480156105e957600080fd5b5061032f6118d1565b3480156105fe57600080fd5b5061032f61060d366004612f39565b6118e5565b34801561061e57600080fd5b5061028d600e5481565b34801561063457600080fd5b5061028d60055481565b34801561064a57600080fd5b5061028d60095481565b34801561066057600080fd5b506104ac61066f366004612f39565b60146020526000908152604090208054600182015460029092015490919083565b34801561069c57600080fd5b5061028d6106ab366004612ef0565b60116020526000908152604090205481565b3480156106c957600080fd5b506000546001600160a01b0316610351565b3480156106e757600080fd5b5061028d6106f6366004612ef0565b600b6020526000908152604090205481565b34801561071457600080fd5b506104ac610723366004612ef0565b61193b565b34801561073457600080fd5b5061044e610743366004612f39565b611c05565b34801561075457600080fd5b5061032f610763366004612ef0565b61201b565b34801561077457600080fd5b5061028d610783366004612ef0565b6001600160a01b03166000908152600b602052604090205490565b3480156107aa57600080fd5b50601654610351906001600160a01b031681565b3480156107ca57600080fd5b50600854610351906001600160a01b031681565b3480156107ea57600080fd5b5061028d6107f9366004612ef0565b60106020526000908152604090205481565b34801561081757600080fd5b5061032f6120de565b34801561082c57600080fd5b506104ac61083b366004612f0d565b600f60209081526000928352604080842090915290825290208054600182015460029092015490919083565b34801561087357600080fd5b50610887610882366004612f0d565b612250565b604080519384526020840192909252151590820152606001610297565b3480156108b057600080fd5b5061032f6108bf366004612fbd565b6122af565b3480156108d057600080fd5b5061028d60065481565b3480156108e657600080fd5b5061028d60045481565b3480156108fc57600080fd5b5061028d600d5481565b34801561091257600080fd5b5061032f610921366004612ef0565b612554565b61032f612592565b34801561093a57600080fd5b50600254610351906001600160a01b031681565b600a602052816000526040600020818154811061096a57600080fd5b60009182526020909120600490910201805460018201546002830154600390930154919450925060ff1684565b6001600160a01b0381166000818152600f60209081526040808320600c548452825280832093835260119091529020541580156109d357508054155b15610a5b5760005b600c548111610a59576001600160a01b0383166000908152600f602090815260408083208484528252918290208251606081018452815480825260018084015494830185905260029384015495830186905290875586019290925584018290559015610a4d5780604001519150610a53565b50610a59565b506109db565b505b5050565b610a67612904565b80600003610ab35760405162461bcd60e51b8152602060048201526014602482015273125b9d985b1a59081d1bdad95b88185b5bdd5b9d60621b60448201526064015b60405180910390fd5b600254610acb906001600160a01b0316333084612931565b6040805182815242602082015233917f9f77c8cccc840812886a42aaa64dbd4b1145c9392e0c3fa498206caa5d4faba591015b60405180910390a250565b610b11612904565b60045415610b615760405162461bcd60e51b815260206004820152601c60248201527f4c69717569646974792077617320616c7265616479206c6973746564000000006044820152606401610aaa565b6002546001600160a01b0316610bc35760405162461bcd60e51b815260206004820152602160248201527f53616c6520746f6b656e20616464726573732063616e6e6f74206265207a65726044820152606f60f81b6064820152608401610aaa565b600954600003610c215760405162461bcd60e51b815260206004820152602360248201527f496e73756666696369656e74204554482062616c616e636520746f206d696e746044820152620204c560ec1b6064820152608401610aaa565b601680546001600160a01b0319166001600160a01b0383811691821790925560025460408051630dfe168160e01b815290519190931692630dfe16819160048083019260209291908290030181865afa158015610c82573d6000803e3d6000fd5b505050506040513d601f19601f82011682018060405250810190610ca69190612fe9565b6001600160a01b03161480610d3657506002546016546040805163d21220a760e01b815290516001600160a01b03938416939092169163d21220a7916004808201926020929091908290030181865afa158015610d07573d6000803e3d6000fd5b505050506040513d601f19601f82011682018060405250810190610d2b9190612fe9565b6001600160a01b0316145b610d795760405162461bcd60e51b8152602060048201526014602482015273496e76616c69642070616972206164647265737360601b6044820152606401610aaa565b42600490815560165460408051630240bc6b60e21b8152905160009384936001600160a01b031692630902f1ac92818301926060928290030181865afa158015610dc7573d6000803e3d6000fd5b505050506040513d601f19601f82011682018060405250810190610deb9190613022565b506008546002546001600160701b0393841695509190921692506000916001600160a01b0390811691161015610ea157601854600954604051632b58577b60e21b8152600481019190915260248101849052604481018590526001600160a01b039091169063ad615dec90606401602060405180830381865afa158015610e76573d6000803e3d6000fd5b505050506040513d601f19601f82011682018060405250810190610e9a9190613072565b9050610f23565b601854600954604051632b58577b60e21b8152600481019190915260248101859052604481018490526001600160a01b039091169063ad615dec90606401602060405180830381865afa158015610efc573d6000803e3d6000fd5b505050506040513d601f19601f82011682018060405250810190610f209190613072565b90505b600354604051637527c93d60e11b8152600481018390526001600160a01b039091169063ea4f927a90602401600060405180830381600087803b158015610f6957600080fd5b505af1158015610f7d573d6000803e3d6000fd5b50506003546004546001600160a01b03909116925063b0aa1e049150610fa69062093a806130a1565b6040518263ffffffff1660e01b8152600401610fc491815260200190565b600060405180830381600087803b158015610fde57600080fd5b505af1158015610ff2573d6000803e3d6000fd5b505060025460185460405163095ea7b360e01b81526001600160a01b03918216600482015260248101869052600094509116915063095ea7b3906044016020604051808303816000875af115801561104e573d6000803e3d6000fd5b505050506040513d601f19601f8201168201806040525081019061107291906130b4565b9050806110915760405162461bcd60e51b8152600401610aaa906130d6565b601854600954600280546001600160a01b039384169363f305d71993929116906110bc9087906130fe565b606460095430426040518863ffffffff1660e01b81526004016110e496959493929190613115565b60606040518083038185885af19350505050801561111f575060408051601f3d908101601f1916820190925261111c91810190613150565b60015b61116e57604080518082018252601b81527f416464696e67206c697175696469747920776173206661696c656400000000006020820152905162461bcd60e51b8152610aaa91906004016131a2565b60058190556040805182815242602082015233917fac1d76749e5447b7b16f5ab61447e1bd502f3bb4807af3b28e620d1700a6ee45910160405180910390a25050505050505050565b606060006111da836001600160a01b03166000908152600a602052604090205490565b905060008167ffffffffffffffff8111156111f7576111f76131d5565b60405190808252806020026020018201604052801561125557816020015b61124260405180608001604052806000815260200160008152602001600081526020016000151581525090565b8152602001906001900390816112155790505b50905060005b828110156112fa576001600160a01b0385166000908152600a6020526040902080548290811061128d5761128d6131eb565b60009182526020918290206040805160808101825260049093029091018054835260018101549383019390935260028301549082015260039091015460ff161515606082015282518390839081106112e7576112e76131eb565b602090810291909101015260010161125b565b509392505050565b6000806000601960009054906101000a90046001600160a01b03166001600160a01b031663feaf968c6040518163ffffffff1660e01b815260040160a060405180830381865afa15801561135a573d6000803e3d6000fd5b505050506040513d601f19601f8201168201806040525081019061137e919061321b565b50506019546040805163313ce56760e01b815290519395506001600160a01b03909116935063313ce56792600480830193506020928290030181865afa1580156113cc573d6000803e3d6000fd5b505050506040513d601f19601f820116820180604052508101906113f0919061326d565b60ff169150809250509091565b611405612904565b428110156114555760405162461bcd60e51b815260206004820152601f60248201527f496e76616c69642074696d6520666f72207374617274206465706f7369742e006044820152606401610aaa565b600681905560405181815233907fa50a5685ad4402dcad428a4b45e0ea75093cf2bf5c0dadf9829fb0aea648ea9690602001610afe565b600080600061149961299e565b6004546000036114eb5760405162461bcd60e51b815260206004820152601b60248201527f4c6971756964697479207761736e2774206c69737465642079657400000000006044820152606401610aaa565b346000036115315760405162461bcd60e51b8152602060048201526013602482015272125b9d985b1a59081155120819195c1bdcda5d606a1b6044820152606401610aaa565b836000036115795760405162461bcd60e51b8152602060048201526015602482015274125b9d985b1a59081d1bdad95b8819195c1bdcda5d605a1b6044820152606401610aaa565b600254611591906001600160a01b0316333087612931565b60025460185460405163095ea7b360e01b81526001600160a01b03918216600482015260248101879052600092919091169063095ea7b3906044016020604051808303816000875af11580156115eb573d6000803e3d6000fd5b505050506040513d601f19601f8201168201806040525081019061160f91906130b4565b90508061162e5760405162461bcd60e51b8152600401610aaa906130d6565b60185460025460405163f305d71960e01b81526001600160a01b039283169263f305d71992349261167092909116908a90606490819030904290600401613115565b60606040518083038185885af1935050505080156116ab575060408051601f3d908101601f191682019092526116a891810190613150565b60015b6116fa57604080518082018252601b81527f416464696e67206c697175696469747920776173206661696c656400000000006020820152905162461bcd60e51b8152610aaa91906004016131a2565b828811156117235761172333611710858b613290565b6002546001600160a01b031691906129c8565b813411156117c957336117368334613290565b6040516188b891906000818181858888f193505050503d8060008114611778576040519150601f19603f3d011682016040523d82523d6000602084013e61177d565b606091505b505080945050836117c95760405162461bcd60e51b81526020600482015260166024820152752330b4b632b2103a37903932b33ab7321022ba3432b960511b6044820152606401610aaa565b336000818152600a6020908152604080832081516080810183528781524281850190815281840188815260608301878152845460018082018755958952878920945160049091029094019384559151938301939093559151600282015590516003909101805460ff1916911515919091179055928252600b905290812080548492906118569084906130a1565b909155506118689050338360006129f9565b829650819550809450336001600160a01b03167fac1d76749e5447b7b16f5ab61447e1bd502f3bb4807af3b28e620d1700a6ee4582426040516118b5929190918252602082015260400190565b60405180910390a2505050506118ca60018055565b9193909250565b6118d9612904565b6118e36000612bbb565b565b6118ed612904565b600780549082905560408051828152602081018490524281830152905133917fe0407de8eae531920644bf37bbdf5155a48ebc803a304c405ce88b004b867c73919081900360600190a25050565b600080806001600160a01b03841661198c5760405162461bcd60e51b8152602060048201526014602482015273496e76616c69642075736572206164647265737360601b6044820152606401610aaa565b600c546000036119a4575060009150819050806118ca565b6000600d54600e546119b691906132a3565b905060006119c762015180426132a3565b90506000600d54600c546119db91906130a1565b6001600160a01b0388166000908152601160205260408120549192509015611a1b576001600160a01b038816600090815260116020526040902054611a1f565b600c545b6001600160a01b03891660009081526012602090815260408083205460139092528220549098509650909150828411611a585783611a5a565b825b9050815b81811015611bf8576000818152601460209081526040808320815160608101835281548082526001830154948201949094526002909101549181019190915290151580611aae5750602081015115155b15611ac25780600001519150829850611ad4565b60008981526014602052604090205491505b81600003611ae3575050611bf0565b6001600160a01b038c166000908152600f602090815260408083208684528252918290208251606081018452815480825260018301549382019390935260029091015492810192909252151580611b3d5750602081015115155b15611b6e5780518390611b50908b6130fe565b611b5a91906132a3565b611b64908d6130a1565b9b50839a50611bec565b6001600160a01b038d166000908152600f602090815260408083208e8452825280832081516060810183528154808252600183015494820194909452600290910154918101919091529103611bc65750505050611bf0565b80518490611bd4908c6130fe565b611bde91906132a3565b611be8908e6130a1565b9c50505b5050505b600101611a5e565b5050505050509193909250565b600080611c1061299e565b600454600003611c625760405162461bcd60e51b815260206004820152601b60248201527f4c6971756964697479207761736e2774206c69737465642079657400000000006044820152606401610aaa565b600454611c729062093a806130a1565b421015611cdc5760405162461bcd60e51b815260206004820152603260248201527f43616e6e6f742072656d6f7665206c697175696469747920756e74696c20372060448201527164617973206166746572206c697374696e6760701b6064820152608401610aaa565b336000908152600a60205260409020548310611d305760405162461bcd60e51b8152602060048201526013602482015272496e76616c696420696e6465782076616c756560681b6044820152606401610aaa565b336000908152600a60205260408120805485908110611d5157611d516131eb565b60009182526020909120600490910201600381015490915060ff1615611dc45760405162461bcd60e51b815260206004820152602260248201527f54686973206c69717569646974792077617320616c72656164792072656d6f76604482015261195960f21b6064820152608401610aaa565b60038101805460ff191660011790558054336000908152600b602052604081208054909190611df4908490613290565b9091555050600281015460009015611e1157506002810154611e90565b600554600003611e715760405162461bcd60e51b815260206004820152602560248201527f5468657265206973206e6f206c697175696469747920696e2074686520636f6e6044820152641d1c9858dd60da1b6064820152608401610aaa565b6009548254600554611e8391906130fe565b611e8d91906132a3565b90505b60165460185460405163095ea7b360e01b81526001600160a01b03918216600482015260248101849052600092919091169063095ea7b3906044016020604051808303816000875af1158015611eea573d6000803e3d6000fd5b505050506040513d601f19601f82011682018060405250810190611f0e91906130b4565b905080611f2d5760405162461bcd60e51b8152600401610aaa906130d6565b601854600254604051629d473b60e21b81526001600160a01b03928316926302751cec92611f6b929116908690606490819033904290600401613115565b60408051808303816000875af1158015611f89573d6000803e3d6000fd5b505050506040513d601f19601f82011682018060405250810190611fad91906132c5565b84549196509450611fc190339060016129f9565b604080518381526020810187905290810185905242606082015233907f8598e6b147330d38243f9c4cd33d61e208b9015719e977086fa42a0f73b1462b9060800160405180910390a250505061201660018055565b915091565b612023612904565b6001600160a01b0381166120895760405162461bcd60e51b815260206004820152602760248201527f436f6e747261637420616464726573732063616e6e6f74206265207a65726f206044820152666164647265737360c81b6064820152608401610aaa565b600380546001600160a01b0319166001600160a01b0383169081179091556040805191825242602083015233917f756385748ba24e5ab4d1643f22cd0ae4c173b02757457d36eb25c592aea6cd7b9101610afe565b6000600654116121305760405162461bcd60e51b815260206004820152601a60248201527f496e76616c6964206465706f7369742073746172742074696d650000000000006044820152606401610aaa565b6000600c541161217e5760405162461bcd60e51b8152602060048201526019602482015278496e76616c6964207265776172642073746172742074696d6560381b6044820152606401610aaa565b600c5461218e62015180426132a3565b116121db5760405162461bcd60e51b815260206004820152601c60248201527f496e76616c6964206461746520746f20636c61696d20726577617264000000006044820152606401610aaa565b6121e433610997565b60008060006121f23361193b565b91945092509050821561221657600254612216906001600160a01b031633856129c8565b61222362015180426132a3565b33600090815260116020908152604080832093909355601281528282209490945560139093529091205550565b6001600160a01b0382166000908152600a6020526040812080548291829182919086908110612281576122816131eb565b6000918252602090912060049091020180546001820154600390920154909891975060ff1695509350505050565b6122b7612904565b6006546000036123095760405162461bcd60e51b815260206004820181905260248201527f4465706f7369742073746172742074696d652073686f756c64206265207365746044820152606401610aaa565b826000036123555760405162461bcd60e51b8152602060048201526019602482015278496e76616c6964207265776172642073746172742074696d6560381b6044820152606401610aaa565b6006548310156123b35760405162461bcd60e51b815260206004820152602360248201527f43616e6e6f74206265206265666f7265206465706f7369742073746172742074604482015262696d6560e81b6064820152608401610aaa565b816000036123fb5760405162461bcd60e51b8152602060048201526015602482015274125b9d985b1a59081c995dd85c99081c195c9a5bd9605a1b6044820152606401610aaa565b8060000361244b5760405162461bcd60e51b815260206004820152601b60248201527f496e76616c69642072657761726420746f6b656e20616d6f756e7400000000006044820152606401610aaa565b61245862015180846132a3565b600c5560065460009061246f9062015180906132a3565b600c5460009081526014602052604090209091505b600c5482116124f857600082815260146020818152604080842081516060810183528154808252600183015482860152600290920154928101929092529386905291905290156124e7578051825560208101516001830155604081015160028301555b6124f0836132e9565b925050612484565b600d849055600e839055600c546040805191825260208201869052810184905242606082015233907f91971b8d63b004c0eb5e034d601797eb8bfdfed179e56b6234c25192ac2c908e9060800160405180910390a25050505050565b61255c612904565b6001600160a01b03811661258657604051631e4fbdf760e01b815260006004820152602401610aaa565b61258f81612bbb565b50565b61259a61299e565b600454156125ea5760405162461bcd60e51b815260206004820152601c60248201527f4c69717569646974792077617320616c7265616479206c6973746564000000006044820152606401610aaa565b600034116126315760405162461bcd60e51b8152602060048201526014602482015273086c2dcdcdee840c8cae0dee6d2e84060408aa8960631b6044820152606401610aaa565b6006541580159061264457506006544210155b6126905760405162461bcd60e51b815260206004820152601e60248201527f4465706f736974206973206e6f7420616c6c6f77656420666f72206e6f7700006044820152606401610aaa565b60075415612702576007543410156127025760405162461bcd60e51b815260206004820152602f60248201527f496e73756666696369656e74206465706f73697420616d6f756e7420666f722060448201526e1b5a5b9a5b5d5b48185b1b1bddd959608a1b6064820152608401610aaa565b60008060006127113334612c0b565b9250925092508261278a5760405162461bcd60e51b815260206004820152603f60248201527f596f7520646f6e277420686176652073756666696369656e7420636c61696d6160448201527f626c6520746f6b656e20616d6f756e7420746f206465706f73697420455448006064820152608401610aaa565b6003546001600160a01b03166361aec1e0336127a68486613290565b6040516001600160e01b031960e085901b1681526001600160a01b0390921660048301526024820152604401600060405180830381600087803b1580156127ec57600080fd5b505af1158015612800573d6000803e3d6000fd5b5050336000818152600a602090815260408083208151608081018352348082524282860190815282850187815260608401888152855460018082018855968a52888a20955160049091029095019485559151948401949094559251600283015591516003909101805460ff1916911515919091179055938352600b909152812080549294509250906128939084906130a1565b9250508190555034600960008282546128ac91906130a1565b909155506128be9050333460006129f9565b6040805134815242602082015233917f73a19dd210f1a7f902193214c0ee91dd35ee5b4d920cba8d519eca65a7b488ca910160405180910390a25050506118e360018055565b6000546001600160a01b031633146118e35760405163118cdaa760e01b8152336004820152602401610aaa565b6040516001600160a01b0384811660248301528381166044830152606482018390526129989186918216906323b872dd906084015b604051602081830303815290604052915060e01b6020820180516001600160e01b038381831617835250505050612d36565b50505050565b6002600154036129c157604051633ee5aeb560e01b815260040160405180910390fd5b6002600155565b6040516001600160a01b03838116602483015260448201839052610a5991859182169063a9059cbb90606401612966565b6000612a0862015180426132a3565b6001600160a01b0385166000818152600f6020908152604080832085845282528083209383526010909152902054919250908214612a7f576001600160a01b038516600090815260106020908152604080832054600f83528184208185529092529091208054835560018301919091556002018290555b60008281526014602052604090206015548314612aba5760158054600090815260146020526040902080548355905460018301556002018390555b8315612af85784826000016000828254612ad49190613290565b9091555050805485908290600090612aed908490613290565b90915550612b2b9050565b84826000016000828254612b0c91906130a1565b9091555050805485908290600090612b259084906130a1565b90915550505b6001600160a01b03861660009081526010602052604090208390556015839055600c548311612bb3576001600160a01b0386166000908152600f60209081526040808320600c80548552908352818420865481556001808801548183015560029182018690559154855260149093529220835481558383015492810192909255828101549101555b505050505050565b600080546001600160a01b038381166001600160a01b0319831681178455604051919092169283917f8be0079c531659141344cd1fd0a4f28419497f9722a3daafe3b4186f6b6457e09190a35050565b600354600090819081906001600160a01b0316612c825760405162461bcd60e51b815260206004820152602f60248201527f5468652061646472657373206f6620636c61696d696e6720636f6e747261637460448201526e2063616e6e6f74206265207a65726f60881b6064820152608401610aaa565b600080612c8d611302565b9092509050612c9d81600a6133e9565b612ca783886130fe565b612cb191906132a3565b600354604051630835fe4760e01b81526001600160a01b038a81166004830152929550911690630835fe4790602401606060405180830381865afa158015612cfd573d6000803e3d6000fd5b505050506040513d601f19601f82011682018060405250810190612d219190613150565b858110159a9099509497509395505050505050565b6000612d4b6001600160a01b03841683612d99565b90508051600014158015612d70575080806020019051810190612d6e91906130b4565b155b15610a5957604051635274afe760e01b81526001600160a01b0384166004820152602401610aaa565b6060612da783836000612db0565b90505b92915050565b606081471015612ddc5760405163cf47918160e01b815247600482015260248101839052604401610aaa565b600080856001600160a01b03168486604051612df891906133f5565b60006040518083038185875af1925050503d8060008114612e35576040519150601f19603f3d011682016040523d82523d6000602084013e612e3a565b606091505b5091509150612e4a868383612e56565b925050505b9392505050565b606082612e6b57612e6682612eb2565b612e4f565b8151158015612e8257506001600160a01b0384163b155b15612eab57604051639996b31560e01b81526001600160a01b0385166004820152602401610aaa565b5080612e4f565b805115612ec25780518082602001fd5b60405163d6bda27560e01b815260040160405180910390fd5b6001600160a01b038116811461258f57600080fd5b600060208284031215612f0257600080fd5b8135612e4f81612edb565b60008060408385031215612f2057600080fd5b8235612f2b81612edb565b946020939093013593505050565b600060208284031215612f4b57600080fd5b5035919050565b602080825282518282018190526000918401906040840190835b81811015612fb257835180518452602081015160208501526040810151604085015260608101511515606085015250608083019250602084019350600181019050612f6c565b509095945050505050565b600080600060608486031215612fd257600080fd5b505081359360208301359350604090920135919050565b600060208284031215612ffb57600080fd5b8151612e4f81612edb565b80516001600160701b038116811461301d57600080fd5b919050565b60008060006060848603121561303757600080fd5b61304084613006565b925061304e60208501613006565b9150604084015163ffffffff8116811461306757600080fd5b809150509250925092565b60006020828403121561308457600080fd5b5051919050565b634e487b7160e01b600052601160045260246000fd5b80820180821115612daa57612daa61308b565b6000602082840312156130c657600080fd5b81518015158114612e4f57600080fd5b6020808252600e908201526d105c1c1c9bdd994819985a5b195960921b604082015260600190565b8082028115828204841417612daa57612daa61308b565b6001600160a01b039687168152602081019590955260408501939093526060840191909152909216608082015260a081019190915260c00190565b60008060006060848603121561316557600080fd5b5050815160208301516040909301519094929350919050565b60005b83811015613199578181015183820152602001613181565b50506000910152565b60208152600082518060208401526131c181604085016020870161317e565b601f01601f19169190910160400192915050565b634e487b7160e01b600052604160045260246000fd5b634e487b7160e01b600052603260045260246000fd5b805169ffffffffffffffffffff8116811461301d57600080fd5b600080600080600060a0868803121561323357600080fd5b61323c86613201565b6020870151604088015160608901519297509095509350915061326160808701613201565b90509295509295909350565b60006020828403121561327f57600080fd5b815160ff81168114612e4f57600080fd5b81810381811115612daa57612daa61308b565b6000826132c057634e487b7160e01b600052601260045260246000fd5b500490565b600080604083850312156132d857600080fd5b505080516020909101519092909150565b6000600182016132fb576132fb61308b565b5060010190565b6001815b600184111561333d578085048111156133215761332161308b565b600184161561332f57908102905b60019390931c928002613306565b935093915050565b60008261335457506001612daa565b8161336157506000612daa565b816001811461337757600281146133815761339d565b6001915050612daa565b60ff8411156133925761339261308b565b50506001821b612daa565b5060208310610133831016604e8410600b84101617156133c0575081810a612daa565b6133cd6000198484613302565b80600019048211156133e1576133e161308b565b029392505050565b6000612da78383613345565b6000825161340781846020870161317e565b919091019291505056fea26469706673582212203bbd5b73640cd53afa9c47c97e0249d0651bdf178a07783e54f0408a18490e8864736f6c634300081a0033","linkReferences":{}},"methodIdentifiers":{"ALLOWED_MINIMUM_DEPOSIT()":"184a22d1","WETH()":"ad5c4648","addLiquidity(uint256)":"51c6590a","claimReward()":"b88a802f","claiming()":"0defc08a","dailyTotalHistory(uint256)":"83c73126","depositETH()":"f6326fb3","depositRewardTokens(uint256)":"16c621e0","depositStart()":"d9c146de","fetchETHUSDPrice()":"4007b929","getRewardTokenAmount(address)":"96ee8782","getTotalDailyCheckpoint(uint256)":"51f9c87c","getUserDailyCheckpoint(address,uint256)":"58cf4643","getUserDepositInfo(address,uint256)":"c0806b03","getUserDepositsArray(address)":"35dac638","getUserTotalDeposit(address)":"a4c828dc","lastCheckpointDay(address)":"29d7157e","lastRewardClaimDay(address)":"8c983567","lastTotalCheckpointDay(address)":"057e2c40","lastUpdateDay()":"50f2bc5a","listLiquidity(address)":"265900e8","listedLiquidity()":"7bfa37e1","listedTime()":"dc713a48","numDepoists(address)":"65a6cf11","owner()":"8da5cb5b","pair()":"a8aa1b31","removeLiquidity(uint256)":"9c8f9f23","renounceOwnership()":"715018a6","rewardPeriod()":"e88dc5b7","setAllowedMinimumDeposit(uint256)":"72d970a3","setClaimingContract(address)":"9ce69679","setDepositStart(uint256)":"413d5056","setRewardStates(uint256,uint256,uint256)":"d4a86a40","startDay()":"0539272a","token()":"fc0c546a","totalDeposits()":"7d882097","totalReward()":"750142e6","transferOwnership(address)":"f2fde38b","uniswapV2Factory()":"59d0f713","uniswapV2Router()":"1694505e","updateCheckpointStartDay(address)":"0d26ad9c","userDailyHistory(address,uint256)":"b935088b","userDeposits(address,uint256)":"08f43333","userLastUpdateDay(address)":"af238ba5","userTotalDeposits(address)":"9295953f"},"id":35}