{"abi":[{"type":"constructor","inputs":[{"name":"_token","type":"address","internalType":"address"}],"stateMutability":"nonpayable"},{"type":"function","name":"DENOMINATOR","inputs":[],"outputs":[{"name":"","type":"uint256","internalType":"uint256"}],"stateMutability":"view"},{"type":"function","name":"REWARD_RATE_1Q","inputs":[],"outputs":[{"name":"","type":"uint256","internalType":"uint256"}],"stateMutability":"view"},{"type":"function","name":"REWARD_RATE_2Q","inputs":[],"outputs":[{"name":"","type":"uint256","internalType":"uint256"}],"stateMutability":"view"},{"type":"function","name":"REWARD_RATE_3Q","inputs":[],"outputs":[{"name":"","type":"uint256","internalType":"uint256"}],"stateMutability":"view"},{"type":"function","name":"REWARD_RATE_4Q","inputs":[],"outputs":[{"name":"","type":"uint256","internalType":"uint256"}],"stateMutability":"view"},{"type":"function","name":"claimRewards","inputs":[{"name":"index","type":"uint256","internalType":"uint256"}],"outputs":[],"stateMutability":"nonpayable"},{"type":"function","name":"claiming","inputs":[],"outputs":[{"name":"","type":"address","internalType":"address"}],"stateMutability":"view"},{"type":"function","name":"getStakeInfo","inputs":[{"name":"staker","type":"address","internalType":"address"},{"name":"index","type":"uint256","internalType":"uint256"}],"outputs":[{"name":"","type":"uint256","internalType":"uint256"},{"name":"","type":"uint256","internalType":"uint256"},{"name":"","type":"uint256","internalType":"uint256"},{"name":"","type":"uint256","internalType":"uint256"}],"stateMutability":"view"},{"type":"function","name":"getStakeInfoArray","inputs":[{"name":"staker","type":"address","internalType":"address"}],"outputs":[{"name":"","type":"tuple[]","internalType":"struct Staking.UserStake[]","components":[{"name":"amount","type":"uint256","internalType":"uint256"},{"name":"lockOn","type":"uint256","internalType":"uint256"},{"name":"lockEnd","type":"uint256","internalType":"uint256"},{"name":"rewards","type":"uint256","internalType":"uint256"}]}],"stateMutability":"view"},{"type":"function","name":"getStakeInfoArray","inputs":[{"name":"staker","type":"address","internalType":"address"},{"name":"fromIndex","type":"uint256","internalType":"uint256"},{"name":"toIndex","type":"uint256","internalType":"uint256"}],"outputs":[{"name":"","type":"tuple[]","internalType":"struct Staking.UserStake[]","components":[{"name":"amount","type":"uint256","internalType":"uint256"},{"name":"lockOn","type":"uint256","internalType":"uint256"},{"name":"lockEnd","type":"uint256","internalType":"uint256"},{"name":"rewards","type":"uint256","internalType":"uint256"}]}],"stateMutability":"view"},{"type":"function","name":"isStaked","inputs":[{"name":"staker","type":"address","internalType":"address"},{"name":"index","type":"uint256","internalType":"uint256"}],"outputs":[{"name":"","type":"bool","internalType":"bool"}],"stateMutability":"view"},{"type":"function","name":"numStakes","inputs":[{"name":"staker","type":"address","internalType":"address"}],"outputs":[{"name":"","type":"uint256","internalType":"uint256"}],"stateMutability":"view"},{"type":"function","name":"owner","inputs":[],"outputs":[{"name":"","type":"address","internalType":"address"}],"stateMutability":"view"},{"type":"function","name":"recoverERC20","inputs":[{"name":"_token","type":"address","internalType":"address"},{"name":"amount","type":"uint256","internalType":"uint256"}],"outputs":[],"stateMutability":"nonpayable"},{"type":"function","name":"renounceOwnership","inputs":[],"outputs":[],"stateMutability":"nonpayable"},{"type":"function","name":"rewardAmount","inputs":[],"outputs":[{"name":"","type":"uint256","internalType":"uint256"}],"stateMutability":"view"},{"type":"function","name":"rewardLimit","inputs":[],"outputs":[{"name":"","type":"uint256","internalType":"uint256"}],"stateMutability":"view"},{"type":"function","name":"setClaimingContract","inputs":[{"name":"_claiming","type":"address","internalType":"address"}],"outputs":[],"stateMutability":"nonpayable"},{"type":"function","name":"setRewardLimit","inputs":[{"name":"_rewardLimit","type":"uint256","internalType":"uint256"}],"outputs":[],"stateMutability":"nonpayable"},{"type":"function","name":"setStakingEnabled","inputs":[],"outputs":[],"stateMutability":"nonpayable"},{"type":"function","name":"stake","inputs":[{"name":"amount","type":"uint256","internalType":"uint256"},{"name":"durationInMonths","type":"uint256","internalType":"uint256"}],"outputs":[],"stateMutability":"nonpayable"},{"type":"function","name":"stakeFromClaiming","inputs":[{"name":"staker","type":"address","internalType":"address"},{"name":"amount","type":"uint256","internalType":"uint256"},{"name":"durationInMonths","type":"uint256","internalType":"uint256"}],"outputs":[],"stateMutability":"nonpayable"},{"type":"function","name":"stakingEnabled","inputs":[],"outputs":[{"name":"","type":"bool","internalType":"bool"}],"stateMutability":"view"},{"type":"function","name":"token","inputs":[],"outputs":[{"name":"","type":"address","internalType":"contract IERC20"}],"stateMutability":"view"},{"type":"function","name":"totalSupply","inputs":[],"outputs":[{"name":"","type":"uint256","internalType":"uint256"}],"stateMutability":"view"},{"type":"function","name":"transferOwnership","inputs":[{"name":"newOwner","type":"address","internalType":"address"}],"outputs":[],"stateMutability":"nonpayable"},{"type":"function","name":"withdraw","inputs":[{"name":"index","type":"uint256","internalType":"uint256"}],"outputs":[],"stateMutability":"nonpayable"},{"type":"function","name":"withdrawAll","inputs":[{"name":"onlyClaimable","type":"bool","internalType":"bool"}],"outputs":[],"stateMutability":"nonpayable"},{"type":"function","name":"withdrawBatch","inputs":[{"name":"fromIndex","type":"uint256","internalType":"uint256"},{"name":"toIndex","type":"uint256","internalType":"uint256"},{"name":"onlyClaimable","type":"bool","internalType":"bool"}],"outputs":[],"stateMutability":"nonpayable"},{"type":"event","name":"Claimed","inputs":[{"name":"user","type":"address","indexed":true,"internalType":"address"},{"name":"amount","type":"uint256","indexed":false,"internalType":"uint256"},{"name":"time","type":"uint256","indexed":false,"internalType":"uint256"}],"anonymous":false},{"type":"event","name":"ClaimingContractAddressUpdated","inputs":[{"name":"user","type":"address","indexed":true,"internalType":"address"},{"name":"claiming","type":"address","indexed":false,"internalType":"address"},{"name":"time","type":"uint256","indexed":false,"internalType":"uint256"}],"anonymous":false},{"type":"event","name":"OwnershipTransferred","inputs":[{"name":"previousOwner","type":"address","indexed":true,"internalType":"address"},{"name":"newOwner","type":"address","indexed":true,"internalType":"address"}],"anonymous":false},{"type":"event","name":"Recovered","inputs":[{"name":"sender","type":"address","indexed":true,"internalType":"address"},{"name":"token","type":"address","indexed":false,"internalType":"address"},{"name":"amount","type":"uint256","indexed":false,"internalType":"uint256"}],"anonymous":false},{"type":"event","name":"RewardLimitUpdated","inputs":[{"name":"user","type":"address","indexed":true,"internalType":"address"},{"name":"amount","type":"uint256","indexed":false,"internalType":"uint256"},{"name":"time","type":"uint256","indexed":false,"internalType":"uint256"}],"anonymous":false},{"type":"event","name":"Staked","inputs":[{"name":"user","type":"address","indexed":true,"internalType":"address"},{"name":"amount","type":"uint256","indexed":false,"internalType":"uint256"},{"name":"time","type":"uint256","indexed":false,"internalType":"uint256"}],"anonymous":false},{"type":"event","name":"StakedDirectly","inputs":[{"name":"user","type":"address","indexed":true,"internalType":"address"},{"name":"amount","type":"uint256","indexed":false,"internalType":"uint256"},{"name":"time","type":"uint256","indexed":false,"internalType":"uint256"}],"anonymous":false},{"type":"event","name":"StakingEnabled","inputs":[{"name":"user","type":"address","indexed":true,"internalType":"address"},{"name":"time","type":"uint256","indexed":false,"internalType":"uint256"}],"anonymous":false},{"type":"event","name":"Withdrawed","inputs":[{"name":"user","type":"address","indexed":true,"internalType":"address"},{"name":"amount","type":"uint256","indexed":false,"internalType":"uint256"},{"name":"time","type":"uint256","indexed":false,"internalType":"uint256"}],"anonymous":false},{"type":"error","name":"AddressEmptyCode","inputs":[{"name":"target","type":"address","internalType":"address"}]},{"type":"error","name":"FailedCall","inputs":[]},{"type":"error","name":"InsufficientBalance","inputs":[{"name":"balance","type":"uint256","internalType":"uint256"},{"name":"needed","type":"uint256","internalType":"uint256"}]},{"type":"error","name":"OwnableInvalidOwner","inputs":[{"name":"owner","type":"address","internalType":"address"}]},{"type":"error","name":"OwnableUnauthorizedAccount","inputs":[{"name":"account","type":"address","internalType":"address"}]},{"type":"error","name":"SafeERC20FailedOperation","inputs":[{"name":"token","type":"address","internalType":"address"}]}],"bytecode":{"object":"0x60806040526103e86007556109c4600855610dac600955611388600a55612710600b5534801561002e57600080fd5b50604051611da1380380611da183398101604081905261004d916100f2565b338061007357604051631e4fbdf760e01b81526000600482015260240160405180910390fd5b61007c816100a2565b50600180546001600160a01b0319166001600160a01b0392909216919091179055610122565b600080546001600160a01b038381166001600160a01b0319831681178455604051919092169283917f8be0079c531659141344cd1fd0a4f28419497f9722a3daafe3b4186f6b6457e09190a35050565b60006020828403121561010457600080fd5b81516001600160a01b038116811461011b57600080fd5b9392505050565b611c70806101316000396000f3fe608060405234801561001057600080fd5b50600436106101cf5760003560e01c80637019e761116101045780639ce69679116100a2578063d167d45411610071578063d167d454146103cb578063f2fde38b146103de578063f7b2a7be146103f1578063fc0c546a146103fa57600080fd5b80639ce696791461039e578063c3dc6607146103b1578063c4b1363e146103ba578063c7a2d424146103c357600080fd5b80637eaf0783116100de5780637eaf0783146103515780638980f11f146103715780638da5cb5b14610384578063918f86741461039557600080fd5b80637019e76114610323578063715018a6146103365780637b0472f01461033e57600080fd5b80633467e9e1116101715780635d154ba71161014b5780635d154ba7146102eb578063620baf79146102fe57806365e73dac146103075780636de8f6f61461031a57600080fd5b80633467e9e11461027c5780633b521efe146102a55780635451da1b146102d857600080fd5b80631c1c6fe5116101ad5780631c1c6fe5146102305780631cfff51b14610243578063280b5933146102605780632e1a7d4d1461026957600080fd5b80630962ef79146101d45780630defc08a146101e957806318160ddd14610219575b600080fd5b6101e76101e2366004611939565b61040d565b005b6002546101fc906001600160a01b031681565b6040516001600160a01b0390911681526020015b60405180910390f35b61022260035481565b604051908152602001610210565b6101e761023e366004611960565b6105c9565b6004546102509060ff1681565b6040519015158152602001610210565b61022260095481565b6101e7610277366004611939565b61065f565b61022261028a366004611999565b6001600160a01b03166000908152600c602052604090205490565b6102b86102b33660046119b4565b6106e4565b604080519485526020850193909352918301526060820152608001610210565b6102506102e63660046119b4565b61077e565b6101e76102f9366004611939565b6107fe565b61022260085481565b6101e76103153660046119de565b610849565b61022260075481565b6101e7610331366004611a11565b610aa0565b6101e7610bd2565b6101e761034c366004611a4a565b610be6565b61036461035f366004611999565b610e1d565b6040516102109190611a6c565b6101e761037f3660046119b4565b610f5f565b6000546001600160a01b03166101fc565b610222600b5481565b6101e76103ac366004611999565b61103d565b610222600a5481565b61022260055481565b6101e7611104565b6103646103d93660046119de565b6111aa565b6101e76103ec366004611999565b6113d2565b61022260065481565b6001546101fc906001600160a01b031681565b336000908152600c6020526040902054811061046b5760405162461bcd60e51b8152602060048201526018602482015277496e76616c696420696e646578206f66207374616b696e6760401b60448201526064015b60405180910390fd5b610475338261077e565b156104d75760405162461bcd60e51b815260206004820152602c60248201527f43616e6e6f7420636c61696d2072657761726473206265666f7265206c6f636b60448201526b34b7339034b99037bb32b91760a11b6064820152608401610462565b336000908152600c602052604081208054839081106104f8576104f8611ad5565b9060005260206000209060040201905060008160030154116105685760405162461bcd60e51b815260206004820152602360248201527f5468657265206973206e6f20636c61696d61626c652072657761726420746f6b60448201526232b71760e91b6064820152608401610462565b600381018054600090915560015461058a906001600160a01b03163383611410565b6040805182815242602082015233917f987d620f307ff6b94d58743cb7a7509f24071586a77759b77c2d4e29f75a2f9a910160405180910390a2505050565b60045460ff166105eb5760405162461bcd60e51b815260040161046290611aeb565b336000908152600c6020526040902054806106445760405162461bcd60e51b8152602060048201526019602482015278596f75206469646e2774207374616b6520616e797468696e6760381b6044820152606401610462565b61065b336000610655600185611b38565b85611474565b5050565b60045460ff166106815760405162461bcd60e51b815260040161046290611aeb565b336000908152600c602052604090205481106106da5760405162461bcd60e51b8152602060048201526018602482015277496e76616c696420696e646578206f66207374616b696e6760401b6044820152606401610462565b61065b33826114f9565b6001600160a01b0382166000908152600c602052604081205481908190819085106107215760405162461bcd60e51b815260040161046290611b4b565b6001600160a01b0386166000908152600c6020526040812080548790811061074b5761074b611ad5565b60009182526020909120600490910201805460018201546002830154600390930154919a90995091975095509350505050565b6001600160a01b0382166000908152600c602052604081205482106107b55760405162461bcd60e51b815260040161046290611b4b565b6001600160a01b0383166000908152600c602052604090208054429190849081106107e2576107e2611ad5565b9060005260206000209060040201600201541190505b92915050565b610806611670565b60058190556040805182815242602082015233917fa50e35681cae4b8ae788081b1056f72ae425fce429e4eba1e3472f33d19f5d7091015b60405180910390a250565b6002546001600160a01b031633146108b95760405162461bcd60e51b815260206004820152602d60248201527f4f6e6c7920636c61696d696e6720636f6e74726163742063616e2063616c6c2060448201526c3a3434b990333ab731ba34b7b760991b6064820152608401610462565b80600314806108c85750806006145b806108d35750806009145b806108de575080600c145b61092a5760405162461bcd60e51b815260206004820152601d60248201527f496e76616c6964206475726174696f6e20666f72207374616b696e672e0000006044820152606401610462565b600154610942906001600160a01b031633308561169d565b600061094e83836116d6565b905080600660008282546109629190611b8c565b909155505060055460065411156109b65760405162461bcd60e51b815260206004820152601860248201527713dd995c999b1bddc81bd9881c995dd85c99081b1a5b5a5d60421b6044820152606401610462565b60006109c58362278d00611b9f565b6109cf9042611b8c565b6001600160a01b0386166000908152600c602090815260408083208151608081018352898152428185019081529281018681526060820189815283546001818101865594885295872092516004909602909201948555925191840191909155905160028301555160039182015580549293508692909190610a51908490611b8c565b9091555050604080518581524260208201526001600160a01b038716917fd3b90ff6341f54b26bbd8a316ae6c9ce50e2639e278d6820a1dd33ad5c8b4eef910160405180910390a25050505050565b60045460ff16610ac25760405162461bcd60e51b815260040161046290611aeb565b336000908152600c602052604090205480610b1b5760405162461bcd60e51b8152602060048201526019602482015278596f75206469646e2774207374616b6520616e797468696e6760381b6044820152606401610462565b82841115610b5e5760405162461bcd60e51b815260206004820152601060248201526f24b73b30b634b21034b73232bc32b99760811b6044820152606401610462565b808310610bc05760405162461bcd60e51b815260206004820152602a60248201527f496e6465782063616e6e6f74206265206f76657220746865206c656e677468206044820152696f66207374616b696e6760b01b6064820152608401610462565b610bcc33858585611474565b50505050565b610bda611670565b610be4600061177f565b565b60045460ff16610c085760405162461bcd60e51b815260040161046290611aeb565b60008211610c495760405162461bcd60e51b815260206004820152600e60248201526d063616e6e6f74207374616b6520360941b6044820152606401610462565b8060031480610c585750806006145b80610c635750806009145b80610c6e575080600c145b610cba5760405162461bcd60e51b815260206004820152601d60248201527f496e76616c6964206475726174696f6e20666f72207374616b696e672e0000006044820152606401610462565b600154610cd2906001600160a01b031633308561169d565b6000610cde83836116d6565b90508060066000828254610cf29190611b8c565b90915550506005546006541115610d465760405162461bcd60e51b815260206004820152601860248201527713dd995c999b1bddc81bd9881c995dd85c99081b1a5b5a5d60421b6044820152606401610462565b6000610d558362278d00611b9f565b610d5f9042611b8c565b336000908152600c602090815260408083208151608081018352898152428185019081529281018681526060820189815283546001818101865594885295872092516004909602909201948555925191840191909155905160028301555160039182015580549293508692909190610dd8908490611b8c565b90915550506040805185815242602082015233917f1449c6dd7851abc30abf37f57715f492010519147cc2652fbc38202c18a6ee90910160405180910390a250505050565b60606000610e40836001600160a01b03166000908152600c602052604090205490565b905060008167ffffffffffffffff811115610e5d57610e5d611bb6565b604051908082528060200260200182016040528015610eb957816020015b610ea66040518060800160405280600081526020016000815260200160008152602001600081525090565b815260200190600190039081610e7b5790505b50905060005b82811015610f57576001600160a01b0385166000908152600c60205260409020805482908110610ef157610ef1611ad5565b9060005260206000209060040201604051806080016040529081600082015481526020016001820154815260200160028201548152602001600382015481525050828281518110610f4457610f44611ad5565b6020908102919091010152600101610ebf565b509392505050565b610f67611670565b6001546001600160a01b0390811690831603610fcf5760405162461bcd60e51b815260206004820152602160248201527f63616e6e6f7420776974686472617720746865207374616b696e6720746f6b656044820152603760f91b6064820152608401610462565b610ff5610fe46000546001600160a01b031690565b6001600160a01b0384169083611410565b604080516001600160a01b03841681526020810183905233917ffff3b3844276f57024e0b42afec1a37f75db36511e43819a4f2a63ab7862b648910160405180910390a25050565b611045611670565b6001600160a01b0381166110af5760405162461bcd60e51b815260206004820152602b60248201527f52657761726420746f6b656e20616464726573732063616e6e6f74206265207a60448201526a65726f206164647265737360a81b6064820152608401610462565b600280546001600160a01b0319166001600160a01b0383169081179091556040805191825242602083015233917f756385748ba24e5ab4d1643f22cd0ae4c173b02757457d36eb25c592aea6cd7b910161083e565b61110c611670565b60045460ff161561115f5760405162461bcd60e51b815260206004820152601a60248201527f5374616b696e6720697320616c726561647920656e61626c65640000000000006044820152606401610462565b6004805460ff1916600117905560405133907f2ac159333fdcef5590752fd625ad245ca4023d2f7017ec97964527723a24f77d906111a09042815260200190565b60405180910390a2565b6060828210156111fc5760405162461bcd60e51b815260206004820152601860248201527f496e76616c6964206f72646572206f6620696e646578657300000000000000006044820152606401610462565b6001600160a01b0384166000908152600c6020526040902054808410611279576040805160008082526020820190925290611270565b61125d6040518060800160405280600081526020016000815260200160008152602001600081525090565b8152602001906001900390816112325790505b509150506113cb565b808310156112875782611292565b611292600182611b38565b925060006112a08585611b38565b6112ab906001611b8c565b67ffffffffffffffff8111156112c3576112c3611bb6565b60405190808252806020026020018201604052801561131f57816020015b61130c6040518060800160405280600081526020016000815260200160008152602001600081525090565b8152602001906001900390816112e15790505b509050845b8481116113c6576001600160a01b0387166000908152600c6020526040902080548290811061135557611355611ad5565b90600052602060002090600402016040518060800160405290816000820154815260200160018201548152602001600282015481526020016003820154815250508287836113a39190611b38565b815181106113b3576113b3611ad5565b6020908102919091010152600101611324565b509150505b9392505050565b6113da611670565b6001600160a01b03811661140457604051631e4fbdf760e01b815260006004820152602401610462565b61140d8161177f565b50565b6040516001600160a01b0383811660248301526044820183905261146f91859182169063a9059cbb906064015b604051602081830303815290604052915060e01b6020820180516001600160e01b0383818316178352505050506117cf565b505050565b825b8281116114f25781801561148f575061148f858261077e565b1561149c57600101611476565b6001600160a01b0385166000908152600c602052604081208054839081106114c6576114c6611ad5565b90600052602060002090600402016000015411156114ea576114e885826114f9565b505b600101611476565b5050505050565b6001600160a01b0382166000908152600c6020526040812080548291908490811061152657611526611ad5565b90600052602060002090600402019050600081600001541161158a5760405162461bcd60e51b815260206004820152601860248201527f5468657265206973206e6f207374616b656420746f6b656e00000000000000006044820152606401610462565b80600201544210156115f05760405162461bcd60e51b815260206004820152602960248201527f556e61626c6520746f207769746864726177206265666f7265206c6f636b696e604482015268339034b99037bb32b960b91b6064820152608401610462565b8054600080835560038054839290611609908490611b38565b9091555050600154611625906001600160a01b03168683611410565b604080518281524260208201526001600160a01b038716917f4cdcd27ae88503b2d4d3034a348b78aec00eca6369f48e5002ca3df8686b9b3e910160405180910390a2949350505050565b6000546001600160a01b03163314610be45760405163118cdaa760e01b8152336004820152602401610462565b6040516001600160a01b038481166024830152838116604483015260648201839052610bcc9186918216906323b872dd9060840161143d565b60006003821161171857600b546116ee90600c611b9f565b82600754856116fd9190611b9f565b6117079190611b9f565b6117119190611bcc565b90506107f8565b6006821161173d57600b5461172e90600c611b9f565b82600854856116fd9190611b9f565b6009821161176257600b5461175390600c611b9f565b82600954856116fd9190611b9f565b600b5461177090600c611b9f565b82600a54856116fd9190611b9f565b600080546001600160a01b038381166001600160a01b0319831681178455604051919092169283917f8be0079c531659141344cd1fd0a4f28419497f9722a3daafe3b4186f6b6457e09190a35050565b60006117e46001600160a01b03841683611832565b905080516000141580156118095750808060200190518101906118079190611bee565b155b1561146f57604051635274afe760e01b81526001600160a01b0384166004820152602401610462565b60606113cb8383600084600080856001600160a01b031684866040516118589190611c0b565b60006040518083038185875af1925050503d8060008114611895576040519150601f19603f3d011682016040523d82523d6000602084013e61189a565b606091505b50915091506118aa8683836118b4565b9695505050505050565b6060826118c9576118c482611910565b6113cb565b81511580156118e057506001600160a01b0384163b155b1561190957604051639996b31560e01b81526001600160a01b0385166004820152602401610462565b50806113cb565b8051156119205780518082602001fd5b60405163d6bda27560e01b815260040160405180910390fd5b60006020828403121561194b57600080fd5b5035919050565b801515811461140d57600080fd5b60006020828403121561197257600080fd5b81356113cb81611952565b80356001600160a01b038116811461199457600080fd5b919050565b6000602082840312156119ab57600080fd5b6113cb8261197d565b600080604083850312156119c757600080fd5b6119d08361197d565b946020939093013593505050565b6000806000606084860312156119f357600080fd5b6119fc8461197d565b95602085013595506040909401359392505050565b600080600060608486031215611a2657600080fd5b83359250602084013591506040840135611a3f81611952565b809150509250925092565b60008060408385031215611a5d57600080fd5b50508035926020909101359150565b602080825282518282018190526000918401906040840190835b81811015611aca5783518051845260208101516020850152604081015160408501526060810151606085015250608083019250602084019350600181019050611a86565b509095945050505050565b634e487b7160e01b600052603260045260246000fd5b60208082526017908201527f5374616b696e67206973206e6f7420656e61626c65642e000000000000000000604082015260600190565b634e487b7160e01b600052601160045260246000fd5b818103818111156107f8576107f8611b22565b60208082526021908201527f496e76616c696420696e64657820666f72207374616b6564207265636f7264736040820152601760f91b606082015260800190565b808201808211156107f8576107f8611b22565b80820281158282048414176107f8576107f8611b22565b634e487b7160e01b600052604160045260246000fd5b600082611be957634e487b7160e01b600052601260045260246000fd5b500490565b600060208284031215611c0057600080fd5b81516113cb81611952565b6000825160005b81811015611c2c5760208186018101518583015201611c12565b50600092019182525091905056fea2646970667358221220e61a847ebece0f4b97423d742efee4a2ec62fe751a29562991a7301d7820964364736f6c634300081a0033","linkReferences":{}},"methodIdentifiers":{"DENOMINATOR()":"918f8674","REWARD_RATE_1Q()":"6de8f6f6","REWARD_RATE_2Q()":"620baf79","REWARD_RATE_3Q()":"280b5933","REWARD_RATE_4Q()":"c3dc6607","claimRewards(uint256)":"0962ef79","claiming()":"0defc08a","getStakeInfo(address,uint256)":"3b521efe","getStakeInfoArray(address)":"7eaf0783","getStakeInfoArray(address,uint256,uint256)":"d167d454","isStaked(address,uint256)":"5451da1b","numStakes(address)":"3467e9e1","owner()":"8da5cb5b","recoverERC20(address,uint256)":"8980f11f","renounceOwnership()":"715018a6","rewardAmount()":"f7b2a7be","rewardLimit()":"c4b1363e","setClaimingContract(address)":"9ce69679","setRewardLimit(uint256)":"5d154ba7","setStakingEnabled()":"c7a2d424","stake(uint256,uint256)":"7b0472f0","stakeFromClaiming(address,uint256,uint256)":"65e73dac","stakingEnabled()":"1cfff51b","token()":"fc0c546a","totalSupply()":"18160ddd","transferOwnership(address)":"f2fde38b","withdraw(uint256)":"2e1a7d4d","withdrawAll(bool)":"1c1c6fe5","withdrawBatch(uint256,uint256,bool)":"7019e761"},"id":36}