{"abi":[{"type":"constructor","inputs":[{"name":"_token","type":"address","internalType":"address"}],"stateMutability":"nonpayable"},{"type":"function","name":"DENOMINATOR","inputs":[],"outputs":[{"name":"","type":"uint256","internalType":"uint256"}],"stateMutability":"view"},{"type":"function","name":"REWARD_RATE_1Q","inputs":[],"outputs":[{"name":"","type":"uint256","internalType":"uint256"}],"stateMutability":"view"},{"type":"function","name":"REWARD_RATE_2Q","inputs":[],"outputs":[{"name":"","type":"uint256","internalType":"uint256"}],"stateMutability":"view"},{"type":"function","name":"REWARD_RATE_3Q","inputs":[],"outputs":[{"name":"","type":"uint256","internalType":"uint256"}],"stateMutability":"view"},{"type":"function","name":"REWARD_RATE_4Q","inputs":[],"outputs":[{"name":"","type":"uint256","internalType":"uint256"}],"stateMutability":"view"},{"type":"function","name":"claimRewards","inputs":[{"name":"index","type":"uint256","internalType":"uint256"}],"outputs":[],"stateMutability":"nonpayable"},{"type":"function","name":"claiming","inputs":[],"outputs":[{"name":"","type":"address","internalType":"address"}],"stateMutability":"view"},{"type":"function","name":"getStakeInfo","inputs":[{"name":"staker","type":"address","internalType":"address"},{"name":"index","type":"uint256","internalType":"uint256"}],"outputs":[{"name":"","type":"uint256","internalType":"uint256"},{"name":"","type":"uint256","internalType":"uint256"},{"name":"","type":"uint256","internalType":"uint256"},{"name":"","type":"uint256","internalType":"uint256"}],"stateMutability":"view"},{"type":"function","name":"getStakeInfoArray","inputs":[{"name":"staker","type":"address","internalType":"address"}],"outputs":[{"name":"","type":"tuple[]","internalType":"struct Staking.UserStake[]","components":[{"name":"amount","type":"uint256","internalType":"uint256"},{"name":"lockOn","type":"uint256","internalType":"uint256"},{"name":"lockEnd","type":"uint256","internalType":"uint256"},{"name":"rewards","type":"uint256","internalType":"uint256"}]}],"stateMutability":"view"},{"type":"function","name":"getStakeInfoArray","inputs":[{"name":"staker","type":"address","internalType":"address"},{"name":"fromIndex","type":"uint256","internalType":"uint256"},{"name":"toIndex","type":"uint256","internalType":"uint256"}],"outputs":[{"name":"","type":"tuple[]","internalType":"struct Staking.UserStake[]","components":[{"name":"amount","type":"uint256","internalType":"uint256"},{"name":"lockOn","type":"uint256","internalType":"uint256"},{"name":"lockEnd","type":"uint256","internalType":"uint256"},{"name":"rewards","type":"uint256","internalType":"uint256"}]}],"stateMutability":"view"},{"type":"function","name":"isStaked","inputs":[{"name":"staker","type":"address","internalType":"address"},{"name":"index","type":"uint256","internalType":"uint256"}],"outputs":[{"name":"","type":"bool","internalType":"bool"}],"stateMutability":"view"},{"type":"function","name":"numStakes","inputs":[{"name":"staker","type":"address","internalType":"address"}],"outputs":[{"name":"","type":"uint256","internalType":"uint256"}],"stateMutability":"view"},{"type":"function","name":"owner","inputs":[],"outputs":[{"name":"","type":"address","internalType":"address"}],"stateMutability":"view"},{"type":"function","name":"recoverERC20","inputs":[{"name":"_token","type":"address","internalType":"address"},{"name":"amount","type":"uint256","internalType":"uint256"}],"outputs":[],"stateMutability":"nonpayable"},{"type":"function","name":"renounceOwnership","inputs":[],"outputs":[],"stateMutability":"nonpayable"},{"type":"function","name":"setClaimingContract","inputs":[{"name":"_claiming","type":"address","internalType":"address"}],"outputs":[],"stateMutability":"nonpayable"},{"type":"function","name":"setStakingEnabled","inputs":[],"outputs":[],"stateMutability":"nonpayable"},{"type":"function","name":"setToken","inputs":[{"name":"_token","type":"address","internalType":"address"}],"outputs":[],"stateMutability":"nonpayable"},{"type":"function","name":"stake","inputs":[{"name":"amount","type":"uint256","internalType":"uint256"},{"name":"durationInMonths","type":"uint256","internalType":"uint256"}],"outputs":[],"stateMutability":"nonpayable"},{"type":"function","name":"stakeFromClaiming","inputs":[{"name":"staker","type":"address","internalType":"address"},{"name":"amount","type":"uint256","internalType":"uint256"},{"name":"durationInMonths","type":"uint256","internalType":"uint256"}],"outputs":[],"stateMutability":"nonpayable"},{"type":"function","name":"stakingEnabled","inputs":[],"outputs":[{"name":"","type":"bool","internalType":"bool"}],"stateMutability":"view"},{"type":"function","name":"token","inputs":[],"outputs":[{"name":"","type":"address","internalType":"contract IERC20"}],"stateMutability":"view"},{"type":"function","name":"totalSupply","inputs":[],"outputs":[{"name":"","type":"uint256","internalType":"uint256"}],"stateMutability":"view"},{"type":"function","name":"transferOwnership","inputs":[{"name":"newOwner","type":"address","internalType":"address"}],"outputs":[],"stateMutability":"nonpayable"},{"type":"function","name":"withdraw","inputs":[{"name":"index","type":"uint256","internalType":"uint256"}],"outputs":[],"stateMutability":"nonpayable"},{"type":"function","name":"withdrawAll","inputs":[{"name":"onlyClaimable","type":"bool","internalType":"bool"}],"outputs":[],"stateMutability":"nonpayable"},{"type":"function","name":"withdrawBatch","inputs":[{"name":"fromIndex","type":"uint256","internalType":"uint256"},{"name":"toIndex","type":"uint256","internalType":"uint256"},{"name":"onlyClaimable","type":"bool","internalType":"bool"}],"outputs":[],"stateMutability":"nonpayable"},{"type":"event","name":"Claimed","inputs":[{"name":"user","type":"address","indexed":true,"internalType":"address"},{"name":"amount","type":"uint256","indexed":false,"internalType":"uint256"},{"name":"time","type":"uint256","indexed":false,"internalType":"uint256"}],"anonymous":false},{"type":"event","name":"OwnershipTransferred","inputs":[{"name":"previousOwner","type":"address","indexed":true,"internalType":"address"},{"name":"newOwner","type":"address","indexed":true,"internalType":"address"}],"anonymous":false},{"type":"event","name":"Recovered","inputs":[{"name":"sender","type":"address","indexed":true,"internalType":"address"},{"name":"token","type":"address","indexed":false,"internalType":"address"},{"name":"amount","type":"uint256","indexed":false,"internalType":"uint256"}],"anonymous":false},{"type":"event","name":"Staked","inputs":[{"name":"user","type":"address","indexed":true,"internalType":"address"},{"name":"amount","type":"uint256","indexed":false,"internalType":"uint256"},{"name":"time","type":"uint256","indexed":false,"internalType":"uint256"}],"anonymous":false},{"type":"event","name":"StakedDirectly","inputs":[{"name":"user","type":"address","indexed":true,"internalType":"address"},{"name":"amount","type":"uint256","indexed":false,"internalType":"uint256"},{"name":"time","type":"uint256","indexed":false,"internalType":"uint256"}],"anonymous":false},{"type":"event","name":"Withdrawed","inputs":[{"name":"user","type":"address","indexed":true,"internalType":"address"},{"name":"amount","type":"uint256","indexed":false,"internalType":"uint256"},{"name":"time","type":"uint256","indexed":false,"internalType":"uint256"}],"anonymous":false},{"type":"error","name":"AddressEmptyCode","inputs":[{"name":"target","type":"address","internalType":"address"}]},{"type":"error","name":"FailedCall","inputs":[]},{"type":"error","name":"InsufficientBalance","inputs":[{"name":"balance","type":"uint256","internalType":"uint256"},{"name":"needed","type":"uint256","internalType":"uint256"}]},{"type":"error","name":"OwnableInvalidOwner","inputs":[{"name":"owner","type":"address","internalType":"address"}]},{"type":"error","name":"OwnableUnauthorizedAccount","inputs":[{"name":"account","type":"address","internalType":"address"}]},{"type":"error","name":"SafeERC20FailedOperation","inputs":[{"name":"token","type":"address","internalType":"address"}]}],"bytecode":{"object":"0x60806040526103e86005556109c4600655610dac60075561138860085561271060095534801561002e57600080fd5b50604051611c1e380380611c1e83398101604081905261004d916100f2565b338061007357604051631e4fbdf760e01b81526000600482015260240160405180910390fd5b61007c816100a2565b50600180546001600160a01b0319166001600160a01b0392909216919091179055610122565b600080546001600160a01b038381166001600160a01b0319831681178455604051919092169283917f8be0079c531659141344cd1fd0a4f28419497f9722a3daafe3b4186f6b6457e09190a35050565b60006020828403121561010457600080fd5b81516001600160a01b038116811461011b57600080fd5b9392505050565b611aed806101316000396000f3fe608060405234801561001057600080fd5b50600436106101a95760003560e01c80636de8f6f6116100f9578063918f867411610097578063c7a2d42411610071578063c7a2d42414610394578063d167d4541461039c578063f2fde38b146103af578063fc0c546a146103c257600080fd5b8063918f86741461036f5780639ce6967914610378578063c3dc66071461038b57600080fd5b80637b0472f0116100d35780637b0472f0146103185780637eaf07831461032b5780638980f11f1461034b5780638da5cb5b1461035e57600080fd5b80636de8f6f6146102f45780637019e761146102fd578063715018a61461031057600080fd5b8063280b5933116101665780633b521efe116101405780633b521efe146102925780635451da1b146102c5578063620baf79146102d857806365e73dac146102e157600080fd5b8063280b59331461024d5780632e1a7d4d146102565780633467e9e11461026957600080fd5b80630962ef79146101ae5780630defc08a146101c3578063144fa6d7146101f357806318160ddd146102065780631c1c6fe51461021d5780631cfff51b14610230575b600080fd5b6101c16101bc3660046117b6565b6103d5565b005b6002546101d6906001600160a01b031681565b6040516001600160a01b0390911681526020015b60405180910390f35b6101c16102013660046117eb565b610591565b61020f60035481565b6040519081526020016101ea565b6101c161022b366004611814565b610624565b60045461023d9060ff1681565b60405190151581526020016101ea565b61020f60075481565b6101c16102643660046117b6565b6106ba565b61020f6102773660046117eb565b6001600160a01b03166000908152600a602052604090205490565b6102a56102a0366004611831565b610783565b6040805194855260208501939093529183015260608201526080016101ea565b61023d6102d3366004611831565b61081d565b61020f60065481565b6101c16102ef36600461185b565b61089d565b61020f60055481565b6101c161030b36600461188e565b610a8e565b6101c1610bc0565b6101c16103263660046118c7565b610bd4565b61033e6103393660046117eb565b610da5565b6040516101ea91906118e9565b6101c1610359366004611831565b610ee7565b6000546001600160a01b03166101d6565b61020f60095481565b6101c16103863660046117eb565b610fbe565b61020f60085481565b6101c1611052565b61033e6103aa36600461185b565b6110bc565b6101c16103bd3660046117eb565b6112e4565b6001546101d6906001600160a01b031681565b336000908152600a602052604090205481106104335760405162461bcd60e51b8152602060048201526018602482015277496e76616c696420696e646578206f66207374616b696e6760401b60448201526064015b60405180910390fd5b61043d338261081d565b1561049f5760405162461bcd60e51b815260206004820152602c60248201527f43616e6e6f7420636c61696d2072657761726473206265666f7265206c6f636b60448201526b34b7339034b99037bb32b91760a11b606482015260840161042a565b336000908152600a602052604081208054839081106104c0576104c0611952565b9060005260206000209060040201905060008160030154116105305760405162461bcd60e51b815260206004820152602360248201527f5468657265206973206e6f20636c61696d61626c652072657761726420746f6b60448201526232b71760e91b606482015260840161042a565b6003810180546000909155600154610552906001600160a01b03163383611322565b6040805182815242602082015233917f987d620f307ff6b94d58743cb7a7509f24071586a77759b77c2d4e29f75a2f9a910160405180910390a2505050565b610599611386565b6001600160a01b0381166106025760405162461bcd60e51b815260206004820152602a60248201527f5374616b6520746f6b656e20616464726573732063616e6e6f74206265207a65604482015269726f206164647265737360b01b606482015260840161042a565b600180546001600160a01b0319166001600160a01b0392909216919091179055565b60045460ff166106465760405162461bcd60e51b815260040161042a90611968565b336000908152600a60205260409020548061069f5760405162461bcd60e51b8152602060048201526019602482015278596f75206469646e2774207374616b6520616e797468696e6760381b604482015260640161042a565b6106b63360006106b06001856119b5565b856113b3565b5050565b60045460ff166106dc5760405162461bcd60e51b815260040161042a90611968565b336000908152600a602052604090205481106107355760405162461bcd60e51b8152602060048201526018602482015277496e76616c696420696e646578206f66207374616b696e6760401b604482015260640161042a565b60006107413383611438565b6040805182815242602082015291925033917f4cdcd27ae88503b2d4d3034a348b78aec00eca6369f48e5002ca3df8686b9b3e91015b60405180910390a25050565b6001600160a01b0382166000908152600a602052604081205481908190819085106107c05760405162461bcd60e51b815260040161042a906119c8565b6001600160a01b0386166000908152600a602052604081208054879081106107ea576107ea611952565b60009182526020909120600490910201805460018201546002830154600390930154919a90995091975095509350505050565b6001600160a01b0382166000908152600a602052604081205482106108545760405162461bcd60e51b815260040161042a906119c8565b6001600160a01b0383166000908152600a6020526040902080544291908490811061088157610881611952565b9060005260206000209060040201600201541190505b92915050565b6002546001600160a01b0316331461090d5760405162461bcd60e51b815260206004820152602d60248201527f4f6e6c7920636c61696d696e6720636f6e74726163742063616e2063616c6c2060448201526c3a3434b990333ab731ba34b7b760991b606482015260840161042a565b806003148061091c5750806006145b806109275750806009145b80610932575080600c145b61097e5760405162461bcd60e51b815260206004820152601d60248201527f496e76616c6964206475726174696f6e20666f72207374616b696e672e000000604482015260640161042a565b600154610996906001600160a01b031633308561151a565b60006109a28383611553565b905060006109b38362278d00611a09565b6109bd9042611a20565b6001600160a01b0386166000908152600a602090815260408083208151608081018352898152428185019081529281018681526060820189815283546001818101865594885295872092516004909602909201948555925191840191909155905160028301555160039182015580549293508692909190610a3f908490611a20565b9091555050604080518581524260208201526001600160a01b038716917fd3b90ff6341f54b26bbd8a316ae6c9ce50e2639e278d6820a1dd33ad5c8b4eef910160405180910390a25050505050565b60045460ff16610ab05760405162461bcd60e51b815260040161042a90611968565b336000908152600a602052604090205480610b095760405162461bcd60e51b8152602060048201526019602482015278596f75206469646e2774207374616b6520616e797468696e6760381b604482015260640161042a565b82841115610b4c5760405162461bcd60e51b815260206004820152601060248201526f24b73b30b634b21034b73232bc32b99760811b604482015260640161042a565b808310610bae5760405162461bcd60e51b815260206004820152602a60248201527f496e6465782063616e6e6f74206265206f76657220746865206c656e677468206044820152696f66207374616b696e6760b01b606482015260840161042a565b610bba338585856113b3565b50505050565b610bc8611386565b610bd260006115fc565b565b60045460ff16610bf65760405162461bcd60e51b815260040161042a90611968565b60008211610c375760405162461bcd60e51b815260206004820152600e60248201526d063616e6e6f74207374616b6520360941b604482015260640161042a565b8060031480610c465750806006145b80610c515750806009145b80610c5c575080600c145b610ca85760405162461bcd60e51b815260206004820152601d60248201527f496e76616c6964206475726174696f6e20666f72207374616b696e672e000000604482015260640161042a565b600154610cc0906001600160a01b031633308561151a565b6000610ccc8383611553565b90506000610cdd8362278d00611a09565b610ce79042611a20565b336000908152600a602090815260408083208151608081018352898152428185019081529281018681526060820189815283546001818101865594885295872092516004909602909201948555925191840191909155905160028301555160039182015580549293508692909190610d60908490611a20565b90915550506040805185815242602082015233917f1449c6dd7851abc30abf37f57715f492010519147cc2652fbc38202c18a6ee90910160405180910390a250505050565b60606000610dc8836001600160a01b03166000908152600a602052604090205490565b905060008167ffffffffffffffff811115610de557610de5611a33565b604051908082528060200260200182016040528015610e4157816020015b610e2e6040518060800160405280600081526020016000815260200160008152602001600081525090565b815260200190600190039081610e035790505b50905060005b82811015610edf576001600160a01b0385166000908152600a60205260409020805482908110610e7957610e79611952565b9060005260206000209060040201604051806080016040529081600082015481526020016001820154815260200160028201548152602001600382015481525050828281518110610ecc57610ecc611952565b6020908102919091010152600101610e47565b509392505050565b610eef611386565b6001546001600160a01b0390811690831603610f575760405162461bcd60e51b815260206004820152602160248201527f63616e6e6f7420776974686472617720746865207374616b696e6720746f6b656044820152603760f91b606482015260840161042a565b610f7d610f6c6000546001600160a01b031690565b6001600160a01b0384169083611322565b604080516001600160a01b03841681526020810183905233917ffff3b3844276f57024e0b42afec1a37f75db36511e43819a4f2a63ab7862b6489101610777565b610fc6611386565b6001600160a01b0381166110305760405162461bcd60e51b815260206004820152602b60248201527f52657761726420746f6b656e20616464726573732063616e6e6f74206265207a60448201526a65726f206164647265737360a81b606482015260840161042a565b600280546001600160a01b0319166001600160a01b0392909216919091179055565b61105a611386565b60045460ff16156110ad5760405162461bcd60e51b815260206004820152601a60248201527f5374616b696e6720697320616c726561647920656e61626c6564000000000000604482015260640161042a565b6004805460ff19166001179055565b60608282101561110e5760405162461bcd60e51b815260206004820152601860248201527f496e76616c6964206f72646572206f6620696e64657865730000000000000000604482015260640161042a565b6001600160a01b0384166000908152600a602052604090205480841061118b576040805160008082526020820190925290611182565b61116f6040518060800160405280600081526020016000815260200160008152602001600081525090565b8152602001906001900390816111445790505b509150506112dd565b8083101561119957826111a4565b6111a46001826119b5565b925060006111b285856119b5565b6111bd906001611a20565b67ffffffffffffffff8111156111d5576111d5611a33565b60405190808252806020026020018201604052801561123157816020015b61121e6040518060800160405280600081526020016000815260200160008152602001600081525090565b8152602001906001900390816111f35790505b509050845b8481116112d8576001600160a01b0387166000908152600a6020526040902080548290811061126757611267611952565b90600052602060002090600402016040518060800160405290816000820154815260200160018201548152602001600282015481526020016003820154815250508287836112b591906119b5565b815181106112c5576112c5611952565b6020908102919091010152600101611236565b509150505b9392505050565b6112ec611386565b6001600160a01b03811661131657604051631e4fbdf760e01b81526000600482015260240161042a565b61131f816115fc565b50565b6040516001600160a01b0383811660248301526044820183905261138191859182169063a9059cbb906064015b604051602081830303815290604052915060e01b6020820180516001600160e01b03838183161783525050505061164c565b505050565b6000546001600160a01b03163314610bd25760405163118cdaa760e01b815233600482015260240161042a565b825b828111611431578180156113ce57506113ce858261081d565b156113db576001016113b5565b6001600160a01b0385166000908152600a6020526040812080548390811061140557611405611952565b9060005260206000209060040201600001541115611429576114278582611438565b505b6001016113b5565b5050505050565b6001600160a01b0382166000908152600a6020526040812080548291908490811061146557611465611952565b9060005260206000209060040201905060008160000154116114c95760405162461bcd60e51b815260206004820152601860248201527f5468657265206973206e6f207374616b656420746f6b656e0000000000000000604482015260640161042a565b80600201544210156114dd57600060038201555b80546000808355600380548392906114f69084906119b5565b9091555050600154611512906001600160a01b03168683611322565b949350505050565b6040516001600160a01b038481166024830152838116604483015260648201839052610bba9186918216906323b872dd9060840161134f565b6000600382116115955760095461156b90600c611a09565b826005548561157a9190611a09565b6115849190611a09565b61158e9190611a49565b9050610897565b600682116115ba576009546115ab90600c611a09565b826006548561157a9190611a09565b600982116115df576009546115d090600c611a09565b826007548561157a9190611a09565b6009546115ed90600c611a09565b826008548561157a9190611a09565b600080546001600160a01b038381166001600160a01b0319831681178455604051919092169283917f8be0079c531659141344cd1fd0a4f28419497f9722a3daafe3b4186f6b6457e09190a35050565b60006116616001600160a01b038416836116af565b905080516000141580156116865750808060200190518101906116849190611a6b565b155b1561138157604051635274afe760e01b81526001600160a01b038416600482015260240161042a565b60606112dd8383600084600080856001600160a01b031684866040516116d59190611a88565b60006040518083038185875af1925050503d8060008114611712576040519150601f19603f3d011682016040523d82523d6000602084013e611717565b606091505b5091509150611727868383611731565b9695505050505050565b606082611746576117418261178d565b6112dd565b815115801561175d57506001600160a01b0384163b155b1561178657604051639996b31560e01b81526001600160a01b038516600482015260240161042a565b50806112dd565b80511561179d5780518082602001fd5b60405163d6bda27560e01b815260040160405180910390fd5b6000602082840312156117c857600080fd5b5035919050565b80356001600160a01b03811681146117e657600080fd5b919050565b6000602082840312156117fd57600080fd5b6112dd826117cf565b801515811461131f57600080fd5b60006020828403121561182657600080fd5b81356112dd81611806565b6000806040838503121561184457600080fd5b61184d836117cf565b946020939093013593505050565b60008060006060848603121561187057600080fd5b611879846117cf565b95602085013595506040909401359392505050565b6000806000606084860312156118a357600080fd5b833592506020840135915060408401356118bc81611806565b809150509250925092565b600080604083850312156118da57600080fd5b50508035926020909101359150565b602080825282518282018190526000918401906040840190835b818110156119475783518051845260208101516020850152604081015160408501526060810151606085015250608083019250602084019350600181019050611903565b509095945050505050565b634e487b7160e01b600052603260045260246000fd5b60208082526017908201527f5374616b696e67206973206e6f7420656e61626c65642e000000000000000000604082015260600190565b634e487b7160e01b600052601160045260246000fd5b818103818111156108975761089761199f565b60208082526021908201527f496e76616c696420696e64657820666f72207374616b6564207265636f7264736040820152601760f91b606082015260800190565b80820281158282048414176108975761089761199f565b808201808211156108975761089761199f565b634e487b7160e01b600052604160045260246000fd5b600082611a6657634e487b7160e01b600052601260045260246000fd5b500490565b600060208284031215611a7d57600080fd5b81516112dd81611806565b6000825160005b81811015611aa95760208186018101518583015201611a8f565b50600092019182525091905056fea264697066735822122078b05d8a5702b0963ea3869e8ebed40930754248be84341bb4e4a2d9a9c2a35264736f6c634300081a0033","linkReferences":{}},"methodIdentifiers":{"DENOMINATOR()":"918f8674","REWARD_RATE_1Q()":"6de8f6f6","REWARD_RATE_2Q()":"620baf79","REWARD_RATE_3Q()":"280b5933","REWARD_RATE_4Q()":"c3dc6607","claimRewards(uint256)":"0962ef79","claiming()":"0defc08a","getStakeInfo(address,uint256)":"3b521efe","getStakeInfoArray(address)":"7eaf0783","getStakeInfoArray(address,uint256,uint256)":"d167d454","isStaked(address,uint256)":"5451da1b","numStakes(address)":"3467e9e1","owner()":"8da5cb5b","recoverERC20(address,uint256)":"8980f11f","renounceOwnership()":"715018a6","setClaimingContract(address)":"9ce69679","setStakingEnabled()":"c7a2d424","setToken(address)":"144fa6d7","stake(uint256,uint256)":"7b0472f0","stakeFromClaiming(address,uint256,uint256)":"65e73dac","stakingEnabled()":"1cfff51b","token()":"fc0c546a","totalSupply()":"18160ddd","transferOwnership(address)":"f2fde38b","withdraw(uint256)":"2e1a7d4d","withdrawAll(bool)":"1c1c6fe5","withdrawBatch(uint256,uint256,bool)":"7019e761"},"id":34}