{"abi":[{"type":"constructor","inputs":[{"name":"_token","type":"address","internalType":"address"}],"stateMutability":"nonpayable"},{"type":"function","name":"DENOMINATOR","inputs":[],"outputs":[{"name":"","type":"uint256","internalType":"uint256"}],"stateMutability":"view"},{"type":"function","name":"REWARD_RATE_1Q","inputs":[],"outputs":[{"name":"","type":"uint256","internalType":"uint256"}],"stateMutability":"view"},{"type":"function","name":"REWARD_RATE_2Q","inputs":[],"outputs":[{"name":"","type":"uint256","internalType":"uint256"}],"stateMutability":"view"},{"type":"function","name":"REWARD_RATE_3Q","inputs":[],"outputs":[{"name":"","type":"uint256","internalType":"uint256"}],"stateMutability":"view"},{"type":"function","name":"REWARD_RATE_4Q","inputs":[],"outputs":[{"name":"","type":"uint256","internalType":"uint256"}],"stateMutability":"view"},{"type":"function","name":"claimRewards","inputs":[{"name":"index","type":"uint256","internalType":"uint256"}],"outputs":[],"stateMutability":"nonpayable"},{"type":"function","name":"claiming","inputs":[],"outputs":[{"name":"","type":"address","internalType":"address"}],"stateMutability":"view"},{"type":"function","name":"getStakeInfo","inputs":[{"name":"staker","type":"address","internalType":"address"},{"name":"index","type":"uint256","internalType":"uint256"}],"outputs":[{"name":"","type":"uint256","internalType":"uint256"},{"name":"","type":"uint256","internalType":"uint256"},{"name":"","type":"uint256","internalType":"uint256"},{"name":"","type":"uint256","internalType":"uint256"}],"stateMutability":"view"},{"type":"function","name":"getStakeInfoArray","inputs":[{"name":"staker","type":"address","internalType":"address"}],"outputs":[{"name":"","type":"tuple[]","internalType":"struct Staking.UserStake[]","components":[{"name":"amount","type":"uint256","internalType":"uint256"},{"name":"lockOn","type":"uint256","internalType":"uint256"},{"name":"lockEnd","type":"uint256","internalType":"uint256"},{"name":"rewards","type":"uint256","internalType":"uint256"}]}],"stateMutability":"view"},{"type":"function","name":"isStaked","inputs":[{"name":"staker","type":"address","internalType":"address"},{"name":"index","type":"uint256","internalType":"uint256"}],"outputs":[{"name":"","type":"bool","internalType":"bool"}],"stateMutability":"view"},{"type":"function","name":"numStakes","inputs":[{"name":"staker","type":"address","internalType":"address"}],"outputs":[{"name":"","type":"uint256","internalType":"uint256"}],"stateMutability":"view"},{"type":"function","name":"owner","inputs":[],"outputs":[{"name":"","type":"address","internalType":"address"}],"stateMutability":"view"},{"type":"function","name":"recoverERC20","inputs":[{"name":"_token","type":"address","internalType":"address"},{"name":"amount","type":"uint256","internalType":"uint256"}],"outputs":[],"stateMutability":"nonpayable"},{"type":"function","name":"renounceOwnership","inputs":[],"outputs":[],"stateMutability":"nonpayable"},{"type":"function","name":"setClaimingContract","inputs":[{"name":"_claiming","type":"address","internalType":"address"}],"outputs":[],"stateMutability":"nonpayable"},{"type":"function","name":"setStakingEnabled","inputs":[],"outputs":[],"stateMutability":"nonpayable"},{"type":"function","name":"setToken","inputs":[{"name":"_token","type":"address","internalType":"address"}],"outputs":[],"stateMutability":"nonpayable"},{"type":"function","name":"stake","inputs":[{"name":"amount","type":"uint256","internalType":"uint256"},{"name":"durationInMonths","type":"uint256","internalType":"uint256"}],"outputs":[],"stateMutability":"nonpayable"},{"type":"function","name":"stakeFromClaiming","inputs":[{"name":"staker","type":"address","internalType":"address"},{"name":"amount","type":"uint256","internalType":"uint256"},{"name":"durationInMonths","type":"uint256","internalType":"uint256"}],"outputs":[],"stateMutability":"nonpayable"},{"type":"function","name":"stakingEnabled","inputs":[],"outputs":[{"name":"","type":"bool","internalType":"bool"}],"stateMutability":"view"},{"type":"function","name":"token","inputs":[],"outputs":[{"name":"","type":"address","internalType":"contract IERC20"}],"stateMutability":"view"},{"type":"function","name":"totalSupply","inputs":[],"outputs":[{"name":"","type":"uint256","internalType":"uint256"}],"stateMutability":"view"},{"type":"function","name":"transferOwnership","inputs":[{"name":"newOwner","type":"address","internalType":"address"}],"outputs":[],"stateMutability":"nonpayable"},{"type":"function","name":"withdraw","inputs":[{"name":"index","type":"uint256","internalType":"uint256"}],"outputs":[],"stateMutability":"nonpayable"},{"type":"function","name":"withdrawAll","inputs":[{"name":"onlyClaimable","type":"bool","internalType":"bool"}],"outputs":[],"stateMutability":"nonpayable"},{"type":"function","name":"withdrawBatch","inputs":[{"name":"fromIndex","type":"uint256","internalType":"uint256"},{"name":"toIndex","type":"uint256","internalType":"uint256"},{"name":"onlyClaimable","type":"bool","internalType":"bool"}],"outputs":[],"stateMutability":"nonpayable"},{"type":"event","name":"Claimed","inputs":[{"name":"user","type":"address","indexed":true,"internalType":"address"},{"name":"amount","type":"uint256","indexed":false,"internalType":"uint256"},{"name":"time","type":"uint256","indexed":false,"internalType":"uint256"}],"anonymous":false},{"type":"event","name":"OwnershipTransferred","inputs":[{"name":"previousOwner","type":"address","indexed":true,"internalType":"address"},{"name":"newOwner","type":"address","indexed":true,"internalType":"address"}],"anonymous":false},{"type":"event","name":"Recovered","inputs":[{"name":"sender","type":"address","indexed":true,"internalType":"address"},{"name":"token","type":"address","indexed":false,"internalType":"address"},{"name":"amount","type":"uint256","indexed":false,"internalType":"uint256"}],"anonymous":false},{"type":"event","name":"Staked","inputs":[{"name":"user","type":"address","indexed":true,"internalType":"address"},{"name":"amount","type":"uint256","indexed":false,"internalType":"uint256"},{"name":"time","type":"uint256","indexed":false,"internalType":"uint256"}],"anonymous":false},{"type":"event","name":"StakedDirectly","inputs":[{"name":"user","type":"address","indexed":true,"internalType":"address"},{"name":"amount","type":"uint256","indexed":false,"internalType":"uint256"},{"name":"time","type":"uint256","indexed":false,"internalType":"uint256"}],"anonymous":false},{"type":"event","name":"Withdrawed","inputs":[{"name":"user","type":"address","indexed":true,"internalType":"address"},{"name":"amount","type":"uint256","indexed":false,"internalType":"uint256"},{"name":"time","type":"uint256","indexed":false,"internalType":"uint256"}],"anonymous":false},{"type":"error","name":"AddressEmptyCode","inputs":[{"name":"target","type":"address","internalType":"address"}]},{"type":"error","name":"FailedCall","inputs":[]},{"type":"error","name":"InsufficientBalance","inputs":[{"name":"balance","type":"uint256","internalType":"uint256"},{"name":"needed","type":"uint256","internalType":"uint256"}]},{"type":"error","name":"OwnableInvalidOwner","inputs":[{"name":"owner","type":"address","internalType":"address"}]},{"type":"error","name":"OwnableUnauthorizedAccount","inputs":[{"name":"account","type":"address","internalType":"address"}]},{"type":"error","name":"SafeERC20FailedOperation","inputs":[{"name":"token","type":"address","internalType":"address"}]}],"bytecode":{"object":"0x60806040526103e86005556109c4600655610dac60075561138860085561271060095534801561002e57600080fd5b506040516119c13803806119c183398101604081905261004d916100f2565b338061007357604051631e4fbdf760e01b81526000600482015260240160405180910390fd5b61007c816100a2565b50600180546001600160a01b0319166001600160a01b0392909216919091179055610122565b600080546001600160a01b038381166001600160a01b0319831681178455604051919092169283917f8be0079c531659141344cd1fd0a4f28419497f9722a3daafe3b4186f6b6457e09190a35050565b60006020828403121561010457600080fd5b81516001600160a01b038116811461011b57600080fd5b9392505050565b611890806101316000396000f3fe608060405234801561001057600080fd5b506004361061018e5760003560e01c80636de8f6f6116100de5780638da5cb5b11610097578063c3dc660711610071578063c3dc660714610370578063c7a2d42414610379578063f2fde38b14610381578063fc0c546a1461039457600080fd5b80638da5cb5b14610343578063918f8674146103545780639ce696791461035d57600080fd5b80636de8f6f6146102d95780637019e761146102e2578063715018a6146102f55780637b0472f0146102fd5780637eaf0783146103105780638980f11f1461033057600080fd5b8063280b59331161014b5780633b521efe116101255780633b521efe146102775780635451da1b146102aa578063620baf79146102bd57806365e73dac146102c657600080fd5b8063280b5933146102325780632e1a7d4d1461023b5780633467e9e11461024e57600080fd5b80630962ef79146101935780630defc08a146101a8578063144fa6d7146101d857806318160ddd146101eb5780631c1c6fe5146102025780631cfff51b14610215575b600080fd5b6101a66101a1366004611559565b6103a7565b005b6002546101bb906001600160a01b031681565b6040516001600160a01b0390911681526020015b60405180910390f35b6101a66101e636600461158e565b610563565b6101f460035481565b6040519081526020016101cf565b6101a66102103660046115b7565b6105f6565b6004546102229060ff1681565b60405190151581526020016101cf565b6101f460075481565b6101a6610249366004611559565b61068c565b6101f461025c36600461158e565b6001600160a01b03166000908152600a602052604090205490565b61028a6102853660046115d4565b610755565b6040805194855260208501939093529183015260608201526080016101cf565b6102226102b83660046115d4565b6107ef565b6101f460065481565b6101a66102d43660046115fe565b61086f565b6101f460055481565b6101a66102f0366004611631565b610a60565b6101a6610b92565b6101a661030b36600461166a565b610ba6565b61032361031e36600461158e565b610d77565b6040516101cf919061168c565b6101a661033e3660046115d4565b610eb9565b6000546001600160a01b03166101bb565b6101f460095481565b6101a661036b36600461158e565b610f90565b6101f460085481565b6101a6611024565b6101a661038f36600461158e565b61108e565b6001546101bb906001600160a01b031681565b336000908152600a602052604090205481106104055760405162461bcd60e51b8152602060048201526018602482015277496e76616c696420696e646578206f66207374616b696e6760401b60448201526064015b60405180910390fd5b61040f33826107ef565b156104715760405162461bcd60e51b815260206004820152602c60248201527f43616e6e6f7420636c61696d2072657761726473206265666f7265206c6f636b60448201526b34b7339034b99037bb32b91760a11b60648201526084016103fc565b336000908152600a60205260408120805483908110610492576104926116f5565b9060005260206000209060040201905060008160030154116105025760405162461bcd60e51b815260206004820152602360248201527f5468657265206973206e6f20636c61696d61626c652072657761726420746f6b60448201526232b71760e91b60648201526084016103fc565b6003810180546000909155600154610524906001600160a01b031633836110cc565b6040805182815242602082015233917f987d620f307ff6b94d58743cb7a7509f24071586a77759b77c2d4e29f75a2f9a910160405180910390a2505050565b61056b611130565b6001600160a01b0381166105d45760405162461bcd60e51b815260206004820152602a60248201527f5374616b6520746f6b656e20616464726573732063616e6e6f74206265207a65604482015269726f206164647265737360b01b60648201526084016103fc565b600180546001600160a01b0319166001600160a01b0392909216919091179055565b60045460ff166106185760405162461bcd60e51b81526004016103fc9061170b565b336000908152600a6020526040902054806106715760405162461bcd60e51b8152602060048201526019602482015278596f75206469646e2774207374616b6520616e797468696e6760381b60448201526064016103fc565b610688336000610682600185611758565b8561115d565b5050565b60045460ff166106ae5760405162461bcd60e51b81526004016103fc9061170b565b336000908152600a602052604090205481106107075760405162461bcd60e51b8152602060048201526018602482015277496e76616c696420696e646578206f66207374616b696e6760401b60448201526064016103fc565b600061071333836111e2565b6040805182815242602082015291925033917f4cdcd27ae88503b2d4d3034a348b78aec00eca6369f48e5002ca3df8686b9b3e91015b60405180910390a25050565b6001600160a01b0382166000908152600a602052604081205481908190819085106107925760405162461bcd60e51b81526004016103fc9061176b565b6001600160a01b0386166000908152600a602052604081208054879081106107bc576107bc6116f5565b60009182526020909120600490910201805460018201546002830154600390930154919a90995091975095509350505050565b6001600160a01b0382166000908152600a602052604081205482106108265760405162461bcd60e51b81526004016103fc9061176b565b6001600160a01b0383166000908152600a60205260409020805442919084908110610853576108536116f5565b9060005260206000209060040201600201541190505b92915050565b6002546001600160a01b031633146108df5760405162461bcd60e51b815260206004820152602d60248201527f4f6e6c7920636c61696d696e6720636f6e74726163742063616e2063616c6c2060448201526c3a3434b990333ab731ba34b7b760991b60648201526084016103fc565b80600314806108ee5750806006145b806108f95750806009145b80610904575080600c145b6109505760405162461bcd60e51b815260206004820152601d60248201527f496e76616c6964206475726174696f6e20666f72207374616b696e672e00000060448201526064016103fc565b600154610968906001600160a01b03163330856112c4565b600061097483836112fd565b905060006109858362278d006117ac565b61098f90426117c3565b6001600160a01b0386166000908152600a602090815260408083208151608081018352898152428185019081529281018681526060820189815283546001818101865594885295872092516004909602909201948555925191840191909155905160028301555160039182015580549293508692909190610a119084906117c3565b9091555050604080518581524260208201526001600160a01b038716917fd3b90ff6341f54b26bbd8a316ae6c9ce50e2639e278d6820a1dd33ad5c8b4eef910160405180910390a25050505050565b60045460ff16610a825760405162461bcd60e51b81526004016103fc9061170b565b336000908152600a602052604090205480610adb5760405162461bcd60e51b8152602060048201526019602482015278596f75206469646e2774207374616b6520616e797468696e6760381b60448201526064016103fc565b82841115610b1e5760405162461bcd60e51b815260206004820152601060248201526f24b73b30b634b21034b73232bc32b99760811b60448201526064016103fc565b808310610b805760405162461bcd60e51b815260206004820152602a60248201527f496e6465782063616e6e6f74206265206f76657220746865206c656e677468206044820152696f66207374616b696e6760b01b60648201526084016103fc565b610b8c3385858561115d565b50505050565b610b9a611130565b610ba46000611368565b565b60045460ff16610bc85760405162461bcd60e51b81526004016103fc9061170b565b60008211610c095760405162461bcd60e51b815260206004820152600e60248201526d063616e6e6f74207374616b6520360941b60448201526064016103fc565b8060031480610c185750806006145b80610c235750806009145b80610c2e575080600c145b610c7a5760405162461bcd60e51b815260206004820152601d60248201527f496e76616c6964206475726174696f6e20666f72207374616b696e672e00000060448201526064016103fc565b600154610c92906001600160a01b03163330856112c4565b6000610c9e83836112fd565b90506000610caf8362278d006117ac565b610cb990426117c3565b336000908152600a602090815260408083208151608081018352898152428185019081529281018681526060820189815283546001818101865594885295872092516004909602909201948555925191840191909155905160028301555160039182015580549293508692909190610d329084906117c3565b90915550506040805185815242602082015233917f1449c6dd7851abc30abf37f57715f492010519147cc2652fbc38202c18a6ee90910160405180910390a250505050565b60606000610d9a836001600160a01b03166000908152600a602052604090205490565b905060008167ffffffffffffffff811115610db757610db76117d6565b604051908082528060200260200182016040528015610e1357816020015b610e006040518060800160405280600081526020016000815260200160008152602001600081525090565b815260200190600190039081610dd55790505b50905060005b82811015610eb1576001600160a01b0385166000908152600a60205260409020805482908110610e4b57610e4b6116f5565b9060005260206000209060040201604051806080016040529081600082015481526020016001820154815260200160028201548152602001600382015481525050828281518110610e9e57610e9e6116f5565b6020908102919091010152600101610e19565b509392505050565b610ec1611130565b6001546001600160a01b0390811690831603610f295760405162461bcd60e51b815260206004820152602160248201527f63616e6e6f7420776974686472617720746865207374616b696e6720746f6b656044820152603760f91b60648201526084016103fc565b610f4f610f3e6000546001600160a01b031690565b6001600160a01b03841690836110cc565b604080516001600160a01b03841681526020810183905233917ffff3b3844276f57024e0b42afec1a37f75db36511e43819a4f2a63ab7862b6489101610749565b610f98611130565b6001600160a01b0381166110025760405162461bcd60e51b815260206004820152602b60248201527f52657761726420746f6b656e20616464726573732063616e6e6f74206265207a60448201526a65726f206164647265737360a81b60648201526084016103fc565b600280546001600160a01b0319166001600160a01b0392909216919091179055565b61102c611130565b60045460ff161561107f5760405162461bcd60e51b815260206004820152601a60248201527f5374616b696e6720697320616c726561647920656e61626c656400000000000060448201526064016103fc565b6004805460ff19166001179055565b611096611130565b6001600160a01b0381166110c057604051631e4fbdf760e01b8152600060048201526024016103fc565b6110c981611368565b50565b6040516001600160a01b0383811660248301526044820183905261112b91859182169063a9059cbb906064015b604051602081830303815290604052915060e01b6020820180516001600160e01b0383818316178352505050506113b8565b505050565b6000546001600160a01b03163314610ba45760405163118cdaa760e01b81523360048201526024016103fc565b825b8281116111db57818015611178575061117885826107ef565b156111855760010161115f565b6001600160a01b0385166000908152600a602052604081208054839081106111af576111af6116f5565b90600052602060002090600402016000015411156111d3576111d185826111e2565b505b60010161115f565b5050505050565b6001600160a01b0382166000908152600a6020526040812080548291908490811061120f5761120f6116f5565b9060005260206000209060040201905060008160000154116112735760405162461bcd60e51b815260206004820152601860248201527f5468657265206973206e6f207374616b656420746f6b656e000000000000000060448201526064016103fc565b806002015442101561128757600060038201555b80546000808355600380548392906112a0908490611758565b90915550506001546112bc906001600160a01b031686836110cc565b949350505050565b6040516001600160a01b038481166024830152838116604483015260648201839052610b8c9186918216906323b872dd906084016110f9565b6000600382116113285760095460055461131790856117ac565b61132191906117ec565b9050610869565b600682116113405760095460065461131790856117ac565b600982116113585760095460075461131790856117ac565b60095460085461131790856117ac565b600080546001600160a01b038381166001600160a01b0319831681178455604051919092169283917f8be0079c531659141344cd1fd0a4f28419497f9722a3daafe3b4186f6b6457e09190a35050565b60006113cd6001600160a01b0384168361141b565b905080516000141580156113f25750808060200190518101906113f0919061180e565b155b1561112b57604051635274afe760e01b81526001600160a01b03841660048201526024016103fc565b606061142983836000611430565b9392505050565b60608147101561145c5760405163cf47918160e01b8152476004820152602481018390526044016103fc565b600080856001600160a01b03168486604051611478919061182b565b60006040518083038185875af1925050503d80600081146114b5576040519150601f19603f3d011682016040523d82523d6000602084013e6114ba565b606091505b50915091506114ca8683836114d4565b9695505050505050565b6060826114e9576114e482611530565b611429565b815115801561150057506001600160a01b0384163b155b1561152957604051639996b31560e01b81526001600160a01b03851660048201526024016103fc565b5080611429565b8051156115405780518082602001fd5b60405163d6bda27560e01b815260040160405180910390fd5b60006020828403121561156b57600080fd5b5035919050565b80356001600160a01b038116811461158957600080fd5b919050565b6000602082840312156115a057600080fd5b61142982611572565b80151581146110c957600080fd5b6000602082840312156115c957600080fd5b8135611429816115a9565b600080604083850312156115e757600080fd5b6115f083611572565b946020939093013593505050565b60008060006060848603121561161357600080fd5b61161c84611572565b95602085013595506040909401359392505050565b60008060006060848603121561164657600080fd5b8335925060208401359150604084013561165f816115a9565b809150509250925092565b6000806040838503121561167d57600080fd5b50508035926020909101359150565b602080825282518282018190526000918401906040840190835b818110156116ea57835180518452602081015160208501526040810151604085015260608101516060850152506080830192506020840193506001810190506116a6565b509095945050505050565b634e487b7160e01b600052603260045260246000fd5b60208082526017908201527f5374616b696e67206973206e6f7420656e61626c65642e000000000000000000604082015260600190565b634e487b7160e01b600052601160045260246000fd5b8181038181111561086957610869611742565b60208082526021908201527f496e76616c696420696e64657820666f72207374616b6564207265636f7264736040820152601760f91b606082015260800190565b808202811582820484141761086957610869611742565b8082018082111561086957610869611742565b634e487b7160e01b600052604160045260246000fd5b60008261180957634e487b7160e01b600052601260045260246000fd5b500490565b60006020828403121561182057600080fd5b8151611429816115a9565b6000825160005b8181101561184c5760208186018101518583015201611832565b50600092019182525091905056fea2646970667358221220001c452ed6522b309eba4d4a1aef0ef7635f00b774021bde9ce5a9d64e3e328864736f6c634300081a0033","linkReferences":{}},"methodIdentifiers":{"DENOMINATOR()":"918f8674","REWARD_RATE_1Q()":"6de8f6f6","REWARD_RATE_2Q()":"620baf79","REWARD_RATE_3Q()":"280b5933","REWARD_RATE_4Q()":"c3dc6607","claimRewards(uint256)":"0962ef79","claiming()":"0defc08a","getStakeInfo(address,uint256)":"3b521efe","getStakeInfoArray(address)":"7eaf0783","isStaked(address,uint256)":"5451da1b","numStakes(address)":"3467e9e1","owner()":"8da5cb5b","recoverERC20(address,uint256)":"8980f11f","renounceOwnership()":"715018a6","setClaimingContract(address)":"9ce69679","setStakingEnabled()":"c7a2d424","setToken(address)":"144fa6d7","stake(uint256,uint256)":"7b0472f0","stakeFromClaiming(address,uint256,uint256)":"65e73dac","stakingEnabled()":"1cfff51b","token()":"fc0c546a","totalSupply()":"18160ddd","transferOwnership(address)":"f2fde38b","withdraw(uint256)":"2e1a7d4d","withdrawAll(bool)":"1c1c6fe5","withdrawBatch(uint256,uint256,bool)":"7019e761"},"id":36}